{
  "_format": "hh-sol-artifact-1",
  "contractName": "BorrowHandler",
  "sourceName": "contracts/exchange/BorrowHandler.sol",
  "abi": [
    {
      "inputs": [
        {
          "internalType": "contract RoleStore",
          "name": "_roleStore",
          "type": "address"
        },
        {
          "internalType": "contract DataStore",
          "name": "_dataStore",
          "type": "address"
        }
      ],
      "stateMutability": "nonpayable",
      "type": "constructor"
    },
    {
      "inputs": [],
      "name": "dataStore",
      "outputs": [
        {
          "internalType": "contract DataStore",
          "name": "",
          "type": "address"
        }
      ],
      "stateMutability": "view",
      "type": "function"
    },
    {
      "inputs": [
        {
          "internalType": "address",
          "name": "account",
          "type": "address"
        },
        {
          "components": [
            {
              "internalType": "address",
              "name": "underlyingAsset",
              "type": "address"
            },
            {
              "internalType": "uint256",
              "name": "amount",
              "type": "uint256"
            }
          ],
          "internalType": "struct BorrowUtils.BorrowParams",
          "name": "BorrowParams",
          "type": "tuple"
        }
      ],
      "name": "executeBorrow",
      "outputs": [],
      "stateMutability": "nonpayable",
      "type": "function"
    },
    {
      "inputs": [],
      "name": "roleStore",
      "outputs": [
        {
          "internalType": "contract RoleStore",
          "name": "",
          "type": "address"
        }
      ],
      "stateMutability": "view",
      "type": "function"
    }
  ],
  "bytecode": "0x60c060405234801561001057600080fd5b5060405161062138038061062183398101604081905261002f9161005e565b6001600160a01b039081166080521660a052610098565b6001600160a01b038116811461005b57600080fd5b50565b6000806040838503121561007157600080fd5b825161007c81610046565b602084015190925061008d81610046565b809150509250929050565b60805160a05161054b6100d66000396000604b01526000818160a30152818160dc015281816101cc015281816102d3015261038d015261054b6000f3fe608060405234801561001057600080fd5b50600436106100415760003560e01c80634a4a7b0414610046578063577ffe3114610089578063660d0d671461009e575b600080fd5b61006d7f000000000000000000000000000000000000000000000000000000000000000081565b6040516001600160a01b03909116815260200160405180910390f35b61009c610097366004610464565b6100c5565b005b61006d7f000000000000000000000000000000000000000000000000000000000000000081565b6100cd6101c8565b600060405180606001604052807f00000000000000000000000000000000000000000000000000000000000000006001600160a01b0316815260200183600001602081019061011c91906104a3565b6001600160a01b0390811682526020858101359281019290925260408051632972b48d60e11b81528783166004820152845183166024820152928401519091166044830152820151606482015290915073__$cde4a25c5cd794517f1425d10dbad6d2c4$__906352e5691a9060840160006040518083038186803b1580156101a357600080fd5b505af41580156101b7573d6000803e3d6000fd5b50505050506101c461038b565b5050565b60007f00000000000000000000000000000000000000000000000000000000000000006001600160a01b031663bd02d0f5604051602001610208906104c5565b604051602081830303815290604052805190602001206040518263ffffffff1660e01b815260040161023c91815260200190565b602060405180830381865afa158015610259573d6000803e3d6000fd5b505050506040513d601f19601f8201168201806040525081019061027d91906104fc565b905080156102d15760405162461bcd60e51b815260206004820152601f60248201527f5265656e7472616e637947756172643a207265656e7472616e742063616c6c00604482015260640160405180910390fd5b7f00000000000000000000000000000000000000000000000000000000000000006001600160a01b031663e2a4853a60405160200161030f906104c5565b60408051601f198184030181529082905280516020909101206001600160e01b031960e084901b1682526004820152600160248201526044016020604051808303816000875af1158015610367573d6000803e3d6000fd5b505050506040513d601f19601f820116820180604052508101906101c491906104fc565b7f00000000000000000000000000000000000000000000000000000000000000006001600160a01b031663e2a4853a6040516020016103c9906104c5565b60408051601f198184030181529082905280516020909101206001600160e01b031960e084901b1682526004820152600060248201526044016020604051808303816000875af1158015610421573d6000803e3d6000fd5b505050506040513d601f19601f8201168201806040525081019061044591906104fc565b50565b80356001600160a01b038116811461045f57600080fd5b919050565b600080828403606081121561047857600080fd5b61048184610448565b92506040601f198201121561049557600080fd5b506020830190509250929050565b6000602082840312156104b557600080fd5b6104be82610448565b9392505050565b60208082526017908201527f5245454e5452414e43595f47554152445f535441545553000000000000000000604082015260600190565b60006020828403121561050e57600080fd5b505191905056fea2646970667358221220130e0f3b887415c4e9673543336c74cd9666bc7e5fc5c77996dec44b61c0a0db64736f6c63430008140033",
  "linkReferences": {
    "contracts/borrow/BorrowUtils.sol": {
      "BorrowUtils": [
        {
          "length": 20,
          "start": 580
        }
      ]
    }
  },
  "deployedLinkReferences": {
    "contracts/borrow/BorrowUtils.sol": {
      "BorrowUtils": [
        {
          "length": 20,
          "start": 366
        }
      ]
    }
  }
}