{
  "_format": "hh-sol-artifact-1",
  "contractName": "Config",
  "sourceName": "contracts/config/Config.sol",
  "abi": [
    {
      "inputs": [
        {
          "internalType": "contract RoleStore",
          "name": "_roleStore",
          "type": "address"
        },
        {
          "internalType": "contract DataStore",
          "name": "_dataStore",
          "type": "address"
        }
      ],
      "stateMutability": "nonpayable",
      "type": "constructor"
    },
    {
      "inputs": [
        {
          "internalType": "uint256",
          "name": "borrowCapacity",
          "type": "uint256"
        },
        {
          "internalType": "uint256",
          "name": "MaxValidBorrowCapacity",
          "type": "uint256"
        }
      ],
      "name": "InvalidBorrowCapacity",
      "type": "error"
    },
    {
      "inputs": [
        {
          "internalType": "uint256",
          "name": "decimals",
          "type": "uint256"
        },
        {
          "internalType": "uint256",
          "name": "MaxValidDecimals",
          "type": "uint256"
        }
      ],
      "name": "InvalidDecimals",
      "type": "error"
    },
    {
      "inputs": [
        {
          "internalType": "uint256",
          "name": "feeFactor",
          "type": "uint256"
        },
        {
          "internalType": "uint256",
          "name": "MaxValidFeeFactor",
          "type": "uint256"
        }
      ],
      "name": "InvalidFeeFactor",
      "type": "error"
    },
    {
      "inputs": [
        {
          "internalType": "address",
          "name": "msgSender",
          "type": "address"
        },
        {
          "internalType": "string",
          "name": "role",
          "type": "string"
        }
      ],
      "name": "Unauthorized",
      "type": "error"
    },
    {
      "inputs": [],
      "name": "dataStore",
      "outputs": [
        {
          "internalType": "contract DataStore",
          "name": "",
          "type": "address"
        }
      ],
      "stateMutability": "view",
      "type": "function"
    },
    {
      "inputs": [
        {
          "internalType": "bytes[]",
          "name": "data",
          "type": "bytes[]"
        }
      ],
      "name": "multicall",
      "outputs": [
        {
          "internalType": "bytes[]",
          "name": "results",
          "type": "bytes[]"
        }
      ],
      "stateMutability": "nonpayable",
      "type": "function"
    },
    {
      "inputs": [],
      "name": "roleStore",
      "outputs": [
        {
          "internalType": "contract RoleStore",
          "name": "",
          "type": "address"
        }
      ],
      "stateMutability": "view",
      "type": "function"
    },
    {
      "inputs": [
        {
          "internalType": "uint256",
          "name": "threshold",
          "type": "uint256"
        }
      ],
      "name": "setHealthFactorCollateralRateThreshold",
      "outputs": [],
      "stateMutability": "nonpayable",
      "type": "function"
    },
    {
      "inputs": [
        {
          "internalType": "address",
          "name": "underlyingAsset",
          "type": "address"
        },
        {
          "internalType": "bool",
          "name": "active",
          "type": "bool"
        }
      ],
      "name": "setPoolActive",
      "outputs": [],
      "stateMutability": "nonpayable",
      "type": "function"
    },
    {
      "inputs": [
        {
          "internalType": "address",
          "name": "underlyingAsset",
          "type": "address"
        },
        {
          "internalType": "uint256",
          "name": "borrowCapacity",
          "type": "uint256"
        }
      ],
      "name": "setPoolBorrowCapacity",
      "outputs": [],
      "stateMutability": "nonpayable",
      "type": "function"
    },
    {
      "inputs": [
        {
          "internalType": "address",
          "name": "underlyingAsset",
          "type": "address"
        },
        {
          "internalType": "uint256",
          "name": "decimals",
          "type": "uint256"
        }
      ],
      "name": "setPoolDecimals",
      "outputs": [],
      "stateMutability": "nonpayable",
      "type": "function"
    },
    {
      "inputs": [
        {
          "internalType": "address",
          "name": "underlyingAsset",
          "type": "address"
        },
        {
          "internalType": "uint256",
          "name": "feeFactor",
          "type": "uint256"
        }
      ],
      "name": "setPoolFeeFactor",
      "outputs": [],
      "stateMutability": "nonpayable",
      "type": "function"
    },
    {
      "inputs": [
        {
          "internalType": "address",
          "name": "underlyingAsset",
          "type": "address"
        },
        {
          "internalType": "bool",
          "name": "freeze",
          "type": "bool"
        }
      ],
      "name": "setPoolFreeze",
      "outputs": [],
      "stateMutability": "nonpayable",
      "type": "function"
    },
    {
      "inputs": [
        {
          "internalType": "address",
          "name": "underlyingAsset",
          "type": "address"
        },
        {
          "internalType": "bool",
          "name": "paused",
          "type": "bool"
        }
      ],
      "name": "setPoolPause",
      "outputs": [],
      "stateMutability": "nonpayable",
      "type": "function"
    },
    {
      "inputs": [
        {
          "internalType": "address",
          "name": "underlyingAsset",
          "type": "address"
        },
        {
          "internalType": "uint256",
          "name": "supplyCapacity",
          "type": "uint256"
        }
      ],
      "name": "setPoolSupplyCapacity",
      "outputs": [],
      "stateMutability": "nonpayable",
      "type": "function"
    }
  ],
  "bytecode": "0x60c060405234801561001057600080fd5b5060405161118b38038061118b83398101604081905261002f91610063565b60016000556001600160a01b039182166080521660a05261009d565b6001600160a01b038116811461006057600080fd5b50565b6000806040838503121561007657600080fd5b82516100818161004b565b60208401519092506100928161004b565b809150509250929050565b60805160a05161108b6101006000396000818161011f01528181610235015281816102ea015281816103b10152818161046c015281816106c70152818161079a0152818161086d015261094001526000818160c801526109fb015261108b6000f3fe608060405234801561001057600080fd5b50600436106100a95760003560e01c80639f44ba18116100715780639f44ba1814610141578063ac9650d814610154578063b0eac6fd14610174578063e0e037df14610187578063ec2733901461019a578063ed8d3f04146101ad57600080fd5b8063287d0a33146100ae5780634a4a7b04146100c35780634f296a4014610107578063660d0d671461011a5780639e71ff1014610107575b600080fd5b6100c16100bc366004610ca5565b6101c0565b005b6100ea7f000000000000000000000000000000000000000000000000000000000000000081565b6040516001600160a01b0390911681526020015b60405180910390f35b6100c1610115366004610ca5565b61037d565b6100ea7f000000000000000000000000000000000000000000000000000000000000000081565b6100c161014f366004610ccf565b610450565b610167610162366004610ce8565b610574565b6040516100fe9190610dad565b6100c1610182366004610e1d565b610693565b6100c1610195366004610e1d565b610766565b6100c16101a8366004610ca5565b610839565b6100c16101bb366004610e1d565b61090c565b6102136040516020016101d290610e54565b604051602081830303815290604052805190602001206040518060400160405280600d81526020016c21a7a72324a3afa5a2a2a822a960991b8152506109df565b61021b610a98565b600082604051630a6d2db160e11b81526001600160a01b037f0000000000000000000000000000000000000000000000000000000000000000811660048301528216602482015290915060009073__$e0022d6f389ac14ff1ce1dc57a4018d0a3$__906314da5b6290604401602060405180830381865af41580156102a4573d6000803e3d6000fd5b505050506040513d601f19601f820116820180604052508101906102c89190610e7b565b90506102d48184610af1565b604051621949c360e61b81526001600160a01b037f000000000000000000000000000000000000000000000000000000000000000081166004830152831660248201526044810182905273__$e0022d6f389ac14ff1ce1dc57a4018d0a3$__9063065270c09060640160006040518083038186803b15801561035557600080fd5b505af4158015610369573d6000803e3d6000fd5b5050505050506103796001600055565b5050565b61038f6040516020016101d290610e54565b610397610a98565b600082604051630a6d2db160e11b81526001600160a01b037f0000000000000000000000000000000000000000000000000000000000000000811660048301528216602482015290915060009073__$e0022d6f389ac14ff1ce1dc57a4018d0a3$__906314da5b6290604401602060405180830381865af4158015610420573d6000803e3d6000fd5b505050506040513d601f19601f820116820180604052508101906104449190610e7b565b90506102d48184610b1f565b6104626040516020016101d290610e54565b61046a610a98565b7f00000000000000000000000000000000000000000000000000000000000000006001600160a01b031663e2a4853a6040516020016104ea9060208082526027908201527f4845414c54485f464143544f525f434f4c4c41544552414c5f524154455f5448604082015266149154d213d31160ca1b606082015260800190565b60408051601f198184030181529082905280516020909101206001600160e01b031960e084901b1682526004820152602481018490526044016020604051808303816000875af1158015610542573d6000803e3d6000fd5b505050506040513d601f19601f820116820180604052508101906105669190610e7b565b506105716001600055565b50565b60608167ffffffffffffffff81111561058f5761058f610e94565b6040519080825280602002602001820160405280156105c257816020015b60608152602001906001900390816105ad5790505b50905060005b8281101561068c57600080308686858181106105e6576105e6610eaa565b90506020028101906105f89190610ec0565b604051610606929190610f0e565b600060405180830381855af49150503d8060008114610641576040519150601f19603f3d011682016040523d82523d6000602084013e610646565b606091505b5091509150816106595761065981610b53565b8084848151811061066c5761066c610eaa565b60200260200101819052505050808061068490610f1e565b9150506105c8565b5092915050565b6106a56040516020016101d290610e54565b6106ad610a98565b600082604051630a6d2db160e11b81526001600160a01b037f0000000000000000000000000000000000000000000000000000000000000000811660048301528216602482015290915060009073__$e0022d6f389ac14ff1ce1dc57a4018d0a3$__906314da5b6290604401602060405180830381865af4158015610736573d6000803e3d6000fd5b505050506040513d601f19601f8201168201806040525081019061075a9190610e7b565b90506102d48184610b91565b6107786040516020016101d290610e54565b610780610a98565b600082604051630a6d2db160e11b81526001600160a01b037f0000000000000000000000000000000000000000000000000000000000000000811660048301528216602482015290915060009073__$e0022d6f389ac14ff1ce1dc57a4018d0a3$__906314da5b6290604401602060405180830381865af4158015610809573d6000803e3d6000fd5b505050506040513d601f19601f8201168201806040525081019061082d9190610e7b565b90506102d48184610ba8565b61084b6040516020016101d290610e54565b610853610a98565b600082604051630a6d2db160e11b81526001600160a01b037f0000000000000000000000000000000000000000000000000000000000000000811660048301528216602482015290915060009073__$e0022d6f389ac14ff1ce1dc57a4018d0a3$__906314da5b6290604401602060405180830381865af41580156108dc573d6000803e3d6000fd5b505050506040513d601f19601f820116820180604052508101906109009190610e7b565b90506102d48184610bb6565b61091e6040516020016101d290610e54565b610926610a98565b600082604051630a6d2db160e11b81526001600160a01b037f0000000000000000000000000000000000000000000000000000000000000000811660048301528216602482015290915060009073__$e0022d6f389ac14ff1ce1dc57a4018d0a3$__906314da5b6290604401602060405180830381865af41580156109af573d6000803e3d6000fd5b505050506040513d601f19601f820116820180604052508101906109d39190610e7b565b90506102d48184610be2565b60405163ac4ab3fb60e01b8152336004820152602481018390527f00000000000000000000000000000000000000000000000000000000000000006001600160a01b03169063ac4ab3fb90604401602060405180830381865afa158015610a4a573d6000803e3d6000fd5b505050506040513d601f19601f82011682018060405250810190610a6e9190610f45565b61037957338160405163a35b150b60e01b8152600401610a8f929190610f69565b60405180910390fd5b600260005403610aea5760405162461bcd60e51b815260206004820152601f60248201527f5265656e7472616e637947756172643a207265656e7472616e742063616c6c006044820152606401610a8f565b6002600055565b61ffff81111561037957604051639d1ea70b60e01b81526004810182905261ffff6024820152604401610a8f565b640fffffffff811115610379576040516312b817d960e31b815260048101829052640fffffffff6024820152604401610a8f565b600080610b5f83610bf0565b915091508015610b83578160405162461bcd60e51b8152600401610a8f9190610f95565b610b8c83610c80565b505050565b603c81610b9f576000610ba2565b60015b50505050565b603881610b9f576000610ba2565b60ff8110156103795760405163c3ca0e3760e01b81526004810182905260ff6024820152604401610a8f565b603981610b9f576000610ba2565b60606000604483511015610c17575050604080516020810190915260008082529092909150565b6000610c24846020015190565b90506307b9e43360e51b6001600160e01b0319821601610c635760048401935083806020019051810190610c589190610fa8565b946001945092505050565b600060405180602001604052806000815250909250925050915091565b80518060208301fd5b80356001600160a01b0381168114610ca057600080fd5b919050565b60008060408385031215610cb857600080fd5b610cc183610c89565b946020939093013593505050565b600060208284031215610ce157600080fd5b5035919050565b60008060208385031215610cfb57600080fd5b823567ffffffffffffffff80821115610d1357600080fd5b818501915085601f830112610d2757600080fd5b813581811115610d3657600080fd5b8660208260051b8501011115610d4b57600080fd5b60209290920196919550909350505050565b60005b83811015610d78578181015183820152602001610d60565b50506000910152565b60008151808452610d99816020860160208601610d5d565b601f01601f19169290920160200192915050565b6000602080830181845280855180835260408601915060408160051b870101925083870160005b82811015610e0257603f19888603018452610df0858351610d81565b94509285019290850190600101610dd4565b5092979650505050505050565b801515811461057157600080fd5b60008060408385031215610e3057600080fd5b610e3983610c89565b91506020830135610e4981610e0f565b809150509250929050565b6020808252600d908201526c21a7a72324a3afa5a2a2a822a960991b604082015260600190565b600060208284031215610e8d57600080fd5b5051919050565b634e487b7160e01b600052604160045260246000fd5b634e487b7160e01b600052603260045260246000fd5b6000808335601e19843603018112610ed757600080fd5b83018035915067ffffffffffffffff821115610ef257600080fd5b602001915036819003821315610f0757600080fd5b9250929050565b8183823760009101908152919050565b600060018201610f3e57634e487b7160e01b600052601160045260246000fd5b5060010190565b600060208284031215610f5757600080fd5b8151610f6281610e0f565b9392505050565b6001600160a01b0383168152604060208201819052600090610f8d90830184610d81565b949350505050565b602081526000610f626020830184610d81565b600060208284031215610fba57600080fd5b815167ffffffffffffffff80821115610fd257600080fd5b818401915084601f830112610fe657600080fd5b815181811115610ff857610ff8610e94565b604051601f8201601f19908116603f0116810190838211818310171561102057611020610e94565b8160405282815287602084870101111561103957600080fd5b61104a836020830160208801610d5d565b97965050505050505056fea2646970667358221220da2bd6824eba0ec28214baa779f3793252567f6466fd14118755428d92d2d6ee64736f6c63430008140033",
  "linkReferences": {
    "contracts/pool/PoolStoreUtils.sol": {
      "PoolStoreUtils": [
        {
          "length": 20,
          "start": 874
        },
        {
          "length": 20,
          "start": 1056
        },
        {
          "length": 20,
          "start": 1254
        },
        {
          "length": 20,
          "start": 2044
        },
        {
          "length": 20,
          "start": 2255
        },
        {
          "length": 20,
          "start": 2466
        },
        {
          "length": 20,
          "start": 2677
        }
      ]
    }
  },
  "deployedLinkReferences": {
    "contracts/pool/PoolStoreUtils.sol": {
      "PoolStoreUtils": [
        {
          "length": 20,
          "start": 618
        },
        {
          "length": 20,
          "start": 800
        },
        {
          "length": 20,
          "start": 998
        },
        {
          "length": 20,
          "start": 1788
        },
        {
          "length": 20,
          "start": 1999
        },
        {
          "length": 20,
          "start": 2210
        },
        {
          "length": 20,
          "start": 2421
        }
      ]
    }
  }
}