{
  "_format": "hh-sol-artifact-1",
  "contractName": "ConfigStoreUtils",
  "sourceName": "contracts/config/ConfigStoreUtils.sol",
  "abi": [
    {
      "inputs": [
        {
          "internalType": "contract DataStore",
          "name": "dataStore",
          "type": "DataStore"
        }
      ],
      "name": "getHealthFactorCollateralRateThreshold",
      "outputs": [
        {
          "internalType": "uint256",
          "name": "",
          "type": "uint256"
        }
      ],
      "stateMutability": "view",
      "type": "function"
    }
  ],
  "bytecode": "0x6101bb61003a600b82828239805160001a60731461002d57634e487b7160e01b600052600060045260246000fd5b30600052607381538281f3fe73000000000000000000000000000000000000000030146080604052600436106100355760003560e01c8063ba0668e21461003a575b600080fd5b61004d61004836600461013c565b61005f565b60405190815260200160405180910390f35b6000816001600160a01b031663bd02d0f56040516020016100c19060208082526027908201527f4845414c54485f464143544f525f434f4c4c41544552414c5f524154455f5448604082015266149154d213d31160ca1b606082015260800190565b604051602081830303815290604052805190602001206040518263ffffffff1660e01b81526004016100f591815260200190565b602060405180830381865afa158015610112573d6000803e3d6000fd5b505050506040513d601f19601f82011682018060405250810190610136919061016c565b92915050565b60006020828403121561014e57600080fd5b81356001600160a01b038116811461016557600080fd5b9392505050565b60006020828403121561017e57600080fd5b505191905056fea2646970667358221220854218ddc33157305efcc34f5fbb570f012cf6540809d45094bf468f22a9aefa64736f6c63430008140033",
  "linkReferences": {},
  "deployedLinkReferences": {}
}