{
  "_format": "hh-sol-artifact-1",
  "contractName": "DataStore",
  "sourceName": "contracts/data/DataStore.sol",
  "abi": [
    {
      "inputs": [
        {
          "internalType": "contract RoleStore",
          "name": "_roleStore",
          "type": "address"
        }
      ],
      "stateMutability": "nonpayable",
      "type": "constructor"
    },
    {
      "inputs": [
        {
          "internalType": "address",
          "name": "msgSender",
          "type": "address"
        },
        {
          "internalType": "string",
          "name": "role",
          "type": "string"
        }
      ],
      "name": "Unauthorized",
      "type": "error"
    },
    {
      "inputs": [
        {
          "internalType": "bytes32",
          "name": "setKey",
          "type": "bytes32"
        },
        {
          "internalType": "address",
          "name": "value",
          "type": "address"
        }
      ],
      "name": "addAddress",
      "outputs": [],
      "stateMutability": "nonpayable",
      "type": "function"
    },
    {
      "inputs": [
        {
          "internalType": "bytes32",
          "name": "setKey",
          "type": "bytes32"
        },
        {
          "internalType": "bytes32",
          "name": "value",
          "type": "bytes32"
        }
      ],
      "name": "addBytes32",
      "outputs": [],
      "stateMutability": "nonpayable",
      "type": "function"
    },
    {
      "inputs": [
        {
          "internalType": "bytes32",
          "name": "setKey",
          "type": "bytes32"
        },
        {
          "internalType": "uint256",
          "name": "value",
          "type": "uint256"
        }
      ],
      "name": "addUint",
      "outputs": [],
      "stateMutability": "nonpayable",
      "type": "function"
    },
    {
      "inputs": [
        {
          "internalType": "bytes32",
          "name": "",
          "type": "bytes32"
        },
        {
          "internalType": "uint256",
          "name": "",
          "type": "uint256"
        }
      ],
      "name": "addressArrayValues",
      "outputs": [
        {
          "internalType": "address",
          "name": "",
          "type": "address"
        }
      ],
      "stateMutability": "view",
      "type": "function"
    },
    {
      "inputs": [
        {
          "internalType": "bytes32",
          "name": "",
          "type": "bytes32"
        }
      ],
      "name": "addressValues",
      "outputs": [
        {
          "internalType": "address",
          "name": "",
          "type": "address"
        }
      ],
      "stateMutability": "view",
      "type": "function"
    },
    {
      "inputs": [
        {
          "internalType": "bytes32",
          "name": "key",
          "type": "bytes32"
        },
        {
          "internalType": "int256",
          "name": "value",
          "type": "int256"
        }
      ],
      "name": "applyBoundedDeltaToUint",
      "outputs": [
        {
          "internalType": "uint256",
          "name": "",
          "type": "uint256"
        }
      ],
      "stateMutability": "nonpayable",
      "type": "function"
    },
    {
      "inputs": [
        {
          "internalType": "bytes32",
          "name": "key",
          "type": "bytes32"
        },
        {
          "internalType": "int256",
          "name": "value",
          "type": "int256"
        }
      ],
      "name": "applyDeltaToInt",
      "outputs": [
        {
          "internalType": "int256",
          "name": "",
          "type": "int256"
        }
      ],
      "stateMutability": "nonpayable",
      "type": "function"
    },
    {
      "inputs": [
        {
          "internalType": "bytes32",
          "name": "key",
          "type": "bytes32"
        },
        {
          "internalType": "int256",
          "name": "value",
          "type": "int256"
        },
        {
          "internalType": "string",
          "name": "errorMessage",
          "type": "string"
        }
      ],
      "name": "applyDeltaToUint",
      "outputs": [
        {
          "internalType": "uint256",
          "name": "",
          "type": "uint256"
        }
      ],
      "stateMutability": "nonpayable",
      "type": "function"
    },
    {
      "inputs": [
        {
          "internalType": "bytes32",
          "name": "key",
          "type": "bytes32"
        },
        {
          "internalType": "uint256",
          "name": "value",
          "type": "uint256"
        }
      ],
      "name": "applyDeltaToUint",
      "outputs": [
        {
          "internalType": "uint256",
          "name": "",
          "type": "uint256"
        }
      ],
      "stateMutability": "nonpayable",
      "type": "function"
    },
    {
      "inputs": [
        {
          "internalType": "bytes32",
          "name": "",
          "type": "bytes32"
        },
        {
          "internalType": "uint256",
          "name": "",
          "type": "uint256"
        }
      ],
      "name": "boolArrayValues",
      "outputs": [
        {
          "internalType": "bool",
          "name": "",
          "type": "bool"
        }
      ],
      "stateMutability": "view",
      "type": "function"
    },
    {
      "inputs": [
        {
          "internalType": "bytes32",
          "name": "",
          "type": "bytes32"
        }
      ],
      "name": "boolValues",
      "outputs": [
        {
          "internalType": "bool",
          "name": "",
          "type": "bool"
        }
      ],
      "stateMutability": "view",
      "type": "function"
    },
    {
      "inputs": [
        {
          "internalType": "bytes32",
          "name": "",
          "type": "bytes32"
        },
        {
          "internalType": "uint256",
          "name": "",
          "type": "uint256"
        }
      ],
      "name": "bytes32ArrayValues",
      "outputs": [
        {
          "internalType": "bytes32",
          "name": "",
          "type": "bytes32"
        }
      ],
      "stateMutability": "view",
      "type": "function"
    },
    {
      "inputs": [
        {
          "internalType": "bytes32",
          "name": "",
          "type": "bytes32"
        }
      ],
      "name": "bytes32Values",
      "outputs": [
        {
          "internalType": "bytes32",
          "name": "",
          "type": "bytes32"
        }
      ],
      "stateMutability": "view",
      "type": "function"
    },
    {
      "inputs": [
        {
          "internalType": "bytes32",
          "name": "setKey",
          "type": "bytes32"
        },
        {
          "internalType": "address",
          "name": "value",
          "type": "address"
        }
      ],
      "name": "containsAddress",
      "outputs": [
        {
          "internalType": "bool",
          "name": "",
          "type": "bool"
        }
      ],
      "stateMutability": "view",
      "type": "function"
    },
    {
      "inputs": [
        {
          "internalType": "bytes32",
          "name": "setKey",
          "type": "bytes32"
        },
        {
          "internalType": "bytes32",
          "name": "value",
          "type": "bytes32"
        }
      ],
      "name": "containsBytes32",
      "outputs": [
        {
          "internalType": "bool",
          "name": "",
          "type": "bool"
        }
      ],
      "stateMutability": "view",
      "type": "function"
    },
    {
      "inputs": [
        {
          "internalType": "bytes32",
          "name": "setKey",
          "type": "bytes32"
        },
        {
          "internalType": "uint256",
          "name": "value",
          "type": "uint256"
        }
      ],
      "name": "containsUint",
      "outputs": [
        {
          "internalType": "bool",
          "name": "",
          "type": "bool"
        }
      ],
      "stateMutability": "view",
      "type": "function"
    },
    {
      "inputs": [
        {
          "internalType": "bytes32",
          "name": "key",
          "type": "bytes32"
        },
        {
          "internalType": "int256",
          "name": "value",
          "type": "int256"
        }
      ],
      "name": "decrementInt",
      "outputs": [
        {
          "internalType": "int256",
          "name": "",
          "type": "int256"
        }
      ],
      "stateMutability": "nonpayable",
      "type": "function"
    },
    {
      "inputs": [
        {
          "internalType": "bytes32",
          "name": "key",
          "type": "bytes32"
        },
        {
          "internalType": "uint256",
          "name": "value",
          "type": "uint256"
        }
      ],
      "name": "decrementUint",
      "outputs": [
        {
          "internalType": "uint256",
          "name": "",
          "type": "uint256"
        }
      ],
      "stateMutability": "nonpayable",
      "type": "function"
    },
    {
      "inputs": [
        {
          "internalType": "bytes32",
          "name": "key",
          "type": "bytes32"
        }
      ],
      "name": "getAddress",
      "outputs": [
        {
          "internalType": "address",
          "name": "",
          "type": "address"
        }
      ],
      "stateMutability": "view",
      "type": "function"
    },
    {
      "inputs": [
        {
          "internalType": "bytes32",
          "name": "key",
          "type": "bytes32"
        }
      ],
      "name": "getAddressArray",
      "outputs": [
        {
          "internalType": "address[]",
          "name": "",
          "type": "address[]"
        }
      ],
      "stateMutability": "view",
      "type": "function"
    },
    {
      "inputs": [
        {
          "internalType": "bytes32",
          "name": "setKey",
          "type": "bytes32"
        }
      ],
      "name": "getAddressCount",
      "outputs": [
        {
          "internalType": "uint256",
          "name": "",
          "type": "uint256"
        }
      ],
      "stateMutability": "view",
      "type": "function"
    },
    {
      "inputs": [
        {
          "internalType": "bytes32",
          "name": "setKey",
          "type": "bytes32"
        },
        {
          "internalType": "uint256",
          "name": "start",
          "type": "uint256"
        },
        {
          "internalType": "uint256",
          "name": "end",
          "type": "uint256"
        }
      ],
      "name": "getAddressValuesAt",
      "outputs": [
        {
          "internalType": "address[]",
          "name": "",
          "type": "address[]"
        }
      ],
      "stateMutability": "view",
      "type": "function"
    },
    {
      "inputs": [
        {
          "internalType": "bytes32",
          "name": "key",
          "type": "bytes32"
        }
      ],
      "name": "getBool",
      "outputs": [
        {
          "internalType": "bool",
          "name": "",
          "type": "bool"
        }
      ],
      "stateMutability": "view",
      "type": "function"
    },
    {
      "inputs": [
        {
          "internalType": "bytes32",
          "name": "key",
          "type": "bytes32"
        }
      ],
      "name": "getBoolArray",
      "outputs": [
        {
          "internalType": "bool[]",
          "name": "",
          "type": "bool[]"
        }
      ],
      "stateMutability": "view",
      "type": "function"
    },
    {
      "inputs": [
        {
          "internalType": "bytes32",
          "name": "key",
          "type": "bytes32"
        }
      ],
      "name": "getBytes32",
      "outputs": [
        {
          "internalType": "bytes32",
          "name": "",
          "type": "bytes32"
        }
      ],
      "stateMutability": "view",
      "type": "function"
    },
    {
      "inputs": [
        {
          "internalType": "bytes32",
          "name": "key",
          "type": "bytes32"
        }
      ],
      "name": "getBytes32Array",
      "outputs": [
        {
          "internalType": "bytes32[]",
          "name": "",
          "type": "bytes32[]"
        }
      ],
      "stateMutability": "view",
      "type": "function"
    },
    {
      "inputs": [
        {
          "internalType": "bytes32",
          "name": "setKey",
          "type": "bytes32"
        }
      ],
      "name": "getBytes32Count",
      "outputs": [
        {
          "internalType": "uint256",
          "name": "",
          "type": "uint256"
        }
      ],
      "stateMutability": "view",
      "type": "function"
    },
    {
      "inputs": [
        {
          "internalType": "bytes32",
          "name": "setKey",
          "type": "bytes32"
        },
        {
          "internalType": "uint256",
          "name": "start",
          "type": "uint256"
        },
        {
          "internalType": "uint256",
          "name": "end",
          "type": "uint256"
        }
      ],
      "name": "getBytes32ValuesAt",
      "outputs": [
        {
          "internalType": "bytes32[]",
          "name": "",
          "type": "bytes32[]"
        }
      ],
      "stateMutability": "view",
      "type": "function"
    },
    {
      "inputs": [
        {
          "internalType": "bytes32",
          "name": "key",
          "type": "bytes32"
        }
      ],
      "name": "getInt",
      "outputs": [
        {
          "internalType": "int256",
          "name": "",
          "type": "int256"
        }
      ],
      "stateMutability": "view",
      "type": "function"
    },
    {
      "inputs": [
        {
          "internalType": "bytes32",
          "name": "key",
          "type": "bytes32"
        }
      ],
      "name": "getIntArray",
      "outputs": [
        {
          "internalType": "int256[]",
          "name": "",
          "type": "int256[]"
        }
      ],
      "stateMutability": "view",
      "type": "function"
    },
    {
      "inputs": [
        {
          "internalType": "bytes32",
          "name": "key",
          "type": "bytes32"
        }
      ],
      "name": "getString",
      "outputs": [
        {
          "internalType": "string",
          "name": "",
          "type": "string"
        }
      ],
      "stateMutability": "view",
      "type": "function"
    },
    {
      "inputs": [
        {
          "internalType": "bytes32",
          "name": "key",
          "type": "bytes32"
        }
      ],
      "name": "getStringArray",
      "outputs": [
        {
          "internalType": "string[]",
          "name": "",
          "type": "string[]"
        }
      ],
      "stateMutability": "view",
      "type": "function"
    },
    {
      "inputs": [
        {
          "internalType": "bytes32",
          "name": "key",
          "type": "bytes32"
        }
      ],
      "name": "getUint",
      "outputs": [
        {
          "internalType": "uint256",
          "name": "",
          "type": "uint256"
        }
      ],
      "stateMutability": "view",
      "type": "function"
    },
    {
      "inputs": [
        {
          "internalType": "bytes32",
          "name": "key",
          "type": "bytes32"
        }
      ],
      "name": "getUintArray",
      "outputs": [
        {
          "internalType": "uint256[]",
          "name": "",
          "type": "uint256[]"
        }
      ],
      "stateMutability": "view",
      "type": "function"
    },
    {
      "inputs": [
        {
          "internalType": "bytes32",
          "name": "setKey",
          "type": "bytes32"
        }
      ],
      "name": "getUintCount",
      "outputs": [
        {
          "internalType": "uint256",
          "name": "",
          "type": "uint256"
        }
      ],
      "stateMutability": "view",
      "type": "function"
    },
    {
      "inputs": [
        {
          "internalType": "bytes32",
          "name": "setKey",
          "type": "bytes32"
        },
        {
          "internalType": "uint256",
          "name": "start",
          "type": "uint256"
        },
        {
          "internalType": "uint256",
          "name": "end",
          "type": "uint256"
        }
      ],
      "name": "getUintValuesAt",
      "outputs": [
        {
          "internalType": "uint256[]",
          "name": "",
          "type": "uint256[]"
        }
      ],
      "stateMutability": "view",
      "type": "function"
    },
    {
      "inputs": [
        {
          "internalType": "bytes32",
          "name": "key",
          "type": "bytes32"
        },
        {
          "internalType": "int256",
          "name": "value",
          "type": "int256"
        }
      ],
      "name": "incrementInt",
      "outputs": [
        {
          "internalType": "int256",
          "name": "",
          "type": "int256"
        }
      ],
      "stateMutability": "nonpayable",
      "type": "function"
    },
    {
      "inputs": [
        {
          "internalType": "bytes32",
          "name": "key",
          "type": "bytes32"
        },
        {
          "internalType": "uint256",
          "name": "value",
          "type": "uint256"
        }
      ],
      "name": "incrementUint",
      "outputs": [
        {
          "internalType": "uint256",
          "name": "",
          "type": "uint256"
        }
      ],
      "stateMutability": "nonpayable",
      "type": "function"
    },
    {
      "inputs": [
        {
          "internalType": "bytes32",
          "name": "",
          "type": "bytes32"
        },
        {
          "internalType": "uint256",
          "name": "",
          "type": "uint256"
        }
      ],
      "name": "intArrayValues",
      "outputs": [
        {
          "internalType": "int256",
          "name": "",
          "type": "int256"
        }
      ],
      "stateMutability": "view",
      "type": "function"
    },
    {
      "inputs": [
        {
          "internalType": "bytes32",
          "name": "",
          "type": "bytes32"
        }
      ],
      "name": "intValues",
      "outputs": [
        {
          "internalType": "int256",
          "name": "",
          "type": "int256"
        }
      ],
      "stateMutability": "view",
      "type": "function"
    },
    {
      "inputs": [
        {
          "internalType": "bytes32",
          "name": "setKey",
          "type": "bytes32"
        },
        {
          "internalType": "address",
          "name": "value",
          "type": "address"
        }
      ],
      "name": "removeAddress",
      "outputs": [],
      "stateMutability": "nonpayable",
      "type": "function"
    },
    {
      "inputs": [
        {
          "internalType": "bytes32",
          "name": "key",
          "type": "bytes32"
        }
      ],
      "name": "removeAddress",
      "outputs": [],
      "stateMutability": "nonpayable",
      "type": "function"
    },
    {
      "inputs": [
        {
          "internalType": "bytes32",
          "name": "key",
          "type": "bytes32"
        }
      ],
      "name": "removeAddressArray",
      "outputs": [],
      "stateMutability": "nonpayable",
      "type": "function"
    },
    {
      "inputs": [
        {
          "internalType": "bytes32",
          "name": "key",
          "type": "bytes32"
        }
      ],
      "name": "removeBool",
      "outputs": [],
      "stateMutability": "nonpayable",
      "type": "function"
    },
    {
      "inputs": [
        {
          "internalType": "bytes32",
          "name": "key",
          "type": "bytes32"
        }
      ],
      "name": "removeBoolArray",
      "outputs": [],
      "stateMutability": "nonpayable",
      "type": "function"
    },
    {
      "inputs": [
        {
          "internalType": "bytes32",
          "name": "setKey",
          "type": "bytes32"
        },
        {
          "internalType": "bytes32",
          "name": "value",
          "type": "bytes32"
        }
      ],
      "name": "removeBytes32",
      "outputs": [],
      "stateMutability": "nonpayable",
      "type": "function"
    },
    {
      "inputs": [
        {
          "internalType": "bytes32",
          "name": "key",
          "type": "bytes32"
        }
      ],
      "name": "removeBytes32",
      "outputs": [],
      "stateMutability": "nonpayable",
      "type": "function"
    },
    {
      "inputs": [
        {
          "internalType": "bytes32",
          "name": "key",
          "type": "bytes32"
        }
      ],
      "name": "removeBytes32Array",
      "outputs": [],
      "stateMutability": "nonpayable",
      "type": "function"
    },
    {
      "inputs": [
        {
          "internalType": "bytes32",
          "name": "key",
          "type": "bytes32"
        }
      ],
      "name": "removeInt",
      "outputs": [],
      "stateMutability": "nonpayable",
      "type": "function"
    },
    {
      "inputs": [
        {
          "internalType": "bytes32",
          "name": "key",
          "type": "bytes32"
        }
      ],
      "name": "removeIntArray",
      "outputs": [],
      "stateMutability": "nonpayable",
      "type": "function"
    },
    {
      "inputs": [
        {
          "internalType": "bytes32",
          "name": "key",
          "type": "bytes32"
        }
      ],
      "name": "removeString",
      "outputs": [],
      "stateMutability": "nonpayable",
      "type": "function"
    },
    {
      "inputs": [
        {
          "internalType": "bytes32",
          "name": "key",
          "type": "bytes32"
        }
      ],
      "name": "removeStringArray",
      "outputs": [],
      "stateMutability": "nonpayable",
      "type": "function"
    },
    {
      "inputs": [
        {
          "internalType": "bytes32",
          "name": "key",
          "type": "bytes32"
        }
      ],
      "name": "removeUint",
      "outputs": [],
      "stateMutability": "nonpayable",
      "type": "function"
    },
    {
      "inputs": [
        {
          "internalType": "bytes32",
          "name": "setKey",
          "type": "bytes32"
        },
        {
          "internalType": "uint256",
          "name": "value",
          "type": "uint256"
        }
      ],
      "name": "removeUint",
      "outputs": [],
      "stateMutability": "nonpayable",
      "type": "function"
    },
    {
      "inputs": [
        {
          "internalType": "bytes32",
          "name": "key",
          "type": "bytes32"
        }
      ],
      "name": "removeUintArray",
      "outputs": [],
      "stateMutability": "nonpayable",
      "type": "function"
    },
    {
      "inputs": [],
      "name": "roleStore",
      "outputs": [
        {
          "internalType": "contract RoleStore",
          "name": "",
          "type": "address"
        }
      ],
      "stateMutability": "view",
      "type": "function"
    },
    {
      "inputs": [
        {
          "internalType": "bytes32",
          "name": "key",
          "type": "bytes32"
        },
        {
          "internalType": "address",
          "name": "value",
          "type": "address"
        }
      ],
      "name": "setAddress",
      "outputs": [
        {
          "internalType": "address",
          "name": "",
          "type": "address"
        }
      ],
      "stateMutability": "nonpayable",
      "type": "function"
    },
    {
      "inputs": [
        {
          "internalType": "bytes32",
          "name": "key",
          "type": "bytes32"
        },
        {
          "internalType": "address[]",
          "name": "value",
          "type": "address[]"
        }
      ],
      "name": "setAddressArray",
      "outputs": [],
      "stateMutability": "nonpayable",
      "type": "function"
    },
    {
      "inputs": [
        {
          "internalType": "bytes32",
          "name": "key",
          "type": "bytes32"
        },
        {
          "internalType": "bool",
          "name": "value",
          "type": "bool"
        }
      ],
      "name": "setBool",
      "outputs": [
        {
          "internalType": "bool",
          "name": "",
          "type": "bool"
        }
      ],
      "stateMutability": "nonpayable",
      "type": "function"
    },
    {
      "inputs": [
        {
          "internalType": "bytes32",
          "name": "key",
          "type": "bytes32"
        },
        {
          "internalType": "bool[]",
          "name": "value",
          "type": "bool[]"
        }
      ],
      "name": "setBoolArray",
      "outputs": [],
      "stateMutability": "nonpayable",
      "type": "function"
    },
    {
      "inputs": [
        {
          "internalType": "bytes32",
          "name": "key",
          "type": "bytes32"
        },
        {
          "internalType": "bytes32",
          "name": "value",
          "type": "bytes32"
        }
      ],
      "name": "setBytes32",
      "outputs": [
        {
          "internalType": "bytes32",
          "name": "",
          "type": "bytes32"
        }
      ],
      "stateMutability": "nonpayable",
      "type": "function"
    },
    {
      "inputs": [
        {
          "internalType": "bytes32",
          "name": "key",
          "type": "bytes32"
        },
        {
          "internalType": "bytes32[]",
          "name": "value",
          "type": "bytes32[]"
        }
      ],
      "name": "setBytes32Array",
      "outputs": [],
      "stateMutability": "nonpayable",
      "type": "function"
    },
    {
      "inputs": [
        {
          "internalType": "bytes32",
          "name": "key",
          "type": "bytes32"
        },
        {
          "internalType": "int256",
          "name": "value",
          "type": "int256"
        }
      ],
      "name": "setInt",
      "outputs": [
        {
          "internalType": "int256",
          "name": "",
          "type": "int256"
        }
      ],
      "stateMutability": "nonpayable",
      "type": "function"
    },
    {
      "inputs": [
        {
          "internalType": "bytes32",
          "name": "key",
          "type": "bytes32"
        },
        {
          "internalType": "int256[]",
          "name": "value",
          "type": "int256[]"
        }
      ],
      "name": "setIntArray",
      "outputs": [],
      "stateMutability": "nonpayable",
      "type": "function"
    },
    {
      "inputs": [
        {
          "internalType": "bytes32",
          "name": "key",
          "type": "bytes32"
        },
        {
          "internalType": "string",
          "name": "value",
          "type": "string"
        }
      ],
      "name": "setString",
      "outputs": [
        {
          "internalType": "string",
          "name": "",
          "type": "string"
        }
      ],
      "stateMutability": "nonpayable",
      "type": "function"
    },
    {
      "inputs": [
        {
          "internalType": "bytes32",
          "name": "key",
          "type": "bytes32"
        },
        {
          "internalType": "string[]",
          "name": "value",
          "type": "string[]"
        }
      ],
      "name": "setStringArray",
      "outputs": [],
      "stateMutability": "nonpayable",
      "type": "function"
    },
    {
      "inputs": [
        {
          "internalType": "bytes32",
          "name": "key",
          "type": "bytes32"
        },
        {
          "internalType": "uint256",
          "name": "value",
          "type": "uint256"
        }
      ],
      "name": "setUint",
      "outputs": [
        {
          "internalType": "uint256",
          "name": "",
          "type": "uint256"
        }
      ],
      "stateMutability": "nonpayable",
      "type": "function"
    },
    {
      "inputs": [
        {
          "internalType": "bytes32",
          "name": "key",
          "type": "bytes32"
        },
        {
          "internalType": "uint256[]",
          "name": "value",
          "type": "uint256[]"
        }
      ],
      "name": "setUintArray",
      "outputs": [],
      "stateMutability": "nonpayable",
      "type": "function"
    },
    {
      "inputs": [
        {
          "internalType": "bytes32",
          "name": "",
          "type": "bytes32"
        },
        {
          "internalType": "uint256",
          "name": "",
          "type": "uint256"
        }
      ],
      "name": "stringArrayValues",
      "outputs": [
        {
          "internalType": "string",
          "name": "",
          "type": "string"
        }
      ],
      "stateMutability": "view",
      "type": "function"
    },
    {
      "inputs": [
        {
          "internalType": "bytes32",
          "name": "",
          "type": "bytes32"
        }
      ],
      "name": "stringValues",
      "outputs": [
        {
          "internalType": "string",
          "name": "",
          "type": "string"
        }
      ],
      "stateMutability": "view",
      "type": "function"
    },
    {
      "inputs": [
        {
          "internalType": "bytes32",
          "name": "",
          "type": "bytes32"
        },
        {
          "internalType": "uint256",
          "name": "",
          "type": "uint256"
        }
      ],
      "name": "uintArrayValues",
      "outputs": [
        {
          "internalType": "uint256",
          "name": "",
          "type": "uint256"
        }
      ],
      "stateMutability": "view",
      "type": "function"
    },
    {
      "inputs": [
        {
          "internalType": "bytes32",
          "name": "",
          "type": "bytes32"
        }
      ],
      "name": "uintValues",
      "outputs": [
        {
          "internalType": "uint256",
          "name": "",
          "type": "uint256"
        }
      ],
      "stateMutability": "view",
      "type": "function"
    }
  ],
  "bytecode": "0x60a06040523480156200001157600080fd5b5060405162002a4c38038062002a4c833981016040819052620000349162000046565b6001600160a01b031660805262000078565b6000602082840312156200005957600080fd5b81516001600160a01b03811681146200007157600080fd5b9392505050565b6080516129b16200009b6000396000818161062c01526118a001526129b16000f3fe608060405234801561001057600080fd5b50600436106104285760003560e01c80639921c3cc1161022b578063cbb093dd11610130578063e4e36c4e116100b8578063ec672cf611610087578063ec672cf614610a43578063f069052a14610a56578063f15caeac14610a69578063f3903b9f14610a7c578063f51fc0d914610a8f57600080fd5b8063e4e36c4e14610938578063e62461ce14610a0a578063e7e4148e14610a1d578063e98aabc114610a3057600080fd5b8063d52852af116100ff578063d52852af14610991578063dc97d962146109b1578063dd031997146109d1578063e208a70d146109e4578063e2a4853a146109f757600080fd5b8063cbb093dd14610938578063cc50eadd1461094b578063cf6a87221461095e578063d38eebc71461097157600080fd5b8063bd02d0f5116101b3578063c1dc918211610182578063c1dc9182146108d9578063c4f00fde146108ec578063c769d1a1146108ff578063c80f4c6214610912578063ca446dd91461092557600080fd5b8063bd02d0f514610880578063be43caa3146108a0578063bf498dd3146108b3578063bf7f035a146108c657600080fd5b8063a9fcf76b116101fa578063a9fcf76b14610821578063abfdcced14610834578063adb353dc14610847578063b348e6391461085a578063b8320a081461086d57600080fd5b80639921c3cc146107c85780639faf6fb6146107db5780639fe7ac12146107ee578063a6ed563e1461080157600080fd5b80634a4a7b0411610331578063743df325116102b957806388021a721161028857806388021a72146107695780638ca498b01461077c57806391d4403c1461078f57806393266f9a146107a2578063986e791a146107b557600080fd5b8063743df325146107005780637ae1cfca1461072057806380aacdcd1461074357806386ac6bdf1461075657600080fd5b80636339734d116103005780636339734d1461069457806369721d41146106a75780636e899550146106ba5780636fae54f0146106da5780637026d42c146106ed57600080fd5b80634a4a7b04146106275780634e91db081461064e5780635948f733146106615780635eb07dbd1461068157600080fd5b806332f85bbf116103b45780633dbacd1a116103835780633dbacd1a146105b85780633e49bed0146105cb57806342c3bd96146105de57806344a242b1146105f1578063499ea50e1461061457600080fd5b806332f85bbf1461056c578063340dbab31461057f57806335d4d4071461059257806335ea8059146105a557600080fd5b806322538dae116103fb57806322538dae146104d857806322f874641461050157806326004846146105145780632d2899b614610529578063310b88821461054957600080fd5b806301677da21461042d578063065f21a714610456578063116bb9291461047757806321f8a72114610497575b600080fd5b61044061043b36600461208f565b610aa2565b60405161044d91906120ee565b60405180910390f35b61046961046436600461208f565b610b8e565b60405190815260200161044d565b61048a61048536600461208f565b610bab565b60405161044d9190612150565b6104c06104a536600461208f565b6000908152600260205260409020546001600160a01b031690565b6040516001600160a01b03909116815260200161044d565b6104c06104e636600461208f565b6002602052600090815260409020546001600160a01b031681565b6104c061050f366004612196565b610c2d565b610527610522366004612221565b610c65565b005b61053c61053736600461208f565b610cd9565b60405161044d91906122c2565b61055c610557366004612196565b610d3a565b604051901515815260200161044d565b61046961057a366004612369565b610d59565b61046961058d366004612196565b610dea565b6105276105a03660046123c6565b610e32565b6104696105b336600461208f565b610e63565b6104696105c6366004612196565b610e7a565b6104696105d9366004612196565b610ec3565b6105276105ec36600461208f565b610eed565b61055c6105ff36600461208f565b60036020526000908152604090205460ff1681565b61052761062236600461208f565b610f10565b6104c07f000000000000000000000000000000000000000000000000000000000000000081565b61046961065c366004612196565b610f3c565b61067461066f36600461208f565b610f66565b60405161044d919061245c565b61052761068f366004612221565b610fd1565b6104696106a2366004612196565b611002565b6105276106b53660046124b9565b611033565b6106cd6106c83660046124e5565b61105d565b60405161044d919061252b565b6104696106e8366004612196565b611091565b61053c6106fb36600461253e565b6110d9565b61046961070e36600461208f565b60016020526000908152604090205481565b61055c61072e36600461208f565b60009081526003602052604090205460ff1690565b61055c610751366004612196565b6110fd565b61053c61076436600461208f565b611140565b61052761077736600461256a565b6111a0565b61046961078a366004612196565b6111d1565b61055c61079d366004612196565b611236565b6105276107b0366004612196565b61124e565b6106cd6107c336600461208f565b611278565b6105276107d6366004612196565b611310565b6105276107e936600461208f565b61133a565b6105276107fc36600461208f565b61136a565b61046961080f36600461208f565b60009081526005602052604090205490565b61052761082f366004612221565b611394565b61055c610842366004612626565b6113c5565b610527610855366004612196565b6113f8565b6105276108683660046124b9565b611422565b6106cd61087b366004612196565b61144c565b61046961088e36600461208f565b60009081526020819052604090205490565b6105276108ae36600461208f565b611505565b6104696108c1366004612196565b61152e565b6105276108d436600461208f565b61154a565b6105276108e736600461208f565b611573565b6104696108fa366004612196565b61159c565b61055c61090d3660046124b9565b6115b8565b610527610920366004612196565b6115d0565b6104c06109333660046124b9565b6115fa565b610469610946366004612196565b61163a565b61052761095936600461208f565b611668565b61052761096c36600461208f565b611691565b61046961097f36600461208f565b60006020819052908152604090205481565b61046961099f36600461208f565b60056020526000908152604090205481565b6104696109bf36600461208f565b60009081526001602052604090205490565b61053c6109df36600461208f565b6116b4565b6105276109f236600461208f565b611714565b610469610a05366004612196565b61173d565b610527610a1836600461208f565b611767565b610674610a2b36600461253e565b61178a565b610469610a3e366004612196565b6117a6565b610527610a51366004612656565b6117d4565b61053c610a6436600461253e565b611805565b6106cd610a7736600461208f565b611821565b610469610a8a36600461208f565b61183a565b610527610a9d36600461208f565b611851565b6060600a6000838152602001908152602001600020805480602002602001604051908101604052809291908181526020016000905b82821015610b83578382906000526020600020018054610af6906126ea565b80601f0160208091040260200160405190810160405280929190818152602001828054610b22906126ea565b8015610b6f5780601f10610b4457610100808354040283529160200191610b6f565b820191906000526020600020905b815481529060010190602001808311610b5257829003601f168201915b505050505081526020019060010190610ad7565b505050509050919050565b6000818152600e60205260408120610ba59061187a565b92915050565b600081815260096020908152604091829020805483518184028101840190945280845260609392830182828015610c2157602002820191906000526020600020906000905b825461010083900a900460ff161515815260206001928301818104948501949093039092029101808411610bf05790505b50505050509050919050565b60086020528160005260406000208181548110610c4957600080fd5b6000918252602090912001546001600160a01b03169150829050565b610cb5604051602001610c7790612724565b604051602081830303815290604052805190602001206040518060400160405280600a81526020016921a7a72a2927a62622a960b11b815250611884565b6000828152600b602090815260409091208251610cd492840190611e38565b505050565b600081815260076020908152604091829020805483518184028101840190945280845260609392830182828015610c2157602002820191906000526020600020905b815481526020019060010190808311610d1b5750505050509050919050565b6000828152600e60205260408120610d529083611938565b9392505050565b6000610d6d604051602001610c7790612724565b6000848152602081905260408120549084128015610d9a575080610d98610d938661275e565b611950565b115b15610dc2578260405162461bcd60e51b8152600401610db9919061252b565b60405180910390fd5b6000610dce82866119a6565b6000878152602081905260409020819055925050509392505050565b6000610dfe604051602001610c7790612724565b600083815260208190526040812054610e1890849061277a565b600085815260208190526040902081905591505092915050565b610e44604051602001610c7790612724565b60008281526009602090815260409091208251610cd492840190611e7f565b6000818152600d60205260408120610ba59061187a565b6000610e8e604051602001610c7790612724565b60008381526020819052604081205490610ea8848361277a565b60008681526020819052604090208190559250505092915050565b6000610ed7604051602001610c7790612724565b5060009182526001602052604090912081905590565b610eff604051602001610c7790612724565b600090815260208190526040812055565b610f22604051602001610c7790612724565b6000818152600760205260408120610f3991611f1f565b50565b6000610f50604051602001610c7790612724565b5060009182526005602052604090912081905590565b600081815260086020908152604091829020805483518184028101840190945280845260609392830182828015610c2157602002820191906000526020600020905b81546001600160a01b03168152600190910190602001808311610fa85750505050509050919050565b610fe3604051602001610c7790612724565b60008281526006602090815260409091208251610cd492840190611e38565b6007602052816000526040600020818154811061101e57600080fd5b90600052602060002001600091509150505481565b611045604051602001610c7790612724565b6000828152600d60205260409020610cd490826119dd565b6060611071604051602001610c7790612724565b600083815260046020526040902061108983826127db565b509092915050565b60006110a5604051602001610c7790612724565b6000838152600160205260408120546110bf90849061289a565b600085815260016020526040902081905591505092915050565b6000838152600e602052604090206060906110f59084846119f2565b949350505050565b6009602052816000526040600020818154811061111957600080fd5b9060005260206000209060209182820401919006915091509054906101000a900460ff1681565b600081815260066020908152604091829020805483518184028101840190945280845260609392830182828015610c215760200282019190600052602060002090815481526020019060010190808311610d1b5750505050509050919050565b6111b2604051602001610c7790612724565b6000828152600a602090815260409091208251610cd492840190611f3d565b60006111e5604051602001610c7790612724565b600083815260208190526040812054908312801561120d57508061120b610d938561275e565b115b1561122a5750506000828152602081905260408120819055610ba5565b6000610ea882856119a6565b6000828152600c60205260408120610d529083611938565b611260604051602001610c7790612724565b6000828152600e60205260409020610cd49082611ad6565b6000818152600460205260409020805460609190611295906126ea565b80601f01602080910402602001604051908101604052809291908181526020018280546112c1906126ea565b8015610c215780601f106112e357610100808354040283529160200191610c21565b820191906000526020600020905b8154815290600101906020018083116112f15750939695505050505050565b611322604051602001610c7790612724565b6000828152600c60205260409020610cd49082611ad6565b61134c604051602001610c7790612724565b600090815260026020526040902080546001600160a01b0319169055565b61137c604051602001610c7790612724565b6000908152600360205260409020805460ff19169055565b6113a6604051602001610c7790612724565b60008281526007602090815260409091208251610cd492840190611e38565b60006113d9604051602001610c7790612724565b50600091825260036020526040909120805460ff191682151517905590565b61140a604051602001610c7790612724565b6000828152600e60205260409020610cd49082611ae2565b611434604051602001610c7790612724565b6000828152600d60205260409020610cd49082611aee565b600a602052816000526040600020818154811061146857600080fd5b90600052602060002001600091509150508054611484906126ea565b80601f01602080910402602001604051908101604052809291908181526020018280546114b0906126ea565b80156114fd5780601f106114d2576101008083540402835291602001916114fd565b820191906000526020600020905b8154815290600101906020018083116114e057829003601f168201915b505050505081565b611517604051602001610c7790612724565b6000818152600660205260408120610f3991611f1f565b600b602052816000526040600020818154811061101e57600080fd5b61155c604051602001610c7790612724565b6000818152600b60205260408120610f3991611f1f565b611585604051602001610c7790612724565b6000818152600860205260408120610f3991611f1f565b6006602052816000526040600020818154811061101e57600080fd5b6000828152600d60205260408120610d529083611b03565b6115e2604051602001610c7790612724565b6000828152600c60205260409020610cd49082611ae2565b600061160e604051602001610c7790612724565b5060009182526002602052604090912080546001600160a01b0319166001600160a01b03831617905590565b600061164e604051602001610c7790612724565b6000838152600160205260408120546110bf9084906128ba565b61167a604051602001610c7790612724565b6000818152600460205260408120610f3991611f8f565b6116a3604051602001610c7790612724565b600090815260056020526040812055565b6000818152600b6020908152604091829020805483518184028101840190945280845260609392830182828015610c215760200282019190600052602060002090815481526020019060010190808311610d1b5750505050509050919050565b611726604051602001610c7790612724565b6000818152600a60205260408120610f3991611fc9565b6000611751604051602001610c7790612724565b5060009182526020829052604090912081905590565b611779604051602001610c7790612724565b600090815260016020526040812055565b6000838152600d602052604090206060906110f5908484611b25565b60006117ba604051602001610c7790612724565b600083815260208190526040812054610e189084906128e2565b6117e6604051602001610c7790612724565b60008281526008602090815260409091208251610cd492840190611fe7565b6000838152600c602052604090206060906110f5908484611be8565b60046020526000908152604090208054611484906126ea565b6000818152600c60205260408120610ba59061187a565b611863604051602001610c7790612724565b6000818152600960205260408120610f399161203c565b6000610ba5825490565b60405163ac4ab3fb60e01b8152336004820152602481018390527f00000000000000000000000000000000000000000000000000000000000000006001600160a01b03169063ac4ab3fb90604401602060405180830381865afa1580156118ef573d6000803e3d6000fd5b505050506040513d601f19601f8201168201806040525081019061191391906128f5565b61193457338160405163a35b150b60e01b8152600401610db9929190612912565b5050565b60008181526001830160205260408120541515610d52565b6000808212156119a25760405162461bcd60e51b815260206004820181905260248201527f53616665436173743a2076616c7565206d75737420626520706f7369746976656044820152606401610db9565b5090565b6000808213156119ca576119b982611c9e565b6119c3908461277a565b9050610ba5565b6119d382611c9e565b610d5290846128e2565b6000610d52836001600160a01b038416611cb1565b60606119fd8461187a565b8310611a185750604080516000815260208101909152610d52565b6000611a238561187a565b905080831115611a31578092505b6000611a3d85856128e2565b6001600160401b03811115611a5457611a546121b8565b604051908082528060200260200182016040528015611a7d578160200160208202803683370190505b509050845b84811015611acc57611a948782611dab565b82611a9f88846128e2565b81518110611aaf57611aaf612936565b602090810291909101015280611ac48161294c565b915050611a82565b5095945050505050565b6000610d528383611cb1565b6000610d528383611db7565b6000610d52836001600160a01b038416611db7565b6001600160a01b03811660009081526001830160205260408120541515610d52565b60606000611b328561187a565b905080831115611b40578092505b6000611b4c85856128e2565b6001600160401b03811115611b6357611b636121b8565b604051908082528060200260200182016040528015611b8c578160200160208202803683370190505b509050845b84811015611acc57611ba38782611dab565b82611bae88846128e2565b81518110611bbe57611bbe612936565b6001600160a01b039092166020928302919091019091015280611be08161294c565b915050611b91565b60606000611bf58561187a565b905080831115611c03578092505b6000611c0f85856128e2565b6001600160401b03811115611c2657611c266121b8565b604051908082528060200260200182016040528015611c4f578160200160208202803683370190505b509050845b84811015611acc57611c668782611e06565b82611c7188846128e2565b81518110611c8157611c81612936565b602090810291909101015280611c968161294c565b915050611c54565b6000808212156119a25781600003610ba5565b60008181526001830160205260408120548015611d9a576000611cd56001836128e2565b8554909150600090611ce9906001906128e2565b9050818114611d4e576000866000018281548110611d0957611d09612936565b9060005260206000200154905080876000018481548110611d2c57611d2c612936565b6000918252602080832090910192909255918252600188019052604090208390555b8554869080611d5f57611d5f612965565b600190038181906000526020600020016000905590558560010160008681526020019081526020016000206000905560019350505050610ba5565b6000915050610ba5565b5092915050565b6000610d528383611e0e565b6000818152600183016020526040812054611dfe57508154600181810184556000848152602080822090930184905584548482528286019093526040902091909155610ba5565b506000610ba5565b6000610d5283835b6000826000018281548110611e2557611e25612936565b9060005260206000200154905092915050565b828054828255906000526020600020908101928215611e73579160200282015b82811115611e73578251825591602001919060010190611e58565b506119a292915061205d565b82805482825590600052602060002090601f01602090048101928215611e735791602002820160005b83821115611ee557835183826101000a81548160ff0219169083151502179055509260200192600101602081600001049283019260010302611ea8565b8015611f125782816101000a81549060ff0219169055600101602081600001049283019260010302611ee5565b50506119a292915061205d565b5080546000825590600052602060002090810190610f39919061205d565b828054828255906000526020600020908101928215611f83579160200282015b82811115611f835782518290611f7390826127db565b5091602001919060010190611f5d565b506119a2929150612072565b508054611f9b906126ea565b6000825580601f10611fab575050565b601f016020900490600052602060002090810190610f39919061205d565b5080546000825590600052602060002090810190610f399190612072565b828054828255906000526020600020908101928215611e73579160200282015b82811115611e7357825182546001600160a01b0319166001600160a01b03909116178255602090920191600190910190612007565b50805460008255601f016020900490600052602060002090810190610f3991905b5b808211156119a2576000815560010161205e565b808211156119a25760006120868282611f8f565b50600101612072565b6000602082840312156120a157600080fd5b5035919050565b6000815180845260005b818110156120ce576020818501810151868301820152016120b2565b506000602082860101526020601f19601f83011685010191505092915050565b6000602080830181845280855180835260408601915060408160051b870101925083870160005b8281101561214357603f198886030184526121318583516120a8565b94509285019290850190600101612115565b5092979650505050505050565b6020808252825182820181905260009190848201906040850190845b8181101561218a57835115158352928401929184019160010161216c565b50909695505050505050565b600080604083850312156121a957600080fd5b50508035926020909101359150565b634e487b7160e01b600052604160045260246000fd5b604051601f8201601f191681016001600160401b03811182821017156121f6576121f66121b8565b604052919050565b60006001600160401b03821115612217576122176121b8565b5060051b60200190565b6000806040838503121561223457600080fd5b823591506020808401356001600160401b0381111561225257600080fd5b8401601f8101861361226357600080fd5b8035612276612271826121fe565b6121ce565b81815260059190911b8201830190838101908883111561229557600080fd5b928401925b828410156122b35783358252928401929084019061229a565b80955050505050509250929050565b6020808252825182820181905260009190848201906040850190845b8181101561218a578351835292840192918401916001016122de565b600082601f83011261230b57600080fd5b81356001600160401b03811115612324576123246121b8565b612337601f8201601f19166020016121ce565b81815284602083860101111561234c57600080fd5b816020850160208301376000918101602001919091529392505050565b60008060006060848603121561237e57600080fd5b833592506020840135915060408401356001600160401b038111156123a257600080fd5b6123ae868287016122fa565b9150509250925092565b8015158114610f3957600080fd5b600080604083850312156123d957600080fd5b823591506020808401356001600160401b038111156123f757600080fd5b8401601f8101861361240857600080fd5b8035612416612271826121fe565b81815260059190911b8201830190838101908883111561243557600080fd5b928401925b828410156122b357833561244d816123b8565b8252928401929084019061243a565b6020808252825182820181905260009190848201906040850190845b8181101561218a5783516001600160a01b031683529284019291840191600101612478565b80356001600160a01b03811681146124b457600080fd5b919050565b600080604083850312156124cc57600080fd5b823591506124dc6020840161249d565b90509250929050565b600080604083850312156124f857600080fd5b8235915060208301356001600160401b0381111561251557600080fd5b612521858286016122fa565b9150509250929050565b602081526000610d5260208301846120a8565b60008060006060848603121561255357600080fd5b505081359360208301359350604090920135919050565b6000806040838503121561257d57600080fd5b823591506020808401356001600160401b038082111561259c57600080fd5b818601915086601f8301126125b057600080fd5b81356125be612271826121fe565b81815260059190911b830184019084810190898311156125dd57600080fd5b8585015b83811015612615578035858111156125f95760008081fd5b6126078c89838a01016122fa565b8452509186019186016125e1565b508096505050505050509250929050565b6000806040838503121561263957600080fd5b82359150602083013561264b816123b8565b809150509250929050565b6000806040838503121561266957600080fd5b823591506020808401356001600160401b0381111561268757600080fd5b8401601f8101861361269857600080fd5b80356126a6612271826121fe565b81815260059190911b820183019083810190888311156126c557600080fd5b928401925b828410156122b3576126db8461249d565b825292840192908401906126ca565b600181811c908216806126fe57607f821691505b60208210810361271e57634e487b7160e01b600052602260045260246000fd5b50919050565b6020808252600a908201526921a7a72a2927a62622a960b11b604082015260600190565b634e487b7160e01b600052601160045260246000fd5b6000600160ff1b820161277357612773612748565b5060000390565b80820180821115610ba557610ba5612748565b601f821115610cd457600081815260208120601f850160051c810160208610156127b45750805b601f850160051c820191505b818110156127d3578281556001016127c0565b505050505050565b81516001600160401b038111156127f4576127f46121b8565b6128088161280284546126ea565b8461278d565b602080601f83116001811461283d57600084156128255750858301515b600019600386901b1c1916600185901b1785556127d3565b600085815260208120601f198616915b8281101561286c5788860151825594840194600190910190840161284d565b508582101561288a5787850151600019600388901b60f8161c191681555b5050505050600190811b01905550565b8181036000831280158383131683831282161715611da457611da4612748565b80820182811260008312801582168215821617156128da576128da612748565b505092915050565b81810381811115610ba557610ba5612748565b60006020828403121561290757600080fd5b8151610d52816123b8565b6001600160a01b03831681526040602082018190526000906110f5908301846120a8565b634e487b7160e01b600052603260045260246000fd5b60006001820161295e5761295e612748565b5060010190565b634e487b7160e01b600052603160045260246000fdfea2646970667358221220f40b1ba8be8c969f162ddfbcf4550c75170ba4c66764580c015ac219ba72a75c64736f6c63430008140033",
  "linkReferences": {},
  "deployedLinkReferences": {}
}