{
  "_format": "hh-sol-artifact-1",
  "contractName": "DepositHandler",
  "sourceName": "contracts/exchange/DepositHandler.sol",
  "abi": [
    {
      "inputs": [
        {
          "internalType": "contract RoleStore",
          "name": "_roleStore",
          "type": "address"
        },
        {
          "internalType": "contract DataStore",
          "name": "_dataStore",
          "type": "address"
        }
      ],
      "stateMutability": "nonpayable",
      "type": "constructor"
    },
    {
      "inputs": [],
      "name": "dataStore",
      "outputs": [
        {
          "internalType": "contract DataStore",
          "name": "",
          "type": "address"
        }
      ],
      "stateMutability": "view",
      "type": "function"
    },
    {
      "inputs": [
        {
          "internalType": "address",
          "name": "account",
          "type": "address"
        },
        {
          "components": [
            {
              "internalType": "address",
              "name": "underlyingAsset",
              "type": "address"
            }
          ],
          "internalType": "struct DepositUtils.DepositParams",
          "name": "depositParams",
          "type": "tuple"
        }
      ],
      "name": "executeDeposit",
      "outputs": [],
      "stateMutability": "nonpayable",
      "type": "function"
    },
    {
      "inputs": [],
      "name": "roleStore",
      "outputs": [
        {
          "internalType": "contract RoleStore",
          "name": "",
          "type": "address"
        }
      ],
      "stateMutability": "view",
      "type": "function"
    }
  ],
  "bytecode": "0x60c060405234801561001057600080fd5b5060405161060d38038061060d83398101604081905261002f9161005e565b6001600160a01b039081166080521660a052610098565b6001600160a01b038116811461005b57600080fd5b50565b6000806040838503121561007157600080fd5b825161007c81610046565b602084015190925061008d81610046565b809150509250929050565b60805160a0516105376100d66000396000604b015260008181608e0152818160dc015281816101b8015281816102bf015261037901526105376000f3fe608060405234801561001057600080fd5b50600436106100415760003560e01c80634a4a7b0414610046578063660d0d6714610089578063d502714a146100b0575b600080fd5b61006d7f000000000000000000000000000000000000000000000000000000000000000081565b6040516001600160a01b03909116815260200160405180910390f35b61006d7f000000000000000000000000000000000000000000000000000000000000000081565b6100c36100be366004610450565b6100c5565b005b6100cd6101b4565b600060405180604001604052807f00000000000000000000000000000000000000000000000000000000000000006001600160a01b0316815260200183600001602081019061011c919061048f565b6001600160a01b0390811690915260405163126cc4bd60e11b815285821660048201528251821660248201526020830151909116604482015290915073__$b47f57a87b0fdb80638269130c078613b3$__906324d9897a9060640160006040518083038186803b15801561018f57600080fd5b505af41580156101a3573d6000803e3d6000fd5b50505050506101b0610377565b5050565b60007f00000000000000000000000000000000000000000000000000000000000000006001600160a01b031663bd02d0f56040516020016101f4906104b1565b604051602081830303815290604052805190602001206040518263ffffffff1660e01b815260040161022891815260200190565b602060405180830381865afa158015610245573d6000803e3d6000fd5b505050506040513d601f19601f8201168201806040525081019061026991906104e8565b905080156102bd5760405162461bcd60e51b815260206004820152601f60248201527f5265656e7472616e637947756172643a207265656e7472616e742063616c6c00604482015260640160405180910390fd5b7f00000000000000000000000000000000000000000000000000000000000000006001600160a01b031663e2a4853a6040516020016102fb906104b1565b60408051601f198184030181529082905280516020909101206001600160e01b031960e084901b1682526004820152600160248201526044016020604051808303816000875af1158015610353573d6000803e3d6000fd5b505050506040513d601f19601f820116820180604052508101906101b091906104e8565b7f00000000000000000000000000000000000000000000000000000000000000006001600160a01b031663e2a4853a6040516020016103b5906104b1565b60408051601f198184030181529082905280516020909101206001600160e01b031960e084901b1682526004820152600060248201526044016020604051808303816000875af115801561040d573d6000803e3d6000fd5b505050506040513d601f19601f8201168201806040525081019061043191906104e8565b50565b80356001600160a01b038116811461044b57600080fd5b919050565b600080828403604081121561046457600080fd5b61046d84610434565b92506020601f198201121561048157600080fd5b506020830190509250929050565b6000602082840312156104a157600080fd5b6104aa82610434565b9392505050565b60208082526017908201527f5245454e5452414e43595f47554152445f535441545553000000000000000000604082015260600190565b6000602082840312156104fa57600080fd5b505191905056fea2646970667358221220b331588645942bc8fb6513befd67840a8eae9f20ea8bfd7aca3af95d01413ce164736f6c63430008140033",
  "linkReferences": {
    "contracts/deposit/DepositUtils.sol": {
      "DepositUtils": [
        {
          "length": 20,
          "start": 560
        }
      ]
    }
  },
  "deployedLinkReferences": {
    "contracts/deposit/DepositUtils.sol": {
      "DepositUtils": [
        {
          "length": 20,
          "start": 346
        }
      ]
    }
  }
}