{
  "_format": "hh-sol-artifact-1",
  "contractName": "ExchangeRouter",
  "sourceName": "contracts/router/ExchangeRouter.sol",
  "abi": [
    {
      "inputs": [
        {
          "internalType": "contract Router",
          "name": "_router",
          "type": "address"
        },
        {
          "internalType": "contract RoleStore",
          "name": "_roleStore",
          "type": "address"
        },
        {
          "internalType": "contract DataStore",
          "name": "_dataStore",
          "type": "address"
        },
        {
          "internalType": "contract ISupplyHandler",
          "name": "_supplyHandler",
          "type": "address"
        },
        {
          "internalType": "contract IWithdrawHandler",
          "name": "_withdrawHandler",
          "type": "address"
        },
        {
          "internalType": "contract IDepositHandler",
          "name": "_depositHandler",
          "type": "address"
        },
        {
          "internalType": "contract IBorrowHandler",
          "name": "_borrowHandler",
          "type": "address"
        },
        {
          "internalType": "contract IRepayHandler",
          "name": "_repayHandler",
          "type": "address"
        },
        {
          "internalType": "contract IRedeemHandler",
          "name": "_redeemHandler",
          "type": "address"
        }
      ],
      "stateMutability": "nonpayable",
      "type": "constructor"
    },
    {
      "inputs": [],
      "name": "EmptyHoldingAddress",
      "type": "error"
    },
    {
      "inputs": [],
      "name": "EmptyReceiver",
      "type": "error"
    },
    {
      "inputs": [
        {
          "internalType": "address",
          "name": "token",
          "type": "address"
        }
      ],
      "name": "EmptyTokenTranferGasLimit",
      "type": "error"
    },
    {
      "inputs": [
        {
          "internalType": "address",
          "name": "token",
          "type": "address"
        },
        {
          "internalType": "address",
          "name": "receiver",
          "type": "address"
        },
        {
          "internalType": "uint256",
          "name": "amount",
          "type": "uint256"
        }
      ],
      "name": "TokenTransferError",
      "type": "error"
    },
    {
      "anonymous": false,
      "inputs": [
        {
          "indexed": false,
          "internalType": "string",
          "name": "reason",
          "type": "string"
        },
        {
          "indexed": false,
          "internalType": "bytes",
          "name": "returndata",
          "type": "bytes"
        }
      ],
      "name": "TokenTransferReverted",
      "type": "event"
    },
    {
      "inputs": [],
      "name": "borrowHandler",
      "outputs": [
        {
          "internalType": "contract IBorrowHandler",
          "name": "",
          "type": "address"
        }
      ],
      "stateMutability": "view",
      "type": "function"
    },
    {
      "inputs": [],
      "name": "dataStore",
      "outputs": [
        {
          "internalType": "contract DataStore",
          "name": "",
          "type": "address"
        }
      ],
      "stateMutability": "view",
      "type": "function"
    },
    {
      "inputs": [],
      "name": "depositHandler",
      "outputs": [
        {
          "internalType": "contract IDepositHandler",
          "name": "",
          "type": "address"
        }
      ],
      "stateMutability": "view",
      "type": "function"
    },
    {
      "inputs": [
        {
          "components": [
            {
              "internalType": "address",
              "name": "underlyingAsset",
              "type": "address"
            },
            {
              "internalType": "uint256",
              "name": "amount",
              "type": "uint256"
            }
          ],
          "internalType": "struct BorrowUtils.BorrowParams",
          "name": "params",
          "type": "tuple"
        }
      ],
      "name": "executeBorrow",
      "outputs": [],
      "stateMutability": "payable",
      "type": "function"
    },
    {
      "inputs": [
        {
          "components": [
            {
              "internalType": "address",
              "name": "underlyingAsset",
              "type": "address"
            }
          ],
          "internalType": "struct DepositUtils.DepositParams",
          "name": "params",
          "type": "tuple"
        }
      ],
      "name": "executeDeposit",
      "outputs": [],
      "stateMutability": "payable",
      "type": "function"
    },
    {
      "inputs": [
        {
          "components": [
            {
              "internalType": "address",
              "name": "underlyingAsset",
              "type": "address"
            },
            {
              "internalType": "uint256",
              "name": "amount",
              "type": "uint256"
            },
            {
              "internalType": "address",
              "name": "to",
              "type": "address"
            }
          ],
          "internalType": "struct RedeemUtils.RedeemParams",
          "name": "params",
          "type": "tuple"
        }
      ],
      "name": "executeRedeem",
      "outputs": [],
      "stateMutability": "payable",
      "type": "function"
    },
    {
      "inputs": [
        {
          "components": [
            {
              "internalType": "address",
              "name": "underlyingAsset",
              "type": "address"
            },
            {
              "internalType": "uint256",
              "name": "amount",
              "type": "uint256"
            }
          ],
          "internalType": "struct RepayUtils.RepayParams",
          "name": "params",
          "type": "tuple"
        }
      ],
      "name": "executeRepay",
      "outputs": [],
      "stateMutability": "payable",
      "type": "function"
    },
    {
      "inputs": [
        {
          "components": [
            {
              "internalType": "address",
              "name": "underlyingAsset",
              "type": "address"
            },
            {
              "internalType": "address",
              "name": "receiver",
              "type": "address"
            }
          ],
          "internalType": "struct SupplyUtils.SupplyParams",
          "name": "params",
          "type": "tuple"
        }
      ],
      "name": "executeSupply",
      "outputs": [],
      "stateMutability": "payable",
      "type": "function"
    },
    {
      "inputs": [
        {
          "components": [
            {
              "internalType": "address",
              "name": "underlyingAsset",
              "type": "address"
            },
            {
              "internalType": "uint256",
              "name": "amount",
              "type": "uint256"
            },
            {
              "internalType": "address",
              "name": "to",
              "type": "address"
            }
          ],
          "internalType": "struct WithdrawUtils.WithdrawParams",
          "name": "params",
          "type": "tuple"
        }
      ],
      "name": "executeWithdraw",
      "outputs": [],
      "stateMutability": "payable",
      "type": "function"
    },
    {
      "inputs": [
        {
          "internalType": "bytes[]",
          "name": "data",
          "type": "bytes[]"
        }
      ],
      "name": "multicall",
      "outputs": [
        {
          "internalType": "bytes[]",
          "name": "results",
          "type": "bytes[]"
        }
      ],
      "stateMutability": "payable",
      "type": "function"
    },
    {
      "inputs": [],
      "name": "redeemHandler",
      "outputs": [
        {
          "internalType": "contract IRedeemHandler",
          "name": "",
          "type": "address"
        }
      ],
      "stateMutability": "view",
      "type": "function"
    },
    {
      "inputs": [],
      "name": "repayHandler",
      "outputs": [
        {
          "internalType": "contract IRepayHandler",
          "name": "",
          "type": "address"
        }
      ],
      "stateMutability": "view",
      "type": "function"
    },
    {
      "inputs": [],
      "name": "roleStore",
      "outputs": [
        {
          "internalType": "contract RoleStore",
          "name": "",
          "type": "address"
        }
      ],
      "stateMutability": "view",
      "type": "function"
    },
    {
      "inputs": [],
      "name": "router",
      "outputs": [
        {
          "internalType": "contract Router",
          "name": "",
          "type": "address"
        }
      ],
      "stateMutability": "view",
      "type": "function"
    },
    {
      "inputs": [
        {
          "internalType": "address",
          "name": "receiver",
          "type": "address"
        },
        {
          "internalType": "uint256",
          "name": "amount",
          "type": "uint256"
        }
      ],
      "name": "sendNativeToken",
      "outputs": [],
      "stateMutability": "payable",
      "type": "function"
    },
    {
      "inputs": [
        {
          "internalType": "address",
          "name": "token",
          "type": "address"
        },
        {
          "internalType": "address",
          "name": "receiver",
          "type": "address"
        },
        {
          "internalType": "uint256",
          "name": "amount",
          "type": "uint256"
        }
      ],
      "name": "sendTokens",
      "outputs": [],
      "stateMutability": "payable",
      "type": "function"
    },
    {
      "inputs": [
        {
          "internalType": "address",
          "name": "receiver",
          "type": "address"
        },
        {
          "internalType": "uint256",
          "name": "amount",
          "type": "uint256"
        }
      ],
      "name": "sendWnt",
      "outputs": [],
      "stateMutability": "payable",
      "type": "function"
    },
    {
      "inputs": [],
      "name": "supplyHandler",
      "outputs": [
        {
          "internalType": "contract ISupplyHandler",
          "name": "",
          "type": "address"
        }
      ],
      "stateMutability": "view",
      "type": "function"
    },
    {
      "inputs": [],
      "name": "withdrawHandler",
      "outputs": [
        {
          "internalType": "contract IWithdrawHandler",
          "name": "",
          "type": "address"
        }
      ],
      "stateMutability": "view",
      "type": "function"
    }
  ],
  "bytecode": "0x6101a06040523480156200001257600080fd5b50604051620017f5380380620017f5833981016040819052620000359162000097565b60016000556001600160a01b0397881660805297871660a05294861660c05292851660e0529084166101005283166101205282166101405281166101605216610180526200016e565b6001600160a01b03811681146200009457600080fd5b50565b60008060008060008060008060006101208a8c031215620000b757600080fd5b8951620000c4816200007e565b60208b0151909950620000d7816200007e565b60408b0151909850620000ea816200007e565b60608b0151909750620000fd816200007e565b60808b015190965062000110816200007e565b60a08b015190955062000123816200007e565b60c08b015190945062000136816200007e565b60e08b015190935062000149816200007e565b6101008b01519092506200015d816200007e565b809150509295985092959850929598565b60805160a05160c05160e05161010051610120516101405161016051610180516115d76200021e6000396000818161024501526105320152600081816102d301526105c601526000818161030701526103f801526000818161029f015261084b015260008181610140015261061e01526000818161035b01526104900152600081816101eb015281816104dd015261057f0152600081816103b501526107bc015260006101a401526115d76000f3fe6080604052600436106101145760003560e01c80639152cd1e116100a0578063ac9650d811610064578063ac9650d814610329578063d61778fa14610349578063e6d66ac81461037d578063ef68ac9614610390578063f887ea40146103a357600080fd5b80639152cd1e1461026757806392058b8f1461027a5780639c8b2cfb1461028d5780639d451d0c146102c1578063a82ed4ce146102f557600080fd5b806353ead2d3116100e757806353ead2d3146101c6578063660d0d67146101d95780637b27af0b1461020d5780637d39aaf114610220578063858e856f1461023357600080fd5b8063020ccf1c14610119578063083473ef1461012e578063345bde741461017f5780634a4a7b0414610192575b600080fd5b61012c610127366004611075565b6103d7565b005b34801561013a57600080fd5b506101627f000000000000000000000000000000000000000000000000000000000000000081565b6040516001600160a01b0390911681526020015b60405180910390f35b61012c61018d366004611075565b61046f565b34801561019e57600080fd5b506101627f000000000000000000000000000000000000000000000000000000000000000081565b61012c6101d43660046110ad565b6104c7565b3480156101e557600080fd5b506101627f000000000000000000000000000000000000000000000000000000000000000081565b61012c61021b3660046110eb565b610511565b61012c61022e3660046110ad565b610569565b34801561023f57600080fd5b506101627f000000000000000000000000000000000000000000000000000000000000000081565b61012c610275366004611075565b6105a5565b61012c6102883660046110eb565b6105fd565b34801561029957600080fd5b506101627f000000000000000000000000000000000000000000000000000000000000000081565b3480156102cd57600080fd5b506101627f000000000000000000000000000000000000000000000000000000000000000081565b34801561030157600080fd5b506101627f000000000000000000000000000000000000000000000000000000000000000081565b61033c610337366004611107565b610655565b60405161017691906111cc565b34801561035557600080fd5b506101627f000000000000000000000000000000000000000000000000000000000000000081565b61012c61038b36600461122e565b610774565b61012c61039e36600461126f565b61082a565b3480156103af57600080fd5b506101627f000000000000000000000000000000000000000000000000000000000000000081565b6103df610882565b60405163577ffe3160e01b815233906001600160a01b037f0000000000000000000000000000000000000000000000000000000000000000169063577ffe319061042f90849086906004016112a2565b600060405180830381600087803b15801561044957600080fd5b505af115801561045d573d6000803e3d6000fd5b505050505061046c6001600055565b50565b610477610882565b60405163239279ed60e11b815233906001600160a01b037f00000000000000000000000000000000000000000000000000000000000000001690634724f3da9061042f90849086906004016112bf565b6104cf610882565b6104d8826108e0565b6105037f00000000000000000000000000000000000000000000000000000000000000008383610907565b61050d6001600055565b5050565b610519610882565b604051631965efe960e01b815233906001600160a01b037f00000000000000000000000000000000000000000000000000000000000000001690631965efe99061042f9084908690600401611343565b610571610882565b61057a826108e0565b6105037f00000000000000000000000000000000000000000000000000000000000000008383610a13565b6105ad610882565b60405163eb683c4d60e01b815233906001600160a01b037f0000000000000000000000000000000000000000000000000000000000000000169063eb683c4d9061042f90849086906004016112a2565b610605610882565b604051637e48484960e11b815233906001600160a01b037f0000000000000000000000000000000000000000000000000000000000000000169063fc9090929061042f9084908690600401611343565b60608167ffffffffffffffff81111561067057610670611360565b6040519080825280602002602001820160405280156106a357816020015b606081526020019060019003908161068e5790505b50905060005b8281101561076d57600080308686858181106106c7576106c7611376565b90506020028101906106d9919061138c565b6040516106e79291906113da565b600060405180830381855af49150503d8060008114610722576040519150601f19603f3d011682016040523d82523d6000602084013e610727565b606091505b50915091508161073a5761073a81610a9c565b8084848151811061074d5761074d611376565b602002602001018190525050508080610765906113ea565b9150506106a9565b5092915050565b61077c610882565b610785826108e0565b6040516303704f0f60e31b81526001600160a01b0384811660048301523360248301819052848216604484015260648301849052917f000000000000000000000000000000000000000000000000000000000000000090911690631b82787890608401600060405180830381600087803b15801561080257600080fd5b505af1158015610816573d6000803e3d6000fd5b50505050506108256001600055565b505050565b610832610882565b604051636a8138a560e11b815233906001600160a01b037f0000000000000000000000000000000000000000000000000000000000000000169063d502714a9061042f9084908690600401611411565b6002600054036108d95760405162461bcd60e51b815260206004820152601f60248201527f5265656e7472616e637947756172643a207265656e7472616e742063616c6c0060448201526064015b60405180910390fd5b6002600055565b6001600160a01b03811661046c5760405163d551823d60e01b815260040160405180910390fd5b8060000361091457505050565b61091d826108e0565b6000836001600160a01b031663bd02d0f560405160200161096f906020808252601f908201527f4e41544956455f544f4b454e5f5452414e534645525f4741535f4c494d495400604082015260600190565b604051602081830303815290604052805190602001206040518263ffffffff1660e01b81526004016109a391815260200190565b602060405180830381865afa1580156109c0573d6000803e3d6000fd5b505050506040513d601f19601f820116820180604052508101906109e4919061143f565b90506000806000806000868887f190508015610a01575050505050565b610a0c858585610a13565b5050505050565b80600003610a2057505050565b610a29826108e0565b6000610a3484610ad5565b9050806001600160a01b031663d0e30db0836040518263ffffffff1660e01b81526004016000604051808303818588803b158015610a7157600080fd5b505af1158015610a85573d6000803e3d6000fd5b5050505050610a9684828585610b88565b50505050565b600080610aa883610ddc565b915091508015610acc578160405162461bcd60e51b81526004016108d09190611458565b61082583610e6c565b6000816001600160a01b03166321f8a721604051602001610b0d9060208082526003908201526215d39560ea1b604082015260600190565b604051602081830303815290604052805190602001206040518263ffffffff1660e01b8152600401610b4191815260200190565b602060405180830381865afa158015610b5e573d6000803e3d6000fd5b505050506040513d601f19601f82011682018060405250810190610b82919061146b565b92915050565b8015610a9657610b97826108e0565b6000846001600160a01b031663bd02d0f5610bb186610e75565b6040518263ffffffff1660e01b8152600401610bcf91815260200190565b602060405180830381865afa158015610bec573d6000803e3d6000fd5b505050506040513d601f19601f82011682018060405250810190610c10919061143f565b905080600003610c3e57604051634fe14bfd60e11b81526001600160a01b03851660048201526024016108d0565b600080610c4d86868686610f02565b915091508115610c5f57505050610a96565b6000876001600160a01b03166321f8a721604051602001610ca3906020808252600f908201526e484f4c44494e475f4144445245535360881b604082015260600190565b604051602081830303815290604052805190602001206040518263ffffffff1660e01b8152600401610cd791815260200190565b602060405180830381865afa158015610cf4573d6000803e3d6000fd5b505050506040513d601f19601f82011682018060405250810190610d18919061146b565b90506001600160a01b038116610d4157604051633a6de2f560e21b815260040160405180910390fd5b6000610d4f88838888610f02565b5090508015610d62575050505050610a96565b6000610d6d84610ddc565b5090507fc9f14d9a0a9b46470c7c0b6c508f8283abaab7f795f153953c58cd4250824dae8185604051610da1929190611488565b60405180910390a160405163012f3b8f60e71b81526001600160a01b03808b16600483015289166024820152604481018890526064016108d0565b60606000604483511015610e03575050604080516020810190915260008082529092909150565b6000610e10846020015190565b90506307b9e43360e51b6001600160e01b0319821601610e4f5760048401935083806020019051810190610e4491906114b6565b946001945092505050565b600060405180602001604052806000815250909250925050915091565b80518060208301fd5b6000604051602001610eb89060208082526018908201527f544f4b454e5f5452414e534645525f4741535f4c494d49540000000000000000604082015260600190565b60408051601f198184030181528282528051602091820120908301526001600160a01b03841690820152606001604051602081830303815290604052805190602001209050919050565b604080516001600160a01b038581166024830152604480830186905283518084039091018152606490920183526020820180516001600160e01b031663a9059cbb60e01b17905291516000926060929184918291908a16908790610f67908690611563565b60006040518083038160008787f1925050503d8060008114610fa5576040519150601f19603f3d011682016040523d82523d6000602084013e610faa565b606091505b5091509150811561104b578051600003611008576001600160a01b0389163b6110085760006040518060400160405280601481526020017310d85b1b081d1bc81b9bdb8b58dbdb9d1c9858dd60621b81525094509450505050611054565b6000815111801561102a575080806020019051810190611028919061157f565b155b1561103d57600094509250611054915050565b600194509250611054915050565b60009450925050505b94509492505050565b60006040828403121561106f57600080fd5b50919050565b60006040828403121561108757600080fd5b611091838361105d565b9392505050565b6001600160a01b038116811461046c57600080fd5b600080604083850312156110c057600080fd5b82356110cb81611098565b946020939093013593505050565b60006060828403121561106f57600080fd5b6000606082840312156110fd57600080fd5b61109183836110d9565b6000806020838503121561111a57600080fd5b823567ffffffffffffffff8082111561113257600080fd5b818501915085601f83011261114657600080fd5b81358181111561115557600080fd5b8660208260051b850101111561116a57600080fd5b60209290920196919550909350505050565b60005b8381101561119757818101518382015260200161117f565b50506000910152565b600081518084526111b881602086016020860161117c565b601f01601f19169290920160200192915050565b6000602080830181845280855180835260408601915060408160051b870101925083870160005b8281101561122157603f1988860301845261120f8583516111a0565b945092850192908501906001016111f3565b5092979650505050505050565b60008060006060848603121561124357600080fd5b833561124e81611098565b9250602084013561125e81611098565b929592945050506040919091013590565b60006020828403121561106f57600080fd5b803561128c81611098565b6001600160a01b03168252602090810135910152565b6001600160a01b0383168152606081016110916020830184611281565b6001600160a01b038381168252606082019083356112dc81611098565b81811660208501525060208401356112f381611098565b818116604085015250509392505050565b803561130f81611098565b6001600160a01b0390811683526020828101359084015260408201359061133582611098565b808216604085015250505050565b6001600160a01b0383168152608081016110916020830184611304565b634e487b7160e01b600052604160045260246000fd5b634e487b7160e01b600052603260045260246000fd5b6000808335601e198436030181126113a357600080fd5b83018035915067ffffffffffffffff8211156113be57600080fd5b6020019150368190038213156113d357600080fd5b9250929050565b8183823760009101908152919050565b60006001820161140a57634e487b7160e01b600052601160045260246000fd5b5060010190565b6001600160a01b0383811682526040820190833561142e81611098565b818116602085015250509392505050565b60006020828403121561145157600080fd5b5051919050565b60208152600061109160208301846111a0565b60006020828403121561147d57600080fd5b815161109181611098565b60408152600061149b60408301856111a0565b82810360208401526114ad81856111a0565b95945050505050565b6000602082840312156114c857600080fd5b815167ffffffffffffffff808211156114e057600080fd5b818401915084601f8301126114f457600080fd5b81518181111561150657611506611360565b604051601f8201601f19908116603f0116810190838211818310171561152e5761152e611360565b8160405282815287602084870101111561154757600080fd5b61155883602083016020880161117c565b979650505050505050565b6000825161157581846020870161117c565b9190910192915050565b60006020828403121561159157600080fd5b8151801515811461109157600080fdfea26469706673582212208162a550916134f4fa85c34483723e22bf274506707a220f0220f9ea0ed4811a64736f6c63430008140033",
  "linkReferences": {},
  "deployedLinkReferences": {}
}