{
  "_format": "hh-sol-artifact-1",
  "contractName": "FeeUtils",
  "sourceName": "contracts/fee/FeeUtils.sol",
  "abi": [
    {
      "inputs": [
        {
          "components": [
            {
              "internalType": "uint256",
              "name": "keyId",
              "type": "uint256"
            },
            {
              "internalType": "uint256",
              "name": "liquidityIndex",
              "type": "uint256"
            },
            {
              "internalType": "uint256",
              "name": "liquidityRate",
              "type": "uint256"
            },
            {
              "internalType": "uint256",
              "name": "borrowIndex",
              "type": "uint256"
            },
            {
              "internalType": "uint256",
              "name": "borrowRate",
              "type": "uint256"
            },
            {
              "internalType": "address",
              "name": "interestRateStrategy",
              "type": "address"
            },
            {
              "internalType": "address",
              "name": "underlyingAsset",
              "type": "address"
            },
            {
              "internalType": "address",
              "name": "poolToken",
              "type": "address"
            },
            {
              "internalType": "address",
              "name": "debtToken",
              "type": "address"
            },
            {
              "internalType": "uint256",
              "name": "configuration",
              "type": "uint256"
            },
            {
              "internalType": "uint256",
              "name": "feeFactor",
              "type": "uint256"
            },
            {
              "internalType": "uint256",
              "name": "totalFee",
              "type": "uint256"
            },
            {
              "internalType": "uint256",
              "name": "unclaimedFee",
              "type": "uint256"
            },
            {
              "internalType": "uint256",
              "name": "lastUpdateTimestamp",
              "type": "uint256"
            }
          ],
          "internalType": "struct Pool.Props",
          "name": "pool",
          "type": "tuple"
        },
        {
          "components": [
            {
              "internalType": "uint256",
              "name": "currLiquidityIndex",
              "type": "uint256"
            },
            {
              "internalType": "uint256",
              "name": "nextLiquidityIndex",
              "type": "uint256"
            },
            {
              "internalType": "uint256",
              "name": "currLiquidityRate",
              "type": "uint256"
            },
            {
              "internalType": "uint256",
              "name": "currBorrowIndex",
              "type": "uint256"
            },
            {
              "internalType": "uint256",
              "name": "nextBorrowIndex",
              "type": "uint256"
            },
            {
              "internalType": "uint256",
              "name": "currBorrowRate",
              "type": "uint256"
            },
            {
              "internalType": "uint256",
              "name": "currTotalScaledDebt",
              "type": "uint256"
            },
            {
              "internalType": "uint256",
              "name": "nextTotalScaledDebt",
              "type": "uint256"
            },
            {
              "internalType": "address",
              "name": "underlyingAsset",
              "type": "address"
            },
            {
              "internalType": "address",
              "name": "poolToken",
              "type": "address"
            },
            {
              "internalType": "address",
              "name": "debtToken",
              "type": "address"
            },
            {
              "internalType": "uint256",
              "name": "configuration",
              "type": "uint256"
            },
            {
              "internalType": "uint256",
              "name": "feeFactor",
              "type": "uint256"
            },
            {
              "internalType": "uint256",
              "name": "totalFee",
              "type": "uint256"
            },
            {
              "internalType": "uint256",
              "name": "unclaimedFee",
              "type": "uint256"
            },
            {
              "internalType": "uint256",
              "name": "lastUpdateTimestamp",
              "type": "uint256"
            }
          ],
          "internalType": "struct PoolCache.Props",
          "name": "poolCache",
          "type": "tuple"
        }
      ],
      "name": "incrementFeeAmount",
      "outputs": [],
      "stateMutability": "pure",
      "type": "function"
    }
  ],
  "bytecode": "0x61049961003a600b82828239805160001a60731461002d57634e487b7160e01b600052600060045260246000fd5b30600052607381538281f3fe73000000000000000000000000000000000000000030146080604052600436106100355760003560e01c806385f16e401461003a575b600080fd5b61004d61004836600461032e565b61004f565b005b806101800151600003610060575050565b600061007d82606001518360c001516100f190919063ffffffff16565b9050600061009c83608001518460c001516100f190919063ffffffff16565b905060006100aa8383610437565b905060006100c68561018001518361013590919063ffffffff16565b90506100e96100e286602001518361015b90919063ffffffff16565b879061019a565b505050505050565b600081156b019d971e4fe8401e74000000198390048411151761011357600080fd5b506b033b2e3c9fd0803ce800000091026b019d971e4fe8401e74000000010490565b60008115611388198390048411151761014d57600080fd5b506127109102611388010490565b600081156b033b2e3c9fd0803ce80000006002840419048411171561017f57600080fd5b506b033b2e3c9fd0803ce80000009190910260028204010490565b8082610160018181516101ad9190610450565b905250610180820180518291906101c5908390610450565b9052505050565b604051610200810167ffffffffffffffff811182821017156101fe57634e487b7160e01b600052604160045260246000fd5b60405290565b6040516101c0810167ffffffffffffffff811182821017156101fe57634e487b7160e01b600052604160045260246000fd5b80356001600160a01b038116811461024d57600080fd5b919050565b6000610200828403121561026557600080fd5b61026d6101cc565b9050813581526020820135602082015260408201356040820152606082013560608201526080820135608082015260a082013560a082015260c082013560c082015260e082013560e08201526101006102c7818401610236565b908201526101206102d9838201610236565b908201526101406102eb838201610236565b90820152610160828101359082015261018080830135908201526101a080830135908201526101c080830135908201526101e09182013591810191909152919050565b6000808284036103c081121561034357600080fd5b6101c08082121561035357600080fd5b61035b610204565b9150843582526020850135602083015260408501356040830152606085013560608301526080850135608083015261039560a08601610236565b60a08301526103a660c08601610236565b60c08301526103b760e08601610236565b60e08301526101006103ca818701610236565b9083015261012085810135908301526101408086013590830152610160808601359083015261018080860135908301526101a08086013590830152909250829061041686828701610252565b925050509250929050565b634e487b7160e01b600052601160045260246000fd5b8181038181111561044a5761044a610421565b92915050565b8082018082111561044a5761044a61042156fea2646970667358221220636f45eebdbdc43f04e9a7c82ec7de5dca335cd20bf99d903e05744a63e0cd4d64736f6c63430008140033",
  "linkReferences": {},
  "deployedLinkReferences": {}
}