{
  "_format": "hh-sol-artifact-1",
  "contractName": "OracleStoreUtils",
  "sourceName": "contracts/oracle/OracleStoreUtils.sol",
  "abi": [
    {
      "inputs": [
        {
          "internalType": "contract DataStore",
          "name": "dataStore",
          "type": "DataStore"
        }
      ],
      "name": "get",
      "outputs": [
        {
          "internalType": "address",
          "name": "",
          "type": "address"
        }
      ],
      "stateMutability": "view",
      "type": "function"
    }
  ],
  "bytecode": "0x6102f361003a600b82828239805160001a60731461002d57634e487b7160e01b600052600060045260246000fd5b30600052607381538281f3fe73000000000000000000000000000000000000000030146080604052600436106100405760003560e01c8063c2453ffc14610045578063e9159a7714610074575b600080fd5b610058610053366004610243565b610096565b6040516001600160a01b03909116815260200160405180910390f35b81801561008057600080fd5b5061009461008f366004610267565b610169565b005b6000816001600160a01b03166321f8a7216040516020016100d1906020808252600690820152654f5241434c4560d01b604082015260600190565b60408051601f1981840301815282825280516020918201209083015201604051602081830303815290604052805190602001206040518263ffffffff1660e01b815260040161012291815260200190565b602060405180830381865afa15801561013f573d6000803e3d6000fd5b505050506040513d601f19601f8201168201806040525081019061016391906102a0565b92915050565b816001600160a01b031663ca446dd96040516020016101a2906020808252600690820152654f5241434c4560d01b604082015260600190565b60408051601f198184030181529082905280516020909101206001600160e01b031960e084901b16825260048201526001600160a01b03841660248201526044016020604051808303816000875af1158015610202573d6000803e3d6000fd5b505050506040513d601f19601f8201168201806040525081019061022691906102a0565b505050565b6001600160a01b038116811461024057600080fd5b50565b60006020828403121561025557600080fd5b81356102608161022b565b9392505050565b6000806040838503121561027a57600080fd5b82356102858161022b565b915060208301356102958161022b565b809150509250929050565b6000602082840312156102b257600080fd5b81516102608161022b56fea26469706673582212207eea0c8fe7b1c121e48520f9132839b3fdffe79bfdd9dd0c0b968acce60b2f8564736f6c63430008140033",
  "linkReferences": {},
  "deployedLinkReferences": {}
}