{
  "_format": "hh-sol-artifact-1",
  "contractName": "PoolStoreUtils",
  "sourceName": "contracts/pool/PoolStoreUtils.sol",
  "abi": [
    {
      "inputs": [
        {
          "internalType": "address",
          "name": "key",
          "type": "address"
        }
      ],
      "name": "PoolNotFound",
      "type": "error"
    },
    {
      "inputs": [],
      "name": "POOL_BORROW_INDEX",
      "outputs": [
        {
          "internalType": "bytes32",
          "name": "",
          "type": "bytes32"
        }
      ],
      "stateMutability": "view",
      "type": "function"
    },
    {
      "inputs": [],
      "name": "POOL_BORROW_RATE",
      "outputs": [
        {
          "internalType": "bytes32",
          "name": "",
          "type": "bytes32"
        }
      ],
      "stateMutability": "view",
      "type": "function"
    },
    {
      "inputs": [],
      "name": "POOL_CONFIGRATION",
      "outputs": [
        {
          "internalType": "bytes32",
          "name": "",
          "type": "bytes32"
        }
      ],
      "stateMutability": "view",
      "type": "function"
    },
    {
      "inputs": [],
      "name": "POOL_DEBT_TOKEN",
      "outputs": [
        {
          "internalType": "bytes32",
          "name": "",
          "type": "bytes32"
        }
      ],
      "stateMutability": "view",
      "type": "function"
    },
    {
      "inputs": [],
      "name": "POOL_FEE_FACTOR",
      "outputs": [
        {
          "internalType": "bytes32",
          "name": "",
          "type": "bytes32"
        }
      ],
      "stateMutability": "view",
      "type": "function"
    },
    {
      "inputs": [],
      "name": "POOL_INTEREST_RATE_STRATEGY",
      "outputs": [
        {
          "internalType": "bytes32",
          "name": "",
          "type": "bytes32"
        }
      ],
      "stateMutability": "view",
      "type": "function"
    },
    {
      "inputs": [],
      "name": "POOL_KEY_ID",
      "outputs": [
        {
          "internalType": "bytes32",
          "name": "",
          "type": "bytes32"
        }
      ],
      "stateMutability": "view",
      "type": "function"
    },
    {
      "inputs": [],
      "name": "POOL_LAST_UPDATE_TIME_STAMP",
      "outputs": [
        {
          "internalType": "bytes32",
          "name": "",
          "type": "bytes32"
        }
      ],
      "stateMutability": "view",
      "type": "function"
    },
    {
      "inputs": [],
      "name": "POOL_LIQUIDITY_INDEX",
      "outputs": [
        {
          "internalType": "bytes32",
          "name": "",
          "type": "bytes32"
        }
      ],
      "stateMutability": "view",
      "type": "function"
    },
    {
      "inputs": [],
      "name": "POOL_LIQUIDITY_RATE",
      "outputs": [
        {
          "internalType": "bytes32",
          "name": "",
          "type": "bytes32"
        }
      ],
      "stateMutability": "view",
      "type": "function"
    },
    {
      "inputs": [],
      "name": "POOL_TOKEN",
      "outputs": [
        {
          "internalType": "bytes32",
          "name": "",
          "type": "bytes32"
        }
      ],
      "stateMutability": "view",
      "type": "function"
    },
    {
      "inputs": [],
      "name": "POOL_TOTAL_FEE",
      "outputs": [
        {
          "internalType": "bytes32",
          "name": "",
          "type": "bytes32"
        }
      ],
      "stateMutability": "view",
      "type": "function"
    },
    {
      "inputs": [],
      "name": "POOL_UNCLAIMED_FEE",
      "outputs": [
        {
          "internalType": "bytes32",
          "name": "",
          "type": "bytes32"
        }
      ],
      "stateMutability": "view",
      "type": "function"
    },
    {
      "inputs": [],
      "name": "POOL_UNDERLYING_TOKEN",
      "outputs": [
        {
          "internalType": "bytes32",
          "name": "",
          "type": "bytes32"
        }
      ],
      "stateMutability": "view",
      "type": "function"
    },
    {
      "inputs": [
        {
          "internalType": "contract DataStore",
          "name": "dataStore",
          "type": "DataStore"
        },
        {
          "internalType": "address",
          "name": "key",
          "type": "address"
        }
      ],
      "name": "get",
      "outputs": [
        {
          "components": [
            {
              "internalType": "uint256",
              "name": "keyId",
              "type": "uint256"
            },
            {
              "internalType": "uint256",
              "name": "liquidityIndex",
              "type": "uint256"
            },
            {
              "internalType": "uint256",
              "name": "liquidityRate",
              "type": "uint256"
            },
            {
              "internalType": "uint256",
              "name": "borrowIndex",
              "type": "uint256"
            },
            {
              "internalType": "uint256",
              "name": "borrowRate",
              "type": "uint256"
            },
            {
              "internalType": "address",
              "name": "interestRateStrategy",
              "type": "address"
            },
            {
              "internalType": "address",
              "name": "underlyingAsset",
              "type": "address"
            },
            {
              "internalType": "address",
              "name": "poolToken",
              "type": "address"
            },
            {
              "internalType": "address",
              "name": "debtToken",
              "type": "address"
            },
            {
              "internalType": "uint256",
              "name": "configuration",
              "type": "uint256"
            },
            {
              "internalType": "uint256",
              "name": "feeFactor",
              "type": "uint256"
            },
            {
              "internalType": "uint256",
              "name": "totalFee",
              "type": "uint256"
            },
            {
              "internalType": "uint256",
              "name": "unclaimedFee",
              "type": "uint256"
            },
            {
              "internalType": "uint256",
              "name": "lastUpdateTimestamp",
              "type": "uint256"
            }
          ],
          "internalType": "struct Pool.Props",
          "name": "",
          "type": "tuple"
        }
      ],
      "stateMutability": "view",
      "type": "function"
    },
    {
      "inputs": [
        {
          "internalType": "contract DataStore",
          "name": "dataStore",
          "type": "DataStore"
        },
        {
          "internalType": "uint256",
          "name": "id",
          "type": "uint256"
        }
      ],
      "name": "getKeyFromId",
      "outputs": [
        {
          "internalType": "address",
          "name": "",
          "type": "address"
        }
      ],
      "stateMutability": "view",
      "type": "function"
    },
    {
      "inputs": [
        {
          "internalType": "contract DataStore",
          "name": "dataStore",
          "type": "DataStore"
        },
        {
          "internalType": "uint256",
          "name": "id",
          "type": "uint256"
        }
      ],
      "name": "getPoolById",
      "outputs": [
        {
          "components": [
            {
              "internalType": "uint256",
              "name": "keyId",
              "type": "uint256"
            },
            {
              "internalType": "uint256",
              "name": "liquidityIndex",
              "type": "uint256"
            },
            {
              "internalType": "uint256",
              "name": "liquidityRate",
              "type": "uint256"
            },
            {
              "internalType": "uint256",
              "name": "borrowIndex",
              "type": "uint256"
            },
            {
              "internalType": "uint256",
              "name": "borrowRate",
              "type": "uint256"
            },
            {
              "internalType": "address",
              "name": "interestRateStrategy",
              "type": "address"
            },
            {
              "internalType": "address",
              "name": "underlyingAsset",
              "type": "address"
            },
            {
              "internalType": "address",
              "name": "poolToken",
              "type": "address"
            },
            {
              "internalType": "address",
              "name": "debtToken",
              "type": "address"
            },
            {
              "internalType": "uint256",
              "name": "configuration",
              "type": "uint256"
            },
            {
              "internalType": "uint256",
              "name": "feeFactor",
              "type": "uint256"
            },
            {
              "internalType": "uint256",
              "name": "totalFee",
              "type": "uint256"
            },
            {
              "internalType": "uint256",
              "name": "unclaimedFee",
              "type": "uint256"
            },
            {
              "internalType": "uint256",
              "name": "lastUpdateTimestamp",
              "type": "uint256"
            }
          ],
          "internalType": "struct Pool.Props",
          "name": "",
          "type": "tuple"
        }
      ],
      "stateMutability": "view",
      "type": "function"
    }
  ],
  "bytecode": "0x6130fc61003a600b82828239805160001a60731461002d57634e487b7160e01b600052600060045260246000fd5b30600052607381538281f3fe730000000000000000000000000000000000000000301460806040526004361061014c5760003560e01c80637c91f985116100c2578063bc73503011610086578063bc73503014610281578063e7934f7814610289578063e7fdfa9c14610291578063e8c97e4814610299578063eefb63dd146102a1578063f5db41ee146102cc57600080fd5b80637c91f98514610236578063a8d8fff51461023e578063ab23481414610251578063b4fd626514610259578063b71367ad1461027957600080fd5b806320ad65861161011457806320ad6586146101ee578063222f34a5146101f657806338cfeaf9146101fe5780635754e4b91461021e5780635c823cee146102265780636e78c8541461022e57600080fd5b8063049be53a14610151578063065270c0146101845780630df93b20146101a657806311992148146101ae57806314da5b62146101ce575b600080fd5b81801561015d57600080fd5b5061017161016c366004612b04565b6102d4565b6040519081526020015b60405180910390f35b81801561019057600080fd5b506101a461019f366004612b3d565b610450565b005b610171610519565b8180156101ba57600080fd5b506101a46101c9366004612bb6565b610541565b8180156101da57600080fd5b506101716101e9366004612b04565b6110d3565b610171611197565b6101716111a6565b61021161020c366004612cc7565b6111b5565b60405161017b9190612cf3565b610171611297565b6101716112a6565b6101716112b5565b6101716112c4565b61021161024c366004612b04565b6112d3565b610171611e51565b81801561026557600080fd5b506101a4610274366004612b04565b611e60565b610171612929565b610171612938565b610171612947565b610171612956565b610171612965565b6102b46102af366004612cc7565b612974565b6040516001600160a01b03909116815260200161017b565b610171612a3a565b600080836001600160a01b031663340dbab36040516020016102f590612dcb565b60408051601f198184030181529082905280516020909101206001600160e01b031960e084901b1682526004820152600160248201526044016020604051808303816000875af115801561034d573d6000803e3d6000fd5b505050506040513d601f19601f820116820180604052508101906103719190612df0565b9050836001600160a01b031663ca446dd98260405160200161039290612dcb565b604051602081830303815290604052805190602001206040516020016103c2929190918252602082015260400190565b60408051601f198184030181529082905280516020909101206001600160e01b031960e084901b16825260048201526001600160a01b03861660248201526044016020604051808303816000875af1158015610422573d6000803e3d6000fd5b505050506040513d601f19601f820116820180604052508101906104469190612e09565b5090505b92915050565b826001600160a01b031663e2a4853a8360405160200161046f90612e26565b60405160208183030381529060405280519060200120604051602001610496929190612e51565b60408051601f198184030181529082905280516020909101206001600160e01b031960e084901b1682526004820152602481018490526044015b6020604051808303816000875af11580156104ef573d6000803e3d6000fd5b505050506040513d601f19601f820116820180604052508101906105139190612df0565b50505050565b60405160200161052890612dcb565b6040516020818303038152906040528051906020012081565b826001600160a01b031663b348e63960405160200161055f90612e6a565b60408051601f198184030181529082905280516020909101206001600160e01b031960e084901b16825260048201526001600160a01b0385166024820152604401600060405180830381600087803b1580156105ba57600080fd5b505af11580156105ce573d6000803e3d6000fd5b50505050826001600160a01b031663e2a4853a836040516020016105f190612dcb565b60405160208183030381529060405280519060200120604051602001610618929190612e51565b60408051601f1981840301815290829052805160209091012084516001600160e01b031960e085901b16835261065992600401918252602082015260400190565b6020604051808303816000875af1158015610678573d6000803e3d6000fd5b505050506040513d601f19601f8201168201806040525081019061069c9190612df0565b50826001600160a01b031663e2a4853a836040516020016106bc90612e8d565b604051602081830303815290604052805190602001206040516020016106e3929190612e51565b6040516020818303038152906040528051906020012083602001516040518363ffffffff1660e01b8152600401610724929190918252602082015260400190565b6020604051808303816000875af1158015610743573d6000803e3d6000fd5b505050506040513d601f19601f820116820180604052508101906107679190612df0565b50826001600160a01b031663e2a4853a8360405160200161078790612ebb565b604051602081830303815290604052805190602001206040516020016107ae929190612e51565b60408051601f198184030181528282528051602090910120908501516001600160e01b031960e085901b1683526107f092600401918252602082015260400190565b6020604051808303816000875af115801561080f573d6000803e3d6000fd5b505050506040513d601f19601f820116820180604052508101906108339190612df0565b50826001600160a01b031663e2a4853a8360405160200161085390612ee8565b6040516020818303038152906040528051906020012060405160200161087a929190612e51565b6040516020818303038152906040528051906020012083606001516040518363ffffffff1660e01b81526004016108bb929190918252602082015260400190565b6020604051808303816000875af11580156108da573d6000803e3d6000fd5b505050506040513d601f19601f820116820180604052508101906108fe9190612df0565b50826001600160a01b031663e2a4853a8360405160200161091e90612f13565b60405160208183030381529060405280519060200120604051602001610945929190612e51565b6040516020818303038152906040528051906020012083608001516040518363ffffffff1660e01b8152600401610986929190918252602082015260400190565b6020604051808303816000875af11580156109a5573d6000803e3d6000fd5b505050506040513d601f19601f820116820180604052508101906109c99190612df0565b50826001600160a01b031663ca446dd9836040516020016109e990612f3d565b60405160208183030381529060405280519060200120604051602001610a10929190612e51565b604051602081830303815290604052805190602001208360a001516040518363ffffffff1660e01b8152600401610a5a9291909182526001600160a01b0316602082015260400190565b6020604051808303816000875af1158015610a79573d6000803e3d6000fd5b505050506040513d601f19601f82011682018060405250810190610a9d9190612e09565b50826001600160a01b031663ca446dd983604051602001610abd90612f74565b60405160208183030381529060405280519060200120604051602001610ae4929190612e51565b604051602081830303815290604052805190602001208360c001516040518363ffffffff1660e01b8152600401610b2e9291909182526001600160a01b0316602082015260400190565b6020604051808303816000875af1158015610b4d573d6000803e3d6000fd5b505050506040513d601f19601f82011682018060405250810190610b719190612e09565b50826001600160a01b031663ca446dd983604051602001610b9190612fa3565b60405160208183030381529060405280519060200120604051602001610bb8929190612e51565b604051602081830303815290604052805190602001208360e001516040518363ffffffff1660e01b8152600401610c029291909182526001600160a01b0316602082015260400190565b6020604051808303816000875af1158015610c21573d6000803e3d6000fd5b505050506040513d601f19601f82011682018060405250810190610c459190612e09565b50826001600160a01b031663ca446dd983604051602001610c6590612fc7565b60405160208183030381529060405280519060200120604051602001610c8c929190612e51565b604051602081830303815290604052805190602001208361010001516040518363ffffffff1660e01b8152600401610cd79291909182526001600160a01b0316602082015260400190565b6020604051808303816000875af1158015610cf6573d6000803e3d6000fd5b505050506040513d601f19601f82011682018060405250810190610d1a9190612e09565b50826001600160a01b031663e2a4853a83604051602001610d3a90612e26565b60405160208183030381529060405280519060200120604051602001610d61929190612e51565b604051602081830303815290604052805190602001208361012001516040518363ffffffff1660e01b8152600401610da3929190918252602082015260400190565b6020604051808303816000875af1158015610dc2573d6000803e3d6000fd5b505050506040513d601f19601f82011682018060405250810190610de69190612df0565b50826001600160a01b031663e2a4853a83604051602001610e0690612ff0565b60405160208183030381529060405280519060200120604051602001610e2d929190612e51565b604051602081830303815290604052805190602001208361014001516040518363ffffffff1660e01b8152600401610e6f929190918252602082015260400190565b6020604051808303816000875af1158015610e8e573d6000803e3d6000fd5b505050506040513d601f19601f82011682018060405250810190610eb29190612df0565b50826001600160a01b031663e2a4853a83604051602001610ed290613019565b60405160208183030381529060405280519060200120604051602001610ef9929190612e51565b604051602081830303815290604052805190602001208361016001516040518363ffffffff1660e01b8152600401610f3b929190918252602082015260400190565b6020604051808303816000875af1158015610f5a573d6000803e3d6000fd5b505050506040513d601f19601f82011682018060405250810190610f7e9190612df0565b50826001600160a01b031663e2a4853a83604051602001610f9e90613041565b60405160208183030381529060405280519060200120604051602001610fc5929190612e51565b604051602081830303815290604052805190602001208361018001516040518363ffffffff1660e01b8152600401611007929190918252602082015260400190565b6020604051808303816000875af1158015611026573d6000803e3d6000fd5b505050506040513d601f19601f8201168201806040525081019061104a9190612df0565b50826001600160a01b031663e2a4853a8360405160200161106a9061306d565b60405160208183030381529060405280519060200120604051602001611091929190612e51565b60405160208183030381529060405280519060200120836101a001516040518363ffffffff1660e01b81526004016104d0929190918252602082015260400190565b6000826001600160a01b031663bd02d0f5836040516020016110f490612e26565b6040516020818303038152906040528051906020012060405160200161111b929190612e51565b604051602081830303815290604052805190602001206040518263ffffffff1660e01b815260040161114f91815260200190565b602060405180830381865afa15801561116c573d6000803e3d6000fd5b505050506040513d601f19601f820116820180604052508101906111909190612df0565b9392505050565b60405160200161052890612fa3565b60405160200161052890612ff0565b6111bd612a49565b6000836001600160a01b03166321f8a721846040516020016111de90612dcb565b6040516020818303038152906040528051906020012060405160200161120e929190918252602082015260400190565b604051602081830303815290604052805190602001206040518263ffffffff1660e01b815260040161124291815260200190565b602060405180830381865afa15801561125f573d6000803e3d6000fd5b505050506040513d601f19601f820116820180604052508101906112839190612e09565b905061128f84826112d3565b949350505050565b60405160200161052890613019565b60405160200161052890612ebb565b60405160200161052890612f13565b60405160200161052890613041565b6112db612a49565b6112e3612a49565b836001600160a01b031663c769d1a160405160200161130190612e6a565b60408051601f198184030181529082905280516020909101206001600160e01b031960e084901b16825260048201526001600160a01b0386166024820152604401602060405180830381865afa15801561135f573d6000803e3d6000fd5b505050506040513d601f19601f8201168201806040525081019061138391906130a4565b61138e57905061044a565b836001600160a01b031663bd02d0f5846040516020016113ad90612dcb565b604051602081830303815290604052805190602001206040516020016113d4929190612e51565b604051602081830303815290604052805190602001206040518263ffffffff1660e01b815260040161140891815260200190565b602060405180830381865afa158015611425573d6000803e3d6000fd5b505050506040513d601f19601f820116820180604052508101906114499190612df0565b81526040516001600160a01b0385169063bd02d0f590859061146d90602001612e8d565b60405160208183030381529060405280519060200120604051602001611494929190612e51565b604051602081830303815290604052805190602001206040518263ffffffff1660e01b81526004016114c891815260200190565b602060405180830381865afa1580156114e5573d6000803e3d6000fd5b505050506040513d601f19601f820116820180604052508101906115099190612df0565b816020018181525050836001600160a01b031663bd02d0f58460405160200161153190612ebb565b60405160208183030381529060405280519060200120604051602001611558929190612e51565b604051602081830303815290604052805190602001206040518263ffffffff1660e01b815260040161158c91815260200190565b602060405180830381865afa1580156115a9573d6000803e3d6000fd5b505050506040513d601f19601f820116820180604052508101906115cd9190612df0565b816040018181525050836001600160a01b031663bd02d0f5846040516020016115f590612ee8565b6040516020818303038152906040528051906020012060405160200161161c929190612e51565b604051602081830303815290604052805190602001206040518263ffffffff1660e01b815260040161165091815260200190565b602060405180830381865afa15801561166d573d6000803e3d6000fd5b505050506040513d601f19601f820116820180604052508101906116919190612df0565b60608201526040516001600160a01b0385169063bd02d0f59085906116b890602001612f13565b604051602081830303815290604052805190602001206040516020016116df929190612e51565b604051602081830303815290604052805190602001206040518263ffffffff1660e01b815260040161171391815260200190565b602060405180830381865afa158015611730573d6000803e3d6000fd5b505050506040513d601f19601f820116820180604052508101906117549190612df0565b60808201526040516001600160a01b038516906321f8a72190859061177b90602001612f3d565b604051602081830303815290604052805190602001206040516020016117a2929190612e51565b604051602081830303815290604052805190602001206040518263ffffffff1660e01b81526004016117d691815260200190565b602060405180830381865afa1580156117f3573d6000803e3d6000fd5b505050506040513d601f19601f820116820180604052508101906118179190612e09565b6001600160a01b0390811660a0830152604051908516906321f8a72190859061184290602001612f74565b60405160208183030381529060405280519060200120604051602001611869929190612e51565b604051602081830303815290604052805190602001206040518263ffffffff1660e01b815260040161189d91815260200190565b602060405180830381865afa1580156118ba573d6000803e3d6000fd5b505050506040513d601f19601f820116820180604052508101906118de9190612e09565b6001600160a01b0390811660c0830152604051908516906321f8a72190859061190990602001612fa3565b60405160208183030381529060405280519060200120604051602001611930929190612e51565b604051602081830303815290604052805190602001206040518263ffffffff1660e01b815260040161196491815260200190565b602060405180830381865afa158015611981573d6000803e3d6000fd5b505050506040513d601f19601f820116820180604052508101906119a59190612e09565b6001600160a01b0390811660e0830152604051908516906321f8a7219085906119d090602001612fc7565b604051602081830303815290604052805190602001206040516020016119f7929190612e51565b604051602081830303815290604052805190602001206040518263ffffffff1660e01b8152600401611a2b91815260200190565b602060405180830381865afa158015611a48573d6000803e3d6000fd5b505050506040513d601f19601f82011682018060405250810190611a6c9190612e09565b6001600160a01b039081166101008301526040519085169063bd02d0f5908590611a9890602001612e26565b60405160208183030381529060405280519060200120604051602001611abf929190612e51565b604051602081830303815290604052805190602001206040518263ffffffff1660e01b8152600401611af391815260200190565b602060405180830381865afa158015611b10573d6000803e3d6000fd5b505050506040513d601f19601f82011682018060405250810190611b349190612df0565b6101208201526040516001600160a01b0385169063bd02d0f5908590611b5c90602001612ff0565b60405160208183030381529060405280519060200120604051602001611b83929190612e51565b604051602081830303815290604052805190602001206040518263ffffffff1660e01b8152600401611bb791815260200190565b602060405180830381865afa158015611bd4573d6000803e3d6000fd5b505050506040513d601f19601f82011682018060405250810190611bf89190612df0565b6101408201526040516001600160a01b0385169063bd02d0f5908590611c2090602001613019565b60405160208183030381529060405280519060200120604051602001611c47929190612e51565b604051602081830303815290604052805190602001206040518263ffffffff1660e01b8152600401611c7b91815260200190565b602060405180830381865afa158015611c98573d6000803e3d6000fd5b505050506040513d601f19601f82011682018060405250810190611cbc9190612df0565b6101608201526040516001600160a01b0385169063bd02d0f5908590611ce490602001613041565b60405160208183030381529060405280519060200120604051602001611d0b929190612e51565b604051602081830303815290604052805190602001206040518263ffffffff1660e01b8152600401611d3f91815260200190565b602060405180830381865afa158015611d5c573d6000803e3d6000fd5b505050506040513d601f19601f82011682018060405250810190611d809190612df0565b6101808201526040516001600160a01b0385169063bd02d0f5908590611da89060200161306d565b60405160208183030381529060405280519060200120604051602001611dcf929190612e51565b604051602081830303815290604052805190602001206040518263ffffffff1660e01b8152600401611e0391815260200190565b602060405180830381865afa158015611e20573d6000803e3d6000fd5b505050506040513d601f19601f82011682018060405250810190611e449190612df0565b6101a08201529392505050565b60405160200161052890612f3d565b816001600160a01b031663c769d1a1604051602001611e7e90612e6a565b60408051601f198184030181529082905280516020909101206001600160e01b031960e084901b16825260048201526001600160a01b0384166024820152604401602060405180830381865afa158015611edc573d6000803e3d6000fd5b505050506040513d601f19601f82011682018060405250810190611f0091906130a4565b611f2c57604051631a8d3e6360e21b81526001600160a01b038216600482015260240160405180910390fd5b816001600160a01b03166369721d41604051602001611f4a90612e6a565b60408051601f198184030181529082905280516020909101206001600160e01b031960e084901b16825260048201526001600160a01b0384166024820152604401600060405180830381600087803b158015611fa557600080fd5b505af1158015611fb9573d6000803e3d6000fd5b50505050816001600160a01b03166342c3bd9682604051602001611fdc90612dcb565b60405160208183030381529060405280519060200120604051602001612003929190612e51565b604051602081830303815290604052805190602001206040518263ffffffff1660e01b815260040161203791815260200190565b600060405180830381600087803b15801561205157600080fd5b505af1158015612065573d6000803e3d6000fd5b50505050816001600160a01b03166342c3bd968260405160200161208890612e8d565b604051602081830303815290604052805190602001206040516020016120af929190612e51565b604051602081830303815290604052805190602001206040518263ffffffff1660e01b81526004016120e391815260200190565b600060405180830381600087803b1580156120fd57600080fd5b505af1158015612111573d6000803e3d6000fd5b50505050816001600160a01b03166342c3bd968260405160200161213490612ebb565b6040516020818303038152906040528051906020012060405160200161215b929190612e51565b604051602081830303815290604052805190602001206040518263ffffffff1660e01b815260040161218f91815260200190565b600060405180830381600087803b1580156121a957600080fd5b505af11580156121bd573d6000803e3d6000fd5b50505050816001600160a01b03166342c3bd96826040516020016121e090612ee8565b60405160208183030381529060405280519060200120604051602001612207929190612e51565b604051602081830303815290604052805190602001206040518263ffffffff1660e01b815260040161223b91815260200190565b600060405180830381600087803b15801561225557600080fd5b505af1158015612269573d6000803e3d6000fd5b50505050816001600160a01b03166342c3bd968260405160200161228c90612f13565b604051602081830303815290604052805190602001206040516020016122b3929190612e51565b604051602081830303815290604052805190602001206040518263ffffffff1660e01b81526004016122e791815260200190565b600060405180830381600087803b15801561230157600080fd5b505af1158015612315573d6000803e3d6000fd5b50505050816001600160a01b0316639faf6fb68260405160200161233890612f3d565b6040516020818303038152906040528051906020012060405160200161235f929190612e51565b604051602081830303815290604052805190602001206040518263ffffffff1660e01b815260040161239391815260200190565b600060405180830381600087803b1580156123ad57600080fd5b505af11580156123c1573d6000803e3d6000fd5b50505050816001600160a01b0316639faf6fb6826040516020016123e490612f74565b6040516020818303038152906040528051906020012060405160200161240b929190612e51565b604051602081830303815290604052805190602001206040518263ffffffff1660e01b815260040161243f91815260200190565b600060405180830381600087803b15801561245957600080fd5b505af115801561246d573d6000803e3d6000fd5b50505050816001600160a01b0316639faf6fb68260405160200161249090612fa3565b604051602081830303815290604052805190602001206040516020016124b7929190612e51565b604051602081830303815290604052805190602001206040518263ffffffff1660e01b81526004016124eb91815260200190565b600060405180830381600087803b15801561250557600080fd5b505af1158015612519573d6000803e3d6000fd5b50505050816001600160a01b0316639faf6fb68260405160200161253c90612fc7565b60405160208183030381529060405280519060200120604051602001612563929190612e51565b604051602081830303815290604052805190602001206040518263ffffffff1660e01b815260040161259791815260200190565b600060405180830381600087803b1580156125b157600080fd5b505af11580156125c5573d6000803e3d6000fd5b50505050816001600160a01b03166342c3bd96826040516020016125e890612e26565b6040516020818303038152906040528051906020012060405160200161260f929190612e51565b604051602081830303815290604052805190602001206040518263ffffffff1660e01b815260040161264391815260200190565b600060405180830381600087803b15801561265d57600080fd5b505af1158015612671573d6000803e3d6000fd5b50505050816001600160a01b03166342c3bd968260405160200161269490612ff0565b604051602081830303815290604052805190602001206040516020016126bb929190612e51565b604051602081830303815290604052805190602001206040518263ffffffff1660e01b81526004016126ef91815260200190565b600060405180830381600087803b15801561270957600080fd5b505af115801561271d573d6000803e3d6000fd5b50505050816001600160a01b03166342c3bd968260405160200161274090613019565b60405160208183030381529060405280519060200120604051602001612767929190612e51565b604051602081830303815290604052805190602001206040518263ffffffff1660e01b815260040161279b91815260200190565b600060405180830381600087803b1580156127b557600080fd5b505af11580156127c9573d6000803e3d6000fd5b50505050816001600160a01b03166342c3bd96826040516020016127ec90613041565b60405160208183030381529060405280519060200120604051602001612813929190612e51565b604051602081830303815290604052805190602001206040518263ffffffff1660e01b815260040161284791815260200190565b600060405180830381600087803b15801561286157600080fd5b505af1158015612875573d6000803e3d6000fd5b50505050816001600160a01b03166342c3bd96826040516020016128989061306d565b604051602081830303815290604052805190602001206040516020016128bf929190612e51565b604051602081830303815290604052805190602001206040518263ffffffff1660e01b81526004016128f391815260200190565b600060405180830381600087803b15801561290d57600080fd5b505af1158015612921573d6000803e3d6000fd5b505050505050565b60405160200161052890612e8d565b60405160200161052890612fc7565b60405160200161052890612f74565b60405160200161052890612ee8565b60405160200161052890612e26565b6000826001600160a01b03166321f8a7218360405160200161299590612dcb565b604051602081830303815290604052805190602001206040516020016129c5929190918252602082015260400190565b604051602081830303815290604052805190602001206040518263ffffffff1660e01b81526004016129f991815260200190565b602060405180830381865afa158015612a16573d6000803e3d6000fd5b505050506040513d601f19601f820116820180604052508101906111909190612e09565b6040516020016105289061306d565b604051806101c00160405280600081526020016000815260200160008152602001600081526020016000815260200160006001600160a01b0316815260200160006001600160a01b0316815260200160006001600160a01b0316815260200160006001600160a01b0316815260200160008152602001600081526020016000815260200160008152602001600081525090565b6001600160a01b0381168114612af157600080fd5b50565b8035612aff81612adc565b919050565b60008060408385031215612b1757600080fd5b8235612b2281612adc565b91506020830135612b3281612adc565b809150509250929050565b600080600060608486031215612b5257600080fd5b8335612b5d81612adc565b92506020840135612b6d81612adc565b929592945050506040919091013590565b6040516101c0810167ffffffffffffffff81118282101715612bb057634e487b7160e01b600052604160045260246000fd5b60405290565b6000806000838503610200811215612bcd57600080fd5b8435612bd881612adc565b93506020850135612be881612adc565b92506101c0603f198201811315612bfe57600080fd5b612c06612b7e565b915060408601358252606086013560208301526080860135604083015260a0860135606083015260c08601356080830152612c4360e08701612af4565b60a0830152610100612c56818801612af4565b60c0840152610120612c69818901612af4565b60e0850152610140612c7c818a01612af4565b838601526101609250828901358286015261018091508189013581860152506101a0808901358386015283890135828601526101e08901358186015250505050809150509250925092565b60008060408385031215612cda57600080fd5b8235612ce581612adc565b946020939093013593505050565b60006101c082019050825182526020830151602083015260408301516040830152606083015160608301526080830151608083015260a0830151612d4260a08401826001600160a01b03169052565b5060c0830151612d5d60c08401826001600160a01b03169052565b5060e0830151612d7860e08401826001600160a01b03169052565b50610100838101516001600160a01b03169083015261012080840151908301526101408084015190830152610160808401519083015261018080840151908301526101a092830151929091019190915290565b6020808252600b908201526a1413d3d317d2d15657d25160aa1b604082015260600190565b600060208284031215612e0257600080fd5b5051919050565b600060208284031215612e1b57600080fd5b815161119081612adc565b6020808252601190820152702827a7a62fa1a7a72324a3a920aa24a7a760791b604082015260600190565b6001600160a01b03929092168252602082015260400190565b6020808252600990820152681413d3d317d31254d560ba1b604082015260600190565b6020808252601490820152730a09e9e98be9892a2aa928892a8b2be929c888ab60631b604082015260600190565b602080825260139082015272504f4f4c5f4c49515549444954595f5241544560681b604082015260600190565b6020808252601190820152700a09e9e98be849ea4a49eaebe929c888ab607b1b604082015260600190565b60208082526010908201526f504f4f4c5f424f52524f575f5241544560801b604082015260600190565b6020808252601b908201527f504f4f4c5f494e5445524553545f524154455f53545241544547590000000000604082015260600190565b6020808252601590820152742827a7a62faaa72222a9262ca4a723afaa27a5a2a760591b604082015260600190565b6020808252600a90820152692827a7a62faa27a5a2a760b11b604082015260600190565b6020808252600f908201526e2827a7a62fa222a12a2faa27a5a2a760891b604082015260600190565b6020808252600f908201526e2827a7a62fa322a2afa320a1aa27a960891b604082015260600190565b6020808252600e908201526d504f4f4c5f544f54414c5f46454560901b604082015260600190565b602080825260129082015271504f4f4c5f554e434c41494d45445f46454560701b604082015260600190565b6020808252601b908201527f504f4f4c5f4c4153545f5550444154455f54494d455f5354414d500000000000604082015260600190565b6000602082840312156130b657600080fd5b8151801515811461119057600080fdfea264697066735822122046ae26113ad82821f51341bd67d8fa896e3b33148cf01c1cef7d8f8eaf7363b064736f6c63430008140033",
  "linkReferences": {},
  "deployedLinkReferences": {}
}