{
  "_format": "hh-sol-artifact-1",
  "contractName": "PoolFactory",
  "sourceName": "contracts/pool/PoolFactory.sol",
  "abi": [
    {
      "inputs": [
        {
          "internalType": "contract RoleStore",
          "name": "_roleStore",
          "type": "address"
        },
        {
          "internalType": "contract DataStore",
          "name": "_dataStore",
          "type": "address"
        }
      ],
      "stateMutability": "nonpayable",
      "type": "constructor"
    },
    {
      "inputs": [
        {
          "internalType": "address",
          "name": "key",
          "type": "address"
        },
        {
          "internalType": "address",
          "name": "poolToken",
          "type": "address"
        }
      ],
      "name": "PoolAlreadyExists",
      "type": "error"
    },
    {
      "inputs": [
        {
          "internalType": "address",
          "name": "msgSender",
          "type": "address"
        },
        {
          "internalType": "string",
          "name": "role",
          "type": "string"
        }
      ],
      "name": "Unauthorized",
      "type": "error"
    },
    {
      "inputs": [
        {
          "internalType": "address",
          "name": "underlyingAsset",
          "type": "address"
        },
        {
          "internalType": "address",
          "name": "interestRateStrategy",
          "type": "address"
        },
        {
          "internalType": "uint256",
          "name": "configuration",
          "type": "uint256"
        }
      ],
      "name": "createPool",
      "outputs": [
        {
          "components": [
            {
              "internalType": "uint256",
              "name": "keyId",
              "type": "uint256"
            },
            {
              "internalType": "uint256",
              "name": "liquidityIndex",
              "type": "uint256"
            },
            {
              "internalType": "uint256",
              "name": "liquidityRate",
              "type": "uint256"
            },
            {
              "internalType": "uint256",
              "name": "borrowIndex",
              "type": "uint256"
            },
            {
              "internalType": "uint256",
              "name": "borrowRate",
              "type": "uint256"
            },
            {
              "internalType": "address",
              "name": "interestRateStrategy",
              "type": "address"
            },
            {
              "internalType": "address",
              "name": "underlyingAsset",
              "type": "address"
            },
            {
              "internalType": "address",
              "name": "poolToken",
              "type": "address"
            },
            {
              "internalType": "address",
              "name": "debtToken",
              "type": "address"
            },
            {
              "internalType": "uint256",
              "name": "configuration",
              "type": "uint256"
            },
            {
              "internalType": "uint256",
              "name": "feeFactor",
              "type": "uint256"
            },
            {
              "internalType": "uint256",
              "name": "totalFee",
              "type": "uint256"
            },
            {
              "internalType": "uint256",
              "name": "unclaimedFee",
              "type": "uint256"
            },
            {
              "internalType": "uint256",
              "name": "lastUpdateTimestamp",
              "type": "uint256"
            }
          ],
          "internalType": "struct Pool.Props",
          "name": "",
          "type": "tuple"
        }
      ],
      "stateMutability": "nonpayable",
      "type": "function"
    },
    {
      "inputs": [],
      "name": "dataStore",
      "outputs": [
        {
          "internalType": "contract DataStore",
          "name": "",
          "type": "address"
        }
      ],
      "stateMutability": "view",
      "type": "function"
    },
    {
      "inputs": [],
      "name": "roleStore",
      "outputs": [
        {
          "internalType": "contract RoleStore",
          "name": "",
          "type": "address"
        }
      ],
      "stateMutability": "view",
      "type": "function"
    }
  ],
  "bytecode": "0x60c060405234801561001057600080fd5b50604051614ba0380380614ba083398101604081905261002f9161005e565b6001600160a01b039182166080521660a052610098565b6001600160a01b038116811461005b57600080fd5b50565b6000806040838503121561007157600080fd5b825161007c81610046565b602084015190925061008d81610046565b809150509250929050565b60805160a051614aad6100f36000396000818160af015281816101f2015281816102f80152818161038801528181610413015261056b015260008181604b015281816102d70152818161036701526105f00152614aad6000f3fe608060405234801561001057600080fd5b50600436106100415760003560e01c80634a4a7b041461004657806351810fb51461008a578063660d0d67146100aa575b600080fd5b61006d7f000000000000000000000000000000000000000000000000000000000000000081565b6040516001600160a01b0390911681526020015b60405180910390f35b61009d6100983660046106bc565b6100d1565b60405161008191906107c6565b61006d7f000000000000000000000000000000000000000000000000000000000000000081565b610167604051806101c00160405280600081526020016000815260200160008152602001600081526020016000815260200160006001600160a01b0316815260200160006001600160a01b0316815260200160006001600160a01b0316815260200160006001600160a01b0316815260200160008152602001600081526020016000815260200160008152602001600081525090565b6101d8604051602001610199906020808252600b908201526a2827a7a62fa5a2a2a822a960a91b604082015260600190565b604051602081830303815290604052805190602001206040518060400160405280600b81526020016a2827a7a62fa5a2a2a822a960a91b8152506105d4565b60008460405163a8d8fff560e01b81526001600160a01b037f0000000000000000000000000000000000000000000000000000000000000000811660048301528216602482015290915060009073__$e0022d6f389ac14ff1ce1dc57a4018d0a3$__9063a8d8fff5906044016101c060405180830381865af4158015610262573d6000803e3d6000fd5b505050506040513d601f19601f820116820180604052508101906102869190610823565b60e08101519091506001600160a01b0316156102d35760e0810151604051633c8ffe4160e11b81526001600160a01b03808516600483015290911660248201526044015b60405180910390fd5b60007f00000000000000000000000000000000000000000000000000000000000000007f00000000000000000000000000000000000000000000000000000000000000008860405161032490610688565b6001600160a01b03938416815291831660208301529091166040820152606001604051809103906000f080158015610360573d6000803e3d6000fd5b50905060007f00000000000000000000000000000000000000000000000000000000000000007f0000000000000000000000000000000000000000000000000000000000000000896040516103b490610696565b6001600160a01b03938416815291831660208301529091166040820152606001604051809103906000f0801580156103f0573d6000803e3d6000fd5b50604080516101c081019182905263024df29d60e11b9091526001600160a01b037f000000000000000000000000000000000000000000000000000000000000000081166101c483015286166101e48201529091506000908073__$e0022d6f389ac14ff1ce1dc57a4018d0a3$__63049be53a6102048301602060405180830381865af4158015610485573d6000803e3d6000fd5b505050506040513d601f19601f820116820180604052508101906104a991906108ef565b815260200160018152602001600081526020016001815260200160008152602001896001600160a01b031681526020018a6001600160a01b03168152602001846001600160a01b03168152602001836001600160a01b0316815260200188815260200161051d8961ffff60409190911c1690565b815260200160008152602001600081526020016105374290565b9052604051630233242960e31b815290915073__$e0022d6f389ac14ff1ce1dc57a4018d0a3$__90631199214890610597907f00000000000000000000000000000000000000000000000000000000000000009089908690600401610908565b60006040518083038186803b1580156105af57600080fd5b505af41580156105c3573d6000803e3d6000fd5b50929b9a5050505050505050505050565b60405163ac4ab3fb60e01b8152336004820152602481018390527f00000000000000000000000000000000000000000000000000000000000000006001600160a01b03169063ac4ab3fb90604401602060405180830381865afa15801561063f573d6000803e3d6000fd5b505050506040513d601f19601f820116820180604052508101906106639190610936565b61068457338160405163a35b150b60e01b81526004016102ca92919061095f565b5050565b612cea80620009be83390190565b6113d080620036a883390190565b6001600160a01b03811681146106b957600080fd5b50565b6000806000606084860312156106d157600080fd5b83356106dc816106a4565b925060208401356106ec816106a4565b929592945050506040919091013590565b805182526020810151602083015260408101516040830152606081015160608301526080810151608083015260a081015161074360a08401826001600160a01b03169052565b5060c081015161075e60c08401826001600160a01b03169052565b5060e081015161077960e08401826001600160a01b03169052565b50610100818101516001600160a01b03169083015261012080820151908301526101408082015190830152610160808201519083015261018080820151908301526101a090810151910152565b6101c081016107d582846106fd565b92915050565b6040516101c0810167ffffffffffffffff8111828210171561080d57634e487b7160e01b600052604160045260246000fd5b60405290565b805161081e816106a4565b919050565b60006101c0828403121561083657600080fd5b61083e6107db565b825181526020830151602082015260408301516040820152606083015160608201526080830151608082015261087660a08401610813565b60a082015261088760c08401610813565b60c082015261089860e08401610813565b60e08201526101006108ab818501610813565b9082015261012083810151908201526101408084015190820152610160808401519082015261018080840151908201526101a0928301519281019290925250919050565b60006020828403121561090157600080fd5b5051919050565b6001600160a01b03848116825283166020820152610200810161092e60408301846106fd565b949350505050565b60006020828403121561094857600080fd5b8151801515811461095857600080fd5b9392505050565b60018060a01b038316815260006020604081840152835180604085015260005b8181101561099b5785810183015185820160600152820161097f565b506000606082860101526060601f19601f83011685010192505050939250505056fe60c06040523480156200001157600080fd5b5060405162002cea38038062002cea83398101604081905262000034916200011b565b828281816040518060400160405280600d81526020016c2aa32fa827a7a62faa27a5a2a760991b8152506040518060400160405280600d81526020016c2aa32fa827a7a62faa27a5a2a760991b81525060008483838382828282600390816200009e919062000214565b506004620000ad838262000214565b506005805460ff191660ff92909216919091179055505050506001600160a01b039182166080525093841660a0525050600880546001600160a01b0319169690921695909517905550620002e0945050505050565b6001600160a01b03811681146200011857600080fd5b50565b6000806000606084860312156200013157600080fd5b83516200013e8162000102565b6020850151909350620001518162000102565b6040850151909250620001648162000102565b809150509250925092565b634e487b7160e01b600052604160045260246000fd5b600181811c908216806200019a57607f821691505b602082108103620001bb57634e487b7160e01b600052602260045260246000fd5b50919050565b601f8211156200020f57600081815260208120601f850160051c81016020861015620001ea5750805b601f850160051c820191505b818110156200020b57828155600101620001f6565b5050505b505050565b81516001600160401b038111156200023057620002306200016f565b620002488162000241845462000185565b84620001c1565b602080601f831160018114620002805760008415620002675750858301515b600019600386901b1c1916600185901b1785556200020b565b600085815260208120601f198616915b82811015620002b15788860151825594840194600190910190840162000290565b5085821015620002d05787850151600019600388901b60f8161c191681555b5050505050600190811b01905550565b60805160a0516129a56200034560003960008181610209015281816104bb0152818161096201528181610a1001528181610b4801528181610d9401528181610fec015281816114aa015261179201526000818161042d0152610f1f01526129a56000f3fe6080604052600436106101fd5760003560e01c806370a082311161010d578063b09c980b116100a0578063d7020d0a1161006f578063d7020d0a14610665578063dd62ed3e14610685578063e0753986146106cb578063eb40133f14610701578063f866c3191461072157600080fd5b8063b09c980b146105da578063b1bf962d14610610578063bdaf59b514610625578063d443ca941461064557600080fd5b806395d89b41116100dc57806395d89b41146105705780639b1293a714610585578063a457c2d71461059a578063a9059cbb146105ba57600080fd5b806370a08231146104fd5780637158da7c1461051d578063876467f81461053b5780638e414a611461055b57600080fd5b80632fb12605116101905780634a4a7b041161015f5780634a4a7b041461041b5780634ac8eb5f14610467578063523fba7f1461047c578063660d0d67146104a95780636d75b9ee146104dd57600080fd5b80632fb1260514610399578063313ce567146103b9578063352f9aed146103db57806339509351146103fb57600080fd5b8063156e29f6116101cc578063156e29f61461031657806318160ddd146103365780631da24f3e1461035957806323b872dd1461037957600080fd5b806306fdde0314610266578063078d3b7914610291578063095ea7b3146102b15780630afbcdc9146102e157600080fd5b3661026157600061022d7f0000000000000000000000000000000000000000000000000000000000000000610741565b9050336001600160a01b0382161461025f5760405163738d28df60e11b81523360048201526024015b60405180910390fd5b005b600080fd5b34801561027257600080fd5b5061027b6107f4565b604051610288919061242b565b60405180910390f35b34801561029d57600080fd5b5061025f6102ac36600461245a565b610886565b3480156102bd57600080fd5b506102d16102cc36600461249b565b6108e6565b6040519015158152602001610288565b3480156102ed57600080fd5b506103016102fc3660046124c7565b6108fc565b60408051928352602083019190915201610288565b34801561032257600080fd5b5061025f6103313660046124e4565b610914565b34801561034257600080fd5b5061034b610937565b604051908152602001610288565b34801561036557600080fd5b5061034b6103743660046124c7565b61099d565b34801561038557600080fd5b506102d161039436600461245a565b6109a8565b3480156103a557600080fd5b5061025f6103b4366004612527565b6109f7565b3480156103c557600080fd5b5060055460405160ff9091168152602001610288565b3480156103e757600080fd5b5061034b6103f63660046124c7565b610a7b565b34801561040757600080fd5b506102d161041636600461249b565b610a9d565b34801561042757600080fd5b5061044f7f000000000000000000000000000000000000000000000000000000000000000081565b6040516001600160a01b039091168152602001610288565b34801561047357600080fd5b50600a5461034b565b34801561048857600080fd5b5061034b6104973660046124c7565b60076020526000908152604090205481565b3480156104b557600080fd5b5061044f7f000000000000000000000000000000000000000000000000000000000000000081565b3480156104e957600080fd5b5061025f6104f836600461249b565b610ad4565b34801561050957600080fd5b5061034b6105183660046124c7565b610b38565b34801561052957600080fd5b506008546001600160a01b031661044f565b34801561054757600080fd5b5061025f61055636600461249b565b610b85565b34801561056757600080fd5b5061025f610c40565b34801561057c57600080fd5b5061027b610c6a565b34801561059157600080fd5b5061034b610c79565b3480156105a657600080fd5b506102d16105b536600461249b565b610cff565b3480156105c657600080fd5b506102d16105d536600461249b565b610d36565b3480156105e657600080fd5b5061034b6105f53660046124c7565b6001600160a01b031660009081526009602052604090205490565b34801561061c57600080fd5b5061034b610d43565b34801561063157600080fd5b5061025f61064036600461249b565b610d4e565b34801561065157600080fd5b5061025f61066036600461249b565b610d7b565b34801561067157600080fd5b5061025f61068036600461257a565b610dc5565b34801561069157600080fd5b5061034b6106a03660046125c0565b6001600160a01b03918216600090815260026020908152604080832093909416825291909152205490565b3480156106d757600080fd5b5061034b6106e63660046124c7565b6001600160a01b031660009081526001602052604090205490565b34801561070d57600080fd5b5061034b61071c3660046124c7565b610e41565b34801561072d57600080fd5b5061025f61073c36600461245a565b610ee4565b6000816001600160a01b03166321f8a7216040516020016107799060208082526003908201526215d39560ea1b604082015260600190565b604051602081830303815290604052805190602001206040518263ffffffff1660e01b81526004016107ad91815260200190565b602060405180830381865afa1580156107ca573d6000803e3d6000fd5b505050506040513d601f19601f820116820180604052508101906107ee9190612604565b92915050565b60606003805461080390612621565b80601f016020809104026020016040519081016040528092919081815260200182805461082f90612621565b801561087c5780601f106108515761010080835404028352916020019161087c565b820191906000526020600020905b81548152906001019060200180831161085f57829003601f168201915b5050505050905090565b6108d66040516020016108989061265b565b604051602081830303815290604052805190602001206040518060400160405280600a81526020016921a7a72a2927a62622a960b11b815250610f03565b6108e1838383610fb3565b505050565b60006108f333848461101c565b50600192915050565b6000806109088361107d565b60065491509150915091565b6109266040516020016108989061265b565b610931838383611098565b50505050565b60008061094360065490565b90508060000361095557600091505090565b60085461099790610990907f0000000000000000000000000000000000000000000000000000000000000000906001600160a01b03166111c9565b82906112ad565b91505090565b60006107ee8261107d565b6001600160a01b03831660009081526002602090815260408083203380855292528220546109e29186916109dd908690612695565b61101c565b6109ed8484846112f1565b5060019392505050565b610a096040516020016108989061265b565b6000610a347f0000000000000000000000000000000000000000000000000000000000000000610741565b9050806001600160a01b0316856001600160a01b0316148015610a545750815b15610a6957610a64858585611471565b610a74565b610a74858585610fb3565b5050505050565b6000610a8f6040516020016108989061265b565b6107ee826114d1565b919050565b3360008181526002602090815260408083206001600160a01b038716845290915281205490916108f39185906109dd9086906126a8565b610ae66040516020016108989061265b565b6001600160a01b038216600090815260096020526040902054610b0a9082906126a8565b6001600160a01b038316600090815260096020526040902055600a54610b319082906126a8565b600a555050565b6008546000906107ee90610b76907f0000000000000000000000000000000000000000000000000000000000000000906001600160a01b03166111c9565b610b7f8461107d565b906112ad565b610b976040516020016108989061265b565b6001600160a01b038216600090815260096020526040902054811115610bf5576001600160a01b038216600090815260096020526040908190205490516307d2092d60e21b8152610256918391600401918252602082015260400190565b6001600160a01b038216600090815260096020526040902054610c19908290612695565b6001600160a01b038316600090815260096020526040902055600a54610b31908290612695565b610c526040516020016108989061265b565b600854610c67906001600160a01b031661157d565b50565b60606004805461080390612621565b6000610c84600a5490565b6008546040516370a0823160e01b81523060048201526001600160a01b03909116906370a0823190602401602060405180830381865afa158015610ccc573d6000803e3d6000fd5b505050506040513d601f19601f82011682018060405250810190610cf091906126bb565b610cfa9190612695565b905090565b3360008181526002602090815260408083206001600160a01b038716845290915281205490916108f39185906109dd908690612695565b60006108f33384846112f1565b6000610cfa60065490565b610d606040516020016108989061265b565b600854610d77906001600160a01b03168383610fb3565b5050565b610d8d6040516020016108989061265b565b6000610db87f0000000000000000000000000000000000000000000000000000000000000000610741565b90506108e1818484611471565b610dd76040516020016108989061265b565b610de3848484846115ae565b6001600160a01b0383163014610931576000610dfd610c79565b905080831115610e2a5760405163fe3c3a7360e01b81526004810184905260248101829052604401610256565b600854610a74906001600160a01b03168585610fb3565b6000610e556040516020016108989061265b565b6040516370a0823160e01b81523060048201526000906001600160a01b038416906370a08231906024015b602060405180830381865afa158015610e9d573d6000803e3d6000fd5b505050506040513d601f19601f82011682018060405250810190610ec191906126bb565b6001600160a01b0384166000908152600760205260409020819055915050919050565b610ef66040516020016108989061265b565b6108e18383836000611786565b60405163ac4ab3fb60e01b8152336004820152602481018390527f00000000000000000000000000000000000000000000000000000000000000006001600160a01b03169063ac4ab3fb90604401602060405180830381865afa158015610f6e573d6000803e3d6000fd5b505050506040513d601f19601f82011682018060405250810190610f9291906126d4565b610d7757338160405163a35b150b60e01b81526004016102569291906126f1565b306001600160a01b03831603610fe757604051637387c8a960e11b81526001600160a01b0383166004820152602401610256565b6110137f0000000000000000000000000000000000000000000000000000000000000000848484611825565b6108e183611a79565b6001600160a01b0383811660008181526002602090815260408083209487168084529482529182902085905590518481527f8c5be1e5ebec7d5bd14f71427d1e84f3dd0314c0f7b2291e5b200ac8c7c3b925910160405180910390a3505050565b6001600160a01b031660009081526020819052604090205490565b6000806110a58484611afd565b9050806000036110c8576040516375cf720960e01b815260040160405180910390fd5b60006110d38661107d565b6001600160a01b038716600090815260016020526040812054919250906110fb9083906112ad565b61110583876112ad565b61110f9190612695565b6001600160a01b038816600090815260016020526040902086905590506111368784611b3c565b600061114282886126a8565b9050876001600160a01b031660006001600160a01b03166000805160206129508339815191528360405161117891815260200190565b60405180910390a360408051828152602081018490529081018790526001600160a01b038916906000906000805160206129308339815191529060600160405180910390a350501595945050505050565b60405163a8d8fff560e01b81526001600160a01b03808416600483015282166024820152600090819073__$e0022d6f389ac14ff1ce1dc57a4018d0a3$__9063a8d8fff5906044016101c060405180830381865af415801561122f573d6000803e3d6000fd5b505050506040513d601f19601f820116820180604052508101906112539190612755565b905061125f8184611bdb565b42816101a0015103611276576020015190506107ee565b600061128b8260400151836101a00151611c11565b90506112a48260200151826112ad90919063ffffffff16565b925050506107ee565b600081156b019d971e4fe8401e7400000019839004841115176112cf57600080fd5b506b033b2e3c9fd0803ce800000091026b019d971e4fe8401e74000000010490565b6001600160a01b03831661135a5760405162461bcd60e51b815260206004820152602a60248201527f496e64657845524332303a207472616e736665722066726f6d20746865207a65604482015269726f206164647265737360b01b6064820152608401610256565b6001600160a01b0382166113c15760405162461bcd60e51b815260206004820152602860248201527f496e64657845524332303a207472616e7366657220746f20746865207a65726f604482015267206164647265737360c01b6064820152608401610256565b6001600160a01b0383166000908152602081905260409020548181101561143e5760405162461bcd60e51b815260206004820152602b60248201527f496e64657845524332303a207472616e7366657220616d6f756e74206578636560448201526a6564732062616c616e636560a81b6064820152608401610256565b6001600160a01b039384166000908152602081905260408082209284900390925592909316825291902080549091019055565b306001600160a01b038316036114a557604051637387c8a960e11b81526001600160a01b0383166004820152602401610256565b6110137f0000000000000000000000000000000000000000000000000000000000000000848484611c47565b6001600160a01b0381166000818152600760205260408082205490516370a0823160e01b8152306004820152919290918391906370a0823190602401602060405180830381865afa15801561152a573d6000803e3d6000fd5b505050506040513d601f19601f8201168201806040525081019061154e91906126bb565b6001600160a01b038516600090815260076020526040902081905590506115758282612695565b949350505050565b6040516370a0823160e01b815230600482015260009081906001600160a01b038416906370a0823190602401610e80565b60006115ba8383611afd565b9050806000036115dd57604051631f175bfb60e31b815260040160405180910390fd5b60006115e88661107d565b6001600160a01b038716600090815260016020526040812054919250906116109083906112ad565b61161a83866112ad565b6116249190612695565b6001600160a01b0388166000908152600160205260409020859055905061164b8784611da7565b848111156116df57600061165f8683612695565b9050876001600160a01b031660006001600160a01b03166000805160206129508339815191528360405161169591815260200190565b60405180910390a360408051828152602081018490529081018690526001600160a01b0389169081906000805160206129308339815191529060600160405180910390a35061177d565b60006116eb8287612695565b905060006001600160a01b0316886001600160a01b03166000805160206129508339815191528360405161172191815260200190565b60405180910390a360408051828152602081018490529081018690526001600160a01b0380891691908a16907f4cf25bc1d991c17529c25213d3cc0cda295eeaad5f13f361969b12ea48015f90906060015b60405180910390a3505b50505050505050565b6008546000906117c0907f0000000000000000000000000000000000000000000000000000000000000000906001600160a01b03166111c9565b90506117ce85858584611eb7565b6001600160a01b038085169086167f4beccb90f994c31aced7a23b5611020728a23d8ec5cddd1a3e9d97b96fda86666118078685611afd565b60408051918252602082018690520160405180910390a35050505050565b801561093157611834826120b9565b6000846001600160a01b031663bd02d0f561184e866120e0565b6040518263ffffffff1660e01b815260040161186c91815260200190565b602060405180830381865afa158015611889573d6000803e3d6000fd5b505050506040513d601f19601f820116820180604052508101906118ad91906126bb565b9050806000036118db57604051634fe14bfd60e11b81526001600160a01b0385166004820152602401610256565b6000806118ea8686868661216d565b9150915081156118fc57505050610931565b6000876001600160a01b03166321f8a721604051602001611940906020808252600f908201526e484f4c44494e475f4144445245535360881b604082015260600190565b604051602081830303815290604052805190602001206040518263ffffffff1660e01b815260040161197491815260200190565b602060405180830381865afa158015611991573d6000803e3d6000fd5b505050506040513d601f19601f820116820180604052508101906119b59190612604565b90506001600160a01b0381166119de57604051633a6de2f560e21b815260040160405180910390fd5b60006119ec8883888861216d565b50905080156119ff575050505050610931565b6000611a0a846122c8565b5090507fc9f14d9a0a9b46470c7c0b6c508f8283abaab7f795f153953c58cd4250824dae8185604051611a3e929190612821565b60405180910390a160405163012f3b8f60e71b81526001600160a01b03808b1660048301528916602482015260448101889052606401610256565b6040516370a0823160e01b81523060048201526001600160a01b038216906370a0823190602401602060405180830381865afa158015611abd573d6000803e3d6000fd5b505050506040513d601f19601f82011682018060405250810190611ae191906126bb565b6001600160a01b03909116600090815260076020526040902055565b600081156b033b2e3c9fd0803ce800000060028404190484111715611b2157600080fd5b506b033b2e3c9fd0803ce80000009190910260028204010490565b6001600160a01b038216611ba25760405162461bcd60e51b815260206004820152602760248201527f4d696e7461626c6545524332303a206d696e7420746f20746865207a65726f206044820152666164647265737360c81b6064820152608401610256565b8060066000828254611bb491906126a8565b90915550506001600160a01b03909116600090815260208190526040902080549091019055565b60e08201516001600160a01b0316610d7757604051631a8d3e6360e21b81526001600160a01b0382166004820152602401610256565b600080611c1e8342612695565b611c28908561284f565b6301e1338090049050611575816b033b2e3c9fd0803ce80000006126a8565b801561093157611c56826120b9565b604051632e1a7d4d60e01b8152600481018290526001600160a01b03841690632e1a7d4d90602401600060405180830381600087803b158015611c9857600080fd5b505af1158015611cac573d6000803e3d6000fd5b505050506000846001600160a01b031663bd02d0f5604051602001611d02906020808252601f908201527f4e41544956455f544f4b454e5f5452414e534645525f4741535f4c494d495400604082015260600190565b604051602081830303815290604052805190602001206040518263ffffffff1660e01b8152600401611d3691815260200190565b602060405180830381865afa158015611d53573d6000803e3d6000fd5b505050506040513d601f19601f82011682018060405250810190611d7791906126bb565b90506000806000806000868887f190508015611d94575050610931565b611d9f868585612358565b505050505050565b6001600160a01b038216611e0f5760405162461bcd60e51b815260206004820152602960248201527f4d696e7461626c6545524332303a206275726e2066726f6d20746865207a65726044820152686f206164647265737360b81b6064820152608401610256565b6001600160a01b03821660009081526020819052604090205481811015611e8b5760405162461bcd60e51b815260206004820152602a60248201527f4d696e7461626c6545524332303a206275726e20616d6f756e7420657863656560448201526964732062616c616e636560b01b6064820152608401610256565b6001600160a01b0390921660009081526020819052604090209181900390915560068054919091039055565b6000611ec28561107d565b6001600160a01b03861660009081526001602052604081205491925090611eea9083906112ad565b611ef483856112ad565b611efe9190612695565b90506000611f0b8661107d565b6001600160a01b03871660009081526001602052604081205491925090611f339083906112ad565b611f3d83876112ad565b611f479190612695565b6001600160a01b03808a16600090815260016020526040808220899055918a168152208690559050611f838888611f7e8989611afd565b6112f1565b8215611ff4576040518381526001600160a01b038916906000906000805160206129508339815191529060200160405180910390a3604080518481526020810185905280820187905290516001600160a01b038a169133916000805160206129308339815191529181900360600190a35b866001600160a01b0316886001600160a01b0316141580156120165750600081115b15612086576040518181526001600160a01b038816906000906000805160206129508339815191529060200160405180910390a3604080518281526020810183905280820187905290516001600160a01b0389169133916000805160206129308339815191529181900360600190a35b866001600160a01b0316886001600160a01b03166000805160206129508339815191528860405161177391815260200190565b6001600160a01b038116610c675760405163d551823d60e01b815260040160405180910390fd5b60006040516020016121239060208082526018908201527f544f4b454e5f5452414e534645525f4741535f4c494d49540000000000000000604082015260600190565b60408051601f198184030181528282528051602091820120908301526001600160a01b03841690820152606001604051602081830303815290604052805190602001209050919050565b604080516001600160a01b038581166024830152604480830186905283518084039091018152606490920183526020820180516001600160e01b031663a9059cbb60e01b17905291516000926060929184918291908a169087906121d2908690612866565b60006040518083038160008787f1925050503d8060008114612210576040519150601f19603f3d011682016040523d82523d6000602084013e612215565b606091505b509150915081156122b6578051600003612273576001600160a01b0389163b6122735760006040518060400160405280601481526020017310d85b1b081d1bc81b9bdb8b58dbdb9d1c9858dd60621b815250945094505050506122bf565b6000815111801561229557508080602001905181019061229391906126d4565b155b156122a8576000945092506122bf915050565b6001945092506122bf915050565b60009450925050505b94509492505050565b606060006044835110156122ef575050604080516020810190915260008082529092909150565b60006122fc846020015190565b90506307b9e43360e51b6001600160e01b031982160161233b57600484019350838060200190518101906123309190612882565b946001945092505050565b600060405180602001604052806000815250909250925050915091565b8060000361236557505050565b61236e826120b9565b600061237984610741565b9050806001600160a01b031663d0e30db0836040518263ffffffff1660e01b81526004016000604051808303818588803b1580156123b657600080fd5b505af11580156123ca573d6000803e3d6000fd5b505050505061093184828585611825565b60005b838110156123f65781810151838201526020016123de565b50506000910152565b600081518084526124178160208601602086016123db565b601f01601f19169290920160200192915050565b60208152600061243e60208301846123ff565b9392505050565b6001600160a01b0381168114610c6757600080fd5b60008060006060848603121561246f57600080fd5b833561247a81612445565b9250602084013561248a81612445565b929592945050506040919091013590565b600080604083850312156124ae57600080fd5b82356124b981612445565b946020939093013593505050565b6000602082840312156124d957600080fd5b813561243e81612445565b6000806000606084860312156124f957600080fd5b833561250481612445565b95602085013595506040909401359392505050565b8015158114610c6757600080fd5b6000806000806080858703121561253d57600080fd5b843561254881612445565b9350602085013561255881612445565b925060408501359150606085013561256f81612519565b939692955090935050565b6000806000806080858703121561259057600080fd5b843561259b81612445565b935060208501356125ab81612445565b93969395505050506040820135916060013590565b600080604083850312156125d357600080fd5b82356125de81612445565b915060208301356125ee81612445565b809150509250929050565b8051610a9881612445565b60006020828403121561261657600080fd5b815161243e81612445565b600181811c9082168061263557607f821691505b60208210810361265557634e487b7160e01b600052602260045260246000fd5b50919050565b6020808252600a908201526921a7a72a2927a62622a960b11b604082015260600190565b634e487b7160e01b600052601160045260246000fd5b818103818111156107ee576107ee61267f565b808201808211156107ee576107ee61267f565b6000602082840312156126cd57600080fd5b5051919050565b6000602082840312156126e657600080fd5b815161243e81612519565b6001600160a01b0383168152604060208201819052600090611575908301846123ff565b634e487b7160e01b600052604160045260246000fd5b6040516101c0810167ffffffffffffffff8111828210171561274f5761274f612715565b60405290565b60006101c0828403121561276857600080fd5b61277061272b565b82518152602083015160208201526040830151604082015260608301516060820152608083015160808201526127a860a084016125f9565b60a08201526127b960c084016125f9565b60c08201526127ca60e084016125f9565b60e08201526101006127dd8185016125f9565b9082015261012083810151908201526101408084015190820152610160808401519082015261018080840151908201526101a0928301519281019290925250919050565b60408152600061283460408301856123ff565b828103602084015261284681856123ff565b95945050505050565b80820281158282048414176107ee576107ee61267f565b600082516128788184602087016123db565b9190910192915050565b60006020828403121561289457600080fd5b815167ffffffffffffffff808211156128ac57600080fd5b818401915084601f8301126128c057600080fd5b8151818111156128d2576128d2612715565b604051601f8201601f19908116603f011681019083821181831017156128fa576128fa612715565b8160405282815287602084870101111561291357600080fd5b6129248360208301602088016123db565b97965050505050505056fe458f5fa412d0f69b08dd84872b0215675cc67bc1d5b6fd93300a1c3878b86196ddf252ad1be2c89b69c2b068fc378daa952ba7f163c4a11628f55a4df523b3efa264697066735822122012b47a265f309ccf328c9609566848b620e8b8f8ca58e9e9b585bcb1497a8d7064736f6c6343000814003360c06040523480156200001157600080fd5b50604051620013d0380380620013d0833981016040819052620000349162000102565b604080518082018252600d8082526c2aa32fa222a12a2faa27a5a2a760991b60208084018290528451808601909552918452908301526001600160a01b03851660805290600082828282828260036200008e8482620001fb565b5060046200009d8382620001fb565b506005805460ff191660ff92909216919091179055505050506001600160a01b0395861660a0525050600780546001600160a01b031916939094169290921790925550620002c7915050565b6001600160a01b0381168114620000ff57600080fd5b50565b6000806000606084860312156200011857600080fd5b83516200012581620000e9565b60208501519093506200013881620000e9565b60408501519092506200014b81620000e9565b809150509250925092565b634e487b7160e01b600052604160045260246000fd5b600181811c908216806200018157607f821691505b602082108103620001a257634e487b7160e01b600052602260045260246000fd5b50919050565b601f821115620001f657600081815260208120601f850160051c81016020861015620001d15750805b601f850160051c820191505b81811015620001f257828155600101620001dd565b5050505b505050565b81516001600160401b0381111562000217576200021762000156565b6200022f816200022884546200016c565b84620001a8565b602080601f8311600181146200026757600084156200024e5750858301515b600019600386901b1c1916600185901b178555620001f2565b600085815260208120601f198616915b82811015620002985788860151825594840194600190910190840162000277565b5085821015620002b75787850151600019600388901b60f8161c191681555b5050505050600190811b01905550565b60805160a0516110ce620003026000396000818161026e01528181610477015261050901526000818161022f01526105c901526110ce6000f3fe608060405234801561001057600080fd5b506004361061012c5760003560e01c8063660d0d67116100ad578063a9059cbb11610071578063a9059cbb1461014f578063b1bf962d146102bc578063dd62ed3e146102c4578063e0753986146102d2578063f5298aca146102fb57600080fd5b8063660d0d671461026957806370a08231146102905780637158da7c146102a357806395d89b41146102b4578063a457c2d71461014f57600080fd5b80631da24f3e116100f45780631da24f3e146101f457806323b872dd14610207578063313ce56714610215578063395093511461014f5780634a4a7b041461022a57600080fd5b806306fdde0314610131578063095ea7b31461014f5780630afbcdc914610172578063156e29f6146101b457806318160ddd146101de575b600080fd5b61013961030e565b6040516101469190610d8e565b60405180910390f35b61016261015d366004610db9565b6103a0565b6040519015158152602001610146565b61019f610180366004610de5565b6001600160a01b03166000908152602081905260409020546006549091565b60408051928352602083019190915201610146565b6101c76101c2366004610e02565b6103bb565b604080519215158352602083019190915201610146565b6101e661044c565b604051908152602001610146565b6101e6610202366004610de5565b6104b2565b61016261015d366004610e37565b60055460405160ff9091168152602001610146565b6102517f000000000000000000000000000000000000000000000000000000000000000081565b6040516001600160a01b039091168152602001610146565b6102517f000000000000000000000000000000000000000000000000000000000000000081565b6101e661029e366004610de5565b6104d2565b6007546001600160a01b0316610251565b61013961053e565b6101e661054d565b6101e661015d366004610e78565b6101e66102e0366004610de5565b6001600160a01b031660009081526001602052604090205490565b6101e6610309366004610e02565b61055d565b60606003805461031d90610eb1565b80601f016020809104026020016040519081016040528092919081815260200182805461034990610eb1565b80156103965780601f1061036b57610100808354040283529160200191610396565b820191906000526020600020905b81548152906001019060200180831161037957829003601f168201915b5050505050905090565b6000604051633a25914560e21b815260040160405180910390fd5b60008061042d6040516020016103ef906020808252600a908201526921a7a72a2927a62622a960b11b604082015260600190565b604051602081830303815290604052805190602001206040518060400160405280600a81526020016921a7a72a2927a62622a960b11b8152506105ad565b61043885858561066a565b61044061054d565b91509150935093915050565b60008061045860065490565b90508060000361046a57600091505090565b6007546104ac906104a5907f0000000000000000000000000000000000000000000000000000000000000000906001600160a01b03166107bc565b82906108a0565b91505090565b6001600160a01b0381166000908152602081905260408120545b92915050565b6001600160a01b038116600090815260208190526040812054806000036104fc5750600092915050565b600754610537906104a5907f0000000000000000000000000000000000000000000000000000000000000000906001600160a01b03166107bc565b9392505050565b60606004805461031d90610eb1565b600061055860065490565b905090565b60006105906040516020016103ef906020808252600a908201526921a7a72a2927a62622a960b11b604082015260600190565b61059d84600085856108e4565b6105a561054d565b949350505050565b60405163ac4ab3fb60e01b8152336004820152602481018390527f00000000000000000000000000000000000000000000000000000000000000006001600160a01b03169063ac4ab3fb90604401602060405180830381865afa158015610618573d6000803e3d6000fd5b505050506040513d601f19601f8201168201806040525081019061063c9190610eeb565b61066657338160405163a35b150b60e01b815260040161065d929190610f0d565b60405180910390fd5b5050565b6000806106778484610aee565b90508060000361069a576040516375cf720960e01b815260040160405180910390fd5b6001600160a01b0385166000908152602081815260408083205460019092528220549091906106ca9083906108a0565b6106d483876108a0565b6106de9190610f47565b6001600160a01b038816600090815260016020526040902086905590506107058784610b2d565b60006107118288610f5a565b9050876001600160a01b031660006001600160a01b03167fddf252ad1be2c89b69c2b068fc378daa952ba7f163c4a11628f55a4df523b3ef8360405161075991815260200190565b60405180910390a360408051828152602081018490529081018790526001600160a01b038916906000907f458f5fa412d0f69b08dd84872b0215675cc67bc1d5b6fd93300a1c3878b861969060600160405180910390a350501595945050505050565b60405163a8d8fff560e01b81526001600160a01b03808416600483015282166024820152600090819073__$e0022d6f389ac14ff1ce1dc57a4018d0a3$__9063a8d8fff5906044016101c060405180830381865af4158015610822573d6000803e3d6000fd5b505050506040513d601f19601f820116820180604052508101906108469190610fb5565b90506108528184610bcc565b42816101a0015103610869576060015190506104cc565b600061087e8260800151836101a00151610c02565b90506108978260600151826108a090919063ffffffff16565b95945050505050565b600081156b019d971e4fe8401e7400000019839004841115176108c257600080fd5b506b033b2e3c9fd0803ce800000091026b019d971e4fe8401e74000000010490565b60006108f08383610aee565b90508060000361091357604051631f175bfb60e31b815260040160405180910390fd5b6001600160a01b0385166000908152602081815260408083205460019092528220549091906109439083906108a0565b61094d83866108a0565b6109579190610f47565b6001600160a01b0388166000908152600160205260409020859055905061097e8784610c38565b84811115610a365760006109928683610f47565b9050876001600160a01b031660006001600160a01b03167fddf252ad1be2c89b69c2b068fc378daa952ba7f163c4a11628f55a4df523b3ef836040516109da91815260200190565b60405180910390a360408051828152602081018490529081018690526001600160a01b0389169081907f458f5fa412d0f69b08dd84872b0215675cc67bc1d5b6fd93300a1c3878b861969060600160405180910390a350610ae5565b6000610a428287610f47565b905060006001600160a01b0316886001600160a01b03167fddf252ad1be2c89b69c2b068fc378daa952ba7f163c4a11628f55a4df523b3ef83604051610a8a91815260200190565b60405180910390a360408051828152602081018490529081018690526001600160a01b0380891691908a16907f4cf25bc1d991c17529c25213d3cc0cda295eeaad5f13f361969b12ea48015f909060600160405180910390a3505b50505050505050565b600081156b033b2e3c9fd0803ce800000060028404190484111715610b1257600080fd5b506b033b2e3c9fd0803ce80000009190910260028204010490565b6001600160a01b038216610b935760405162461bcd60e51b815260206004820152602760248201527f4d696e7461626c6545524332303a206d696e7420746f20746865207a65726f206044820152666164647265737360c81b606482015260840161065d565b8060066000828254610ba59190610f5a565b90915550506001600160a01b03909116600090815260208190526040902080549091019055565b60e08201516001600160a01b031661066657604051631a8d3e6360e21b81526001600160a01b038216600482015260240161065d565b600080610c0f8342610f47565b610c199085611081565b6301e13380900490506105a5816b033b2e3c9fd0803ce8000000610f5a565b6001600160a01b038216610ca05760405162461bcd60e51b815260206004820152602960248201527f4d696e7461626c6545524332303a206275726e2066726f6d20746865207a65726044820152686f206164647265737360b81b606482015260840161065d565b6001600160a01b03821660009081526020819052604090205481811015610d1c5760405162461bcd60e51b815260206004820152602a60248201527f4d696e7461626c6545524332303a206275726e20616d6f756e7420657863656560448201526964732062616c616e636560b01b606482015260840161065d565b6001600160a01b0390921660009081526020819052604090209181900390915560068054919091039055565b6000815180845260005b81811015610d6e57602081850181015186830182015201610d52565b506000602082860101526020601f19601f83011685010191505092915050565b6020815260006105376020830184610d48565b6001600160a01b0381168114610db657600080fd5b50565b60008060408385031215610dcc57600080fd5b8235610dd781610da1565b946020939093013593505050565b600060208284031215610df757600080fd5b813561053781610da1565b600080600060608486031215610e1757600080fd5b8335610e2281610da1565b95602085013595506040909401359392505050565b600080600060608486031215610e4c57600080fd5b8335610e5781610da1565b92506020840135610e6781610da1565b929592945050506040919091013590565b60008060408385031215610e8b57600080fd5b8235610e9681610da1565b91506020830135610ea681610da1565b809150509250929050565b600181811c90821680610ec557607f821691505b602082108103610ee557634e487b7160e01b600052602260045260246000fd5b50919050565b600060208284031215610efd57600080fd5b8151801515811461053757600080fd5b6001600160a01b03831681526040602082018190526000906105a590830184610d48565b634e487b7160e01b600052601160045260246000fd5b818103818111156104cc576104cc610f31565b808201808211156104cc576104cc610f31565b6040516101c0810167ffffffffffffffff81118282101715610f9f57634e487b7160e01b600052604160045260246000fd5b60405290565b8051610fb081610da1565b919050565b60006101c08284031215610fc857600080fd5b610fd0610f6d565b825181526020830151602082015260408301516040820152606083015160608201526080830151608082015261100860a08401610fa5565b60a082015261101960c08401610fa5565b60c082015261102a60e08401610fa5565b60e082015261010061103d818501610fa5565b9082015261012083810151908201526101408084015190820152610160808401519082015261018080840151908201526101a0928301519281019290925250919050565b80820281158282048414176104cc576104cc610f3156fea2646970667358221220c3f3df02ba01ebace3e6c6e5d0a76d7421f1ec14d41a7d42b90309cd08eaff2f64736f6c63430008140033a26469706673582212204464543cb3889429b07e1df9bc6e67de71b8cc580d24d1afaf6ffb3c8eef40e464736f6c63430008140033",
  "linkReferences": {
    "contracts/pool/PoolStoreUtils.sol": {
      "PoolStoreUtils": [
        {
          "length": 20,
          "start": 794
        },
        {
          "length": 20,
          "start": 1342
        },
        {
          "length": 20,
          "start": 1598
        },
        {
          "length": 20,
          "start": 8170
        },
        {
          "length": 20,
          "start": 17028
        }
      ]
    }
  },
  "deployedLinkReferences": {
    "contracts/pool/PoolStoreUtils.sol": {
      "PoolStoreUtils": [
        {
          "length": 20,
          "start": 551
        },
        {
          "length": 20,
          "start": 1099
        },
        {
          "length": 20,
          "start": 1355
        },
        {
          "length": 20,
          "start": 7927
        },
        {
          "length": 20,
          "start": 16785
        }
      ]
    }
  }
}