{
  "_format": "hh-sol-artifact-1",
  "contractName": "PoolInterestRateStrategy",
  "sourceName": "contracts/interest/PoolInterestRateStrategy.sol",
  "abi": [
    {
      "inputs": [
        {
          "internalType": "uint256",
          "name": "optimalUsageRatio",
          "type": "uint256"
        },
        {
          "internalType": "uint256",
          "name": "rateSlope1",
          "type": "uint256"
        },
        {
          "internalType": "uint256",
          "name": "rateSlope2",
          "type": "uint256"
        }
      ],
      "stateMutability": "nonpayable",
      "type": "constructor"
    },
    {
      "inputs": [
        {
          "internalType": "uint256",
          "name": "optimalUsageRatio",
          "type": "uint256"
        }
      ],
      "name": "InvalidOptimalUsageRate",
      "type": "error"
    },
    {
      "inputs": [],
      "name": "MAX_EXCESS_USAGE_RATIO",
      "outputs": [
        {
          "internalType": "uint256",
          "name": "",
          "type": "uint256"
        }
      ],
      "stateMutability": "view",
      "type": "function"
    },
    {
      "inputs": [],
      "name": "OPTIMAL_USAGE_RATIO",
      "outputs": [
        {
          "internalType": "uint256",
          "name": "",
          "type": "uint256"
        }
      ],
      "stateMutability": "view",
      "type": "function"
    },
    {
      "inputs": [
        {
          "components": [
            {
              "internalType": "uint256",
              "name": "liquidityIn",
              "type": "uint256"
            },
            {
              "internalType": "uint256",
              "name": "liquidityOut",
              "type": "uint256"
            },
            {
              "internalType": "uint256",
              "name": "totalDebt",
              "type": "uint256"
            },
            {
              "internalType": "uint256",
              "name": "feeFactor",
              "type": "uint256"
            },
            {
              "internalType": "address",
              "name": "underlyingAsset",
              "type": "address"
            },
            {
              "internalType": "address",
              "name": "poolToken",
              "type": "address"
            }
          ],
          "internalType": "struct InterestUtils.CalculateInterestRatesParams",
          "name": "params",
          "type": "tuple"
        }
      ],
      "name": "calculateInterestRates",
      "outputs": [
        {
          "internalType": "uint256",
          "name": "",
          "type": "uint256"
        },
        {
          "internalType": "uint256",
          "name": "",
          "type": "uint256"
        }
      ],
      "stateMutability": "view",
      "type": "function"
    },
    {
      "inputs": [],
      "name": "getRateSlope1",
      "outputs": [
        {
          "internalType": "uint256",
          "name": "",
          "type": "uint256"
        }
      ],
      "stateMutability": "view",
      "type": "function"
    },
    {
      "inputs": [],
      "name": "getRateSlope2",
      "outputs": [
        {
          "internalType": "uint256",
          "name": "",
          "type": "uint256"
        }
      ],
      "stateMutability": "view",
      "type": "function"
    }
  ],
  "bytecode": "0x61010060405234801561001157600080fd5b5060405161078a38038061078a83398101604081905261003091610091565b826b033b2e3c9fd0803ce8000000101561006457604051635c86f9f960e11b81526004810184905260240160405180910390fd5b608083905261007f836b033b2e3c9fd0803ce80000006100bf565b60a05260c09190915260e052506100e6565b6000806000606084860312156100a657600080fd5b8351925060208401519150604084015190509250925092565b818103818111156100e057634e487b7160e01b600052601160045260246000fd5b92915050565b60805160a05160c05160e05161063e61014c6000396000818160ba0152610337015260008181605e0152818161036201526103cf01526000818160e301526102db0152600081816096015281816102aa015281816102fc01526103a6015261063e6000f3fe608060405234801561001057600080fd5b50600436106100575760003560e01c80632dd9037b1461005c57806354c365c61461009157806375005bb0146100b8578063a9c622f8146100de578063ada40b9814610105575b600080fd5b7f00000000000000000000000000000000000000000000000000000000000000005b6040519081526020015b60405180910390f35b61007e7f000000000000000000000000000000000000000000000000000000000000000081565b7f000000000000000000000000000000000000000000000000000000000000000061007e565b61007e7f000000000000000000000000000000000000000000000000000000000000000081565b61011861011336600461051a565b61012d565b60408051928352602083019190915201610088565b6000806101696040518060c001604052806000815260200160008152602001600081526020016000815260200160008152602001600081525090565b604084015160208201819052156102a857836020015184600001518560a001516001600160a01b0316634ac8eb5f6040518163ffffffff1660e01b8152600401602060405180830381865afa1580156101c6573d6000803e3d6000fd5b505050506040513d601f19601f820116820180604052508101906101ea91906105ad565b608087015160a08801516040516370a0823160e01b81526001600160a01b0391821660048201529116906370a0823190602401602060405180830381865afa15801561023a573d6000803e3d6000fd5b505050506040513d601f19601f8201168201806040525081019061025e91906105ad565b61026891906105dc565b61027291906105f5565b61027c91906105dc565b808252602082015161028d916105f5565b60a0820181905260208201516102a291610455565b60808201525b7f0000000000000000000000000000000000000000000000000000000000000000816080015111156103a15760006103307f00000000000000000000000000000000000000000000000000000000000000007f0000000000000000000000000000000000000000000000000000000000000000846080015161032a91906105dc565b90610455565b905061035c7f000000000000000000000000000000000000000000000000000000000000000082610494565b610386907f00000000000000000000000000000000000000000000000000000000000000006105f5565b8260400181815161039791906105f5565b9052506104119050565b6103fc7f000000000000000000000000000000000000000000000000000000000000000061032a83608001517f000000000000000000000000000000000000000000000000000000000000000061049490919063ffffffff16565b8160400181815161040d91906105f5565b9052505b6020810151156104415761043b846060015161271061043091906105dc565b6080830151906104d8565b60608201525b806060015181604001519250925050915091565b600081156b033b2e3c9fd0803ce80000006002840419048411171561047957600080fd5b506b033b2e3c9fd0803ce80000009190910260028204010490565b600081156b019d971e4fe8401e7400000019839004841115176104b657600080fd5b506b033b2e3c9fd0803ce800000091026b019d971e4fe8401e74000000010490565b6000811561138819839004841115176104f057600080fd5b506127109102611388010490565b80356001600160a01b038116811461051557600080fd5b919050565b600060c0828403121561052c57600080fd5b60405160c0810181811067ffffffffffffffff8211171561055d57634e487b7160e01b600052604160045260246000fd5b806040525082358152602083013560208201526040830135604082015260608301356060820152610590608084016104fe565b60808201526105a160a084016104fe565b60a08201529392505050565b6000602082840312156105bf57600080fd5b5051919050565b634e487b7160e01b600052601160045260246000fd5b818103818111156105ef576105ef6105c6565b92915050565b808201808211156105ef576105ef6105c656fea26469706673582212202efcc7a35a946162a58728640e7f710f907e2a3eade96f69c873725dda72684164736f6c63430008140033",
  "linkReferences": {},
  "deployedLinkReferences": {}
}