{
  "_format": "hh-sol-artifact-1",
  "contractName": "PoolStoreUtils",
  "sourceName": "contracts/pool/PoolStoreUtils.sol",
  "abi": [
    {
      "inputs": [
        {
          "internalType": "address",
          "name": "key",
          "type": "address"
        }
      ],
      "name": "PoolNotFound",
      "type": "error"
    },
    {
      "inputs": [],
      "name": "POOL_BORROW_INDEX",
      "outputs": [
        {
          "internalType": "bytes32",
          "name": "",
          "type": "bytes32"
        }
      ],
      "stateMutability": "view",
      "type": "function"
    },
    {
      "inputs": [],
      "name": "POOL_BORROW_RATE",
      "outputs": [
        {
          "internalType": "bytes32",
          "name": "",
          "type": "bytes32"
        }
      ],
      "stateMutability": "view",
      "type": "function"
    },
    {
      "inputs": [],
      "name": "POOL_CONFIGRATION",
      "outputs": [
        {
          "internalType": "bytes32",
          "name": "",
          "type": "bytes32"
        }
      ],
      "stateMutability": "view",
      "type": "function"
    },
    {
      "inputs": [],
      "name": "POOL_DEBT_TOKEN",
      "outputs": [
        {
          "internalType": "bytes32",
          "name": "",
          "type": "bytes32"
        }
      ],
      "stateMutability": "view",
      "type": "function"
    },
    {
      "inputs": [],
      "name": "POOL_FEE_FACTOR",
      "outputs": [
        {
          "internalType": "bytes32",
          "name": "",
          "type": "bytes32"
        }
      ],
      "stateMutability": "view",
      "type": "function"
    },
    {
      "inputs": [],
      "name": "POOL_INTEREST_RATE_STRATEGY",
      "outputs": [
        {
          "internalType": "bytes32",
          "name": "",
          "type": "bytes32"
        }
      ],
      "stateMutability": "view",
      "type": "function"
    },
    {
      "inputs": [],
      "name": "POOL_KEY_ID",
      "outputs": [
        {
          "internalType": "bytes32",
          "name": "",
          "type": "bytes32"
        }
      ],
      "stateMutability": "view",
      "type": "function"
    },
    {
      "inputs": [],
      "name": "POOL_LAST_UPDATE_TIME_STAMP",
      "outputs": [
        {
          "internalType": "bytes32",
          "name": "",
          "type": "bytes32"
        }
      ],
      "stateMutability": "view",
      "type": "function"
    },
    {
      "inputs": [],
      "name": "POOL_LIQUIDITY_INDEX",
      "outputs": [
        {
          "internalType": "bytes32",
          "name": "",
          "type": "bytes32"
        }
      ],
      "stateMutability": "view",
      "type": "function"
    },
    {
      "inputs": [],
      "name": "POOL_LIQUIDITY_RATE",
      "outputs": [
        {
          "internalType": "bytes32",
          "name": "",
          "type": "bytes32"
        }
      ],
      "stateMutability": "view",
      "type": "function"
    },
    {
      "inputs": [],
      "name": "POOL_TOKEN",
      "outputs": [
        {
          "internalType": "bytes32",
          "name": "",
          "type": "bytes32"
        }
      ],
      "stateMutability": "view",
      "type": "function"
    },
    {
      "inputs": [],
      "name": "POOL_TOTAL_FEE",
      "outputs": [
        {
          "internalType": "bytes32",
          "name": "",
          "type": "bytes32"
        }
      ],
      "stateMutability": "view",
      "type": "function"
    },
    {
      "inputs": [],
      "name": "POOL_UNCLAIMED_FEE",
      "outputs": [
        {
          "internalType": "bytes32",
          "name": "",
          "type": "bytes32"
        }
      ],
      "stateMutability": "view",
      "type": "function"
    },
    {
      "inputs": [],
      "name": "POOL_UNDERLYING_TOKEN",
      "outputs": [
        {
          "internalType": "bytes32",
          "name": "",
          "type": "bytes32"
        }
      ],
      "stateMutability": "view",
      "type": "function"
    },
    {
      "inputs": [
        {
          "internalType": "contract DataStore",
          "name": "dataStore",
          "type": "DataStore"
        },
        {
          "internalType": "address",
          "name": "key",
          "type": "address"
        }
      ],
      "name": "get",
      "outputs": [
        {
          "components": [
            {
              "internalType": "uint256",
              "name": "keyId",
              "type": "uint256"
            },
            {
              "internalType": "uint256",
              "name": "liquidityIndex",
              "type": "uint256"
            },
            {
              "internalType": "uint256",
              "name": "liquidityRate",
              "type": "uint256"
            },
            {
              "internalType": "uint256",
              "name": "borrowIndex",
              "type": "uint256"
            },
            {
              "internalType": "uint256",
              "name": "borrowRate",
              "type": "uint256"
            },
            {
              "internalType": "address",
              "name": "interestRateStrategy",
              "type": "address"
            },
            {
              "internalType": "address",
              "name": "underlyingAsset",
              "type": "address"
            },
            {
              "internalType": "address",
              "name": "poolToken",
              "type": "address"
            },
            {
              "internalType": "address",
              "name": "debtToken",
              "type": "address"
            },
            {
              "internalType": "uint256",
              "name": "configuration",
              "type": "uint256"
            },
            {
              "internalType": "uint256",
              "name": "feeFactor",
              "type": "uint256"
            },
            {
              "internalType": "uint256",
              "name": "totalFee",
              "type": "uint256"
            },
            {
              "internalType": "uint256",
              "name": "unclaimedFee",
              "type": "uint256"
            },
            {
              "internalType": "uint256",
              "name": "lastUpdateTimestamp",
              "type": "uint256"
            }
          ],
          "internalType": "struct Pool.Props",
          "name": "",
          "type": "tuple"
        }
      ],
      "stateMutability": "view",
      "type": "function"
    },
    {
      "inputs": [
        {
          "internalType": "contract DataStore",
          "name": "dataStore",
          "type": "DataStore"
        },
        {
          "internalType": "uint256",
          "name": "id",
          "type": "uint256"
        }
      ],
      "name": "getKeyFromId",
      "outputs": [
        {
          "internalType": "address",
          "name": "",
          "type": "address"
        }
      ],
      "stateMutability": "view",
      "type": "function"
    },
    {
      "inputs": [
        {
          "internalType": "contract DataStore",
          "name": "dataStore",
          "type": "DataStore"
        },
        {
          "internalType": "uint256",
          "name": "id",
          "type": "uint256"
        }
      ],
      "name": "getPoolById",
      "outputs": [
        {
          "components": [
            {
              "internalType": "uint256",
              "name": "keyId",
              "type": "uint256"
            },
            {
              "internalType": "uint256",
              "name": "liquidityIndex",
              "type": "uint256"
            },
            {
              "internalType": "uint256",
              "name": "liquidityRate",
              "type": "uint256"
            },
            {
              "internalType": "uint256",
              "name": "borrowIndex",
              "type": "uint256"
            },
            {
              "internalType": "uint256",
              "name": "borrowRate",
              "type": "uint256"
            },
            {
              "internalType": "address",
              "name": "interestRateStrategy",
              "type": "address"
            },
            {
              "internalType": "address",
              "name": "underlyingAsset",
              "type": "address"
            },
            {
              "internalType": "address",
              "name": "poolToken",
              "type": "address"
            },
            {
              "internalType": "address",
              "name": "debtToken",
              "type": "address"
            },
            {
              "internalType": "uint256",
              "name": "configuration",
              "type": "uint256"
            },
            {
              "internalType": "uint256",
              "name": "feeFactor",
              "type": "uint256"
            },
            {
              "internalType": "uint256",
              "name": "totalFee",
              "type": "uint256"
            },
            {
              "internalType": "uint256",
              "name": "unclaimedFee",
              "type": "uint256"
            },
            {
              "internalType": "uint256",
              "name": "lastUpdateTimestamp",
              "type": "uint256"
            }
          ],
          "internalType": "struct Pool.Props",
          "name": "",
          "type": "tuple"
        }
      ],
      "stateMutability": "view",
      "type": "function"
    }
  ],
  "bytecode": "0x612f2861003a600b82828239805160001a60731461002d57634e487b7160e01b600052600060045260246000fd5b30600052607381538281f3fe73000000000000000000000000000000000000000030146080604052600436106101365760003560e01c8063a8d8fff5116100b7578063e7934f781161007b578063e7934f7814610233578063e7fdfa9c1461023b578063e8c97e4814610243578063eefb63dd1461024b578063f5db41ee1461027657600080fd5b8063a8d8fff5146101e8578063ab234814146101fb578063b4fd626514610203578063b71367ad14610223578063bc7350301461022b57600080fd5b806338cfeaf9116100fe57806338cfeaf9146101a85780635754e4b9146101c85780635c823cee146101d05780636e78c854146101d85780637c91f985146101e057600080fd5b8063049be53a1461013b5780630df93b201461016e578063119921481461017657806320ad658614610198578063222f34a5146101a0575b600080fd5b81801561014757600080fd5b5061015b610156366004612971565b61027e565b6040519081526020015b60405180910390f35b61015b6103fa565b81801561018257600080fd5b506101966101913660046129e2565b610422565b005b61015b610ffd565b61015b61100c565b6101bb6101b6366004612af3565b61101b565b6040516101659190612b1f565b61015b6110fd565b61015b61110c565b61015b61111b565b61015b61112a565b6101bb6101f6366004612971565b611139565b61015b611cb7565b81801561020f57600080fd5b5061019661021e366004612971565b611cc6565b61015b61278f565b61015b61279e565b61015b6127ad565b61015b6127bc565b61015b6127cb565b61025e610259366004612af3565b6127da565b6040516001600160a01b039091168152602001610165565b61015b6128a7565b600080836001600160a01b031663340dbab360405160200161029f90612bf7565b60408051601f198184030181529082905280516020909101206001600160e01b031960e084901b1682526004820152600160248201526044016020604051808303816000875af11580156102f7573d6000803e3d6000fd5b505050506040513d601f19601f8201168201806040525081019061031b9190612c1c565b9050836001600160a01b031663ca446dd98260405160200161033c90612bf7565b6040516020818303038152906040528051906020012060405160200161036c929190918252602082015260400190565b60408051601f198184030181529082905280516020909101206001600160e01b031960e084901b16825260048201526001600160a01b03861660248201526044016020604051808303816000875af11580156103cc573d6000803e3d6000fd5b505050506040513d601f19601f820116820180604052508101906103f09190612c35565b5090505b92915050565b60405160200161040990612bf7565b6040516020818303038152906040528051906020012081565b826001600160a01b031663b348e63960405160200161044090612c52565b60408051601f198184030181529082905280516020909101206001600160e01b031960e084901b16825260048201526001600160a01b0385166024820152604401600060405180830381600087803b15801561049b57600080fd5b505af11580156104af573d6000803e3d6000fd5b50505050826001600160a01b031663e2a4853a836040516020016104d290612bf7565b604051602081830303815290604052805190602001206040516020016104f9929190612c75565b60408051601f1981840301815290829052805160209091012084516001600160e01b031960e085901b16835261053a92600401918252602082015260400190565b6020604051808303816000875af1158015610559573d6000803e3d6000fd5b505050506040513d601f19601f8201168201806040525081019061057d9190612c1c565b50826001600160a01b031663e2a4853a8360405160200161059d90612c8e565b604051602081830303815290604052805190602001206040516020016105c4929190612c75565b6040516020818303038152906040528051906020012083602001516040518363ffffffff1660e01b8152600401610605929190918252602082015260400190565b6020604051808303816000875af1158015610624573d6000803e3d6000fd5b505050506040513d601f19601f820116820180604052508101906106489190612c1c565b50826001600160a01b031663e2a4853a8360405160200161066890612cbc565b6040516020818303038152906040528051906020012060405160200161068f929190612c75565b60408051601f198184030181528282528051602090910120908501516001600160e01b031960e085901b1683526106d192600401918252602082015260400190565b6020604051808303816000875af11580156106f0573d6000803e3d6000fd5b505050506040513d601f19601f820116820180604052508101906107149190612c1c565b50826001600160a01b031663e2a4853a8360405160200161073490612ce9565b6040516020818303038152906040528051906020012060405160200161075b929190612c75565b6040516020818303038152906040528051906020012083606001516040518363ffffffff1660e01b815260040161079c929190918252602082015260400190565b6020604051808303816000875af11580156107bb573d6000803e3d6000fd5b505050506040513d601f19601f820116820180604052508101906107df9190612c1c565b50826001600160a01b031663e2a4853a836040516020016107ff90612d14565b60405160208183030381529060405280519060200120604051602001610826929190612c75565b6040516020818303038152906040528051906020012083608001516040518363ffffffff1660e01b8152600401610867929190918252602082015260400190565b6020604051808303816000875af1158015610886573d6000803e3d6000fd5b505050506040513d601f19601f820116820180604052508101906108aa9190612c1c565b50826001600160a01b031663ca446dd9836040516020016108ca90612d3e565b604051602081830303815290604052805190602001206040516020016108f1929190612c75565b604051602081830303815290604052805190602001208360a001516040518363ffffffff1660e01b815260040161093b9291909182526001600160a01b0316602082015260400190565b6020604051808303816000875af115801561095a573d6000803e3d6000fd5b505050506040513d601f19601f8201168201806040525081019061097e9190612c35565b50826001600160a01b031663ca446dd98360405160200161099e90612d75565b604051602081830303815290604052805190602001206040516020016109c5929190612c75565b604051602081830303815290604052805190602001208360c001516040518363ffffffff1660e01b8152600401610a0f9291909182526001600160a01b0316602082015260400190565b6020604051808303816000875af1158015610a2e573d6000803e3d6000fd5b505050506040513d601f19601f82011682018060405250810190610a529190612c35565b50826001600160a01b031663ca446dd983604051602001610a7290612da4565b60405160208183030381529060405280519060200120604051602001610a99929190612c75565b604051602081830303815290604052805190602001208360e001516040518363ffffffff1660e01b8152600401610ae39291909182526001600160a01b0316602082015260400190565b6020604051808303816000875af1158015610b02573d6000803e3d6000fd5b505050506040513d601f19601f82011682018060405250810190610b269190612c35565b50826001600160a01b031663ca446dd983604051602001610b4690612dc8565b60405160208183030381529060405280519060200120604051602001610b6d929190612c75565b604051602081830303815290604052805190602001208361010001516040518363ffffffff1660e01b8152600401610bb89291909182526001600160a01b0316602082015260400190565b6020604051808303816000875af1158015610bd7573d6000803e3d6000fd5b505050506040513d601f19601f82011682018060405250810190610bfb9190612c35565b50826001600160a01b031663e2a4853a83604051602001610c1b90612df1565b60405160208183030381529060405280519060200120604051602001610c42929190612c75565b604051602081830303815290604052805190602001208361012001516040518363ffffffff1660e01b8152600401610c84929190918252602082015260400190565b6020604051808303816000875af1158015610ca3573d6000803e3d6000fd5b505050506040513d601f19601f82011682018060405250810190610cc79190612c1c565b50826001600160a01b031663e2a4853a83604051602001610ce790612e1c565b60405160208183030381529060405280519060200120604051602001610d0e929190612c75565b604051602081830303815290604052805190602001208361014001516040518363ffffffff1660e01b8152600401610d50929190918252602082015260400190565b6020604051808303816000875af1158015610d6f573d6000803e3d6000fd5b505050506040513d601f19601f82011682018060405250810190610d939190612c1c565b50826001600160a01b031663e2a4853a83604051602001610db390612e45565b60405160208183030381529060405280519060200120604051602001610dda929190612c75565b604051602081830303815290604052805190602001208361016001516040518363ffffffff1660e01b8152600401610e1c929190918252602082015260400190565b6020604051808303816000875af1158015610e3b573d6000803e3d6000fd5b505050506040513d601f19601f82011682018060405250810190610e5f9190612c1c565b50826001600160a01b031663e2a4853a83604051602001610e7f90612e6d565b60405160208183030381529060405280519060200120604051602001610ea6929190612c75565b604051602081830303815290604052805190602001208361018001516040518363ffffffff1660e01b8152600401610ee8929190918252602082015260400190565b6020604051808303816000875af1158015610f07573d6000803e3d6000fd5b505050506040513d601f19601f82011682018060405250810190610f2b9190612c1c565b50826001600160a01b031663e2a4853a83604051602001610f4b90612e99565b60405160208183030381529060405280519060200120604051602001610f72929190612c75565b60405160208183030381529060405280519060200120836101a001516040518363ffffffff1660e01b8152600401610fb4929190918252602082015260400190565b6020604051808303816000875af1158015610fd3573d6000803e3d6000fd5b505050506040513d601f19601f82011682018060405250810190610ff79190612c1c565b50505050565b60405160200161040990612da4565b60405160200161040990612e1c565b6110236128b6565b6000836001600160a01b03166321f8a7218460405160200161104490612bf7565b60405160208183030381529060405280519060200120604051602001611074929190918252602082015260400190565b604051602081830303815290604052805190602001206040518263ffffffff1660e01b81526004016110a891815260200190565b602060405180830381865afa1580156110c5573d6000803e3d6000fd5b505050506040513d601f19601f820116820180604052508101906110e99190612c35565b90506110f58482611139565b949350505050565b60405160200161040990612e45565b60405160200161040990612cbc565b60405160200161040990612d14565b60405160200161040990612e6d565b6111416128b6565b6111496128b6565b836001600160a01b031663c769d1a160405160200161116790612c52565b60408051601f198184030181529082905280516020909101206001600160e01b031960e084901b16825260048201526001600160a01b0386166024820152604401602060405180830381865afa1580156111c5573d6000803e3d6000fd5b505050506040513d601f19601f820116820180604052508101906111e99190612ed0565b6111f45790506103f4565b836001600160a01b031663bd02d0f58460405160200161121390612bf7565b6040516020818303038152906040528051906020012060405160200161123a929190612c75565b604051602081830303815290604052805190602001206040518263ffffffff1660e01b815260040161126e91815260200190565b602060405180830381865afa15801561128b573d6000803e3d6000fd5b505050506040513d601f19601f820116820180604052508101906112af9190612c1c565b81526040516001600160a01b0385169063bd02d0f59085906112d390602001612c8e565b604051602081830303815290604052805190602001206040516020016112fa929190612c75565b604051602081830303815290604052805190602001206040518263ffffffff1660e01b815260040161132e91815260200190565b602060405180830381865afa15801561134b573d6000803e3d6000fd5b505050506040513d601f19601f8201168201806040525081019061136f9190612c1c565b816020018181525050836001600160a01b031663bd02d0f58460405160200161139790612cbc565b604051602081830303815290604052805190602001206040516020016113be929190612c75565b604051602081830303815290604052805190602001206040518263ffffffff1660e01b81526004016113f291815260200190565b602060405180830381865afa15801561140f573d6000803e3d6000fd5b505050506040513d601f19601f820116820180604052508101906114339190612c1c565b816040018181525050836001600160a01b031663bd02d0f58460405160200161145b90612ce9565b60405160208183030381529060405280519060200120604051602001611482929190612c75565b604051602081830303815290604052805190602001206040518263ffffffff1660e01b81526004016114b691815260200190565b602060405180830381865afa1580156114d3573d6000803e3d6000fd5b505050506040513d601f19601f820116820180604052508101906114f79190612c1c565b60608201526040516001600160a01b0385169063bd02d0f590859061151e90602001612d14565b60405160208183030381529060405280519060200120604051602001611545929190612c75565b604051602081830303815290604052805190602001206040518263ffffffff1660e01b815260040161157991815260200190565b602060405180830381865afa158015611596573d6000803e3d6000fd5b505050506040513d601f19601f820116820180604052508101906115ba9190612c1c565b60808201526040516001600160a01b038516906321f8a7219085906115e190602001612d3e565b60405160208183030381529060405280519060200120604051602001611608929190612c75565b604051602081830303815290604052805190602001206040518263ffffffff1660e01b815260040161163c91815260200190565b602060405180830381865afa158015611659573d6000803e3d6000fd5b505050506040513d601f19601f8201168201806040525081019061167d9190612c35565b6001600160a01b0390811660a0830152604051908516906321f8a7219085906116a890602001612d75565b604051602081830303815290604052805190602001206040516020016116cf929190612c75565b604051602081830303815290604052805190602001206040518263ffffffff1660e01b815260040161170391815260200190565b602060405180830381865afa158015611720573d6000803e3d6000fd5b505050506040513d601f19601f820116820180604052508101906117449190612c35565b6001600160a01b0390811660c0830152604051908516906321f8a72190859061176f90602001612da4565b60405160208183030381529060405280519060200120604051602001611796929190612c75565b604051602081830303815290604052805190602001206040518263ffffffff1660e01b81526004016117ca91815260200190565b602060405180830381865afa1580156117e7573d6000803e3d6000fd5b505050506040513d601f19601f8201168201806040525081019061180b9190612c35565b6001600160a01b0390811660e0830152604051908516906321f8a72190859061183690602001612dc8565b6040516020818303038152906040528051906020012060405160200161185d929190612c75565b604051602081830303815290604052805190602001206040518263ffffffff1660e01b815260040161189191815260200190565b602060405180830381865afa1580156118ae573d6000803e3d6000fd5b505050506040513d601f19601f820116820180604052508101906118d29190612c35565b6001600160a01b039081166101008301526040519085169063bd02d0f59085906118fe90602001612df1565b60405160208183030381529060405280519060200120604051602001611925929190612c75565b604051602081830303815290604052805190602001206040518263ffffffff1660e01b815260040161195991815260200190565b602060405180830381865afa158015611976573d6000803e3d6000fd5b505050506040513d601f19601f8201168201806040525081019061199a9190612c1c565b6101208201526040516001600160a01b0385169063bd02d0f59085906119c290602001612e1c565b604051602081830303815290604052805190602001206040516020016119e9929190612c75565b604051602081830303815290604052805190602001206040518263ffffffff1660e01b8152600401611a1d91815260200190565b602060405180830381865afa158015611a3a573d6000803e3d6000fd5b505050506040513d601f19601f82011682018060405250810190611a5e9190612c1c565b6101408201526040516001600160a01b0385169063bd02d0f5908590611a8690602001612e45565b60405160208183030381529060405280519060200120604051602001611aad929190612c75565b604051602081830303815290604052805190602001206040518263ffffffff1660e01b8152600401611ae191815260200190565b602060405180830381865afa158015611afe573d6000803e3d6000fd5b505050506040513d601f19601f82011682018060405250810190611b229190612c1c565b6101608201526040516001600160a01b0385169063bd02d0f5908590611b4a90602001612e6d565b60405160208183030381529060405280519060200120604051602001611b71929190612c75565b604051602081830303815290604052805190602001206040518263ffffffff1660e01b8152600401611ba591815260200190565b602060405180830381865afa158015611bc2573d6000803e3d6000fd5b505050506040513d601f19601f82011682018060405250810190611be69190612c1c565b6101808201526040516001600160a01b0385169063bd02d0f5908590611c0e90602001612e99565b60405160208183030381529060405280519060200120604051602001611c35929190612c75565b604051602081830303815290604052805190602001206040518263ffffffff1660e01b8152600401611c6991815260200190565b602060405180830381865afa158015611c86573d6000803e3d6000fd5b505050506040513d601f19601f82011682018060405250810190611caa9190612c1c565b6101a08201529392505050565b60405160200161040990612d3e565b816001600160a01b031663c769d1a1604051602001611ce490612c52565b60408051601f198184030181529082905280516020909101206001600160e01b031960e084901b16825260048201526001600160a01b0384166024820152604401602060405180830381865afa158015611d42573d6000803e3d6000fd5b505050506040513d601f19601f82011682018060405250810190611d669190612ed0565b611d9257604051631a8d3e6360e21b81526001600160a01b038216600482015260240160405180910390fd5b816001600160a01b03166369721d41604051602001611db090612c52565b60408051601f198184030181529082905280516020909101206001600160e01b031960e084901b16825260048201526001600160a01b0384166024820152604401600060405180830381600087803b158015611e0b57600080fd5b505af1158015611e1f573d6000803e3d6000fd5b50505050816001600160a01b03166342c3bd9682604051602001611e4290612bf7565b60405160208183030381529060405280519060200120604051602001611e69929190612c75565b604051602081830303815290604052805190602001206040518263ffffffff1660e01b8152600401611e9d91815260200190565b600060405180830381600087803b158015611eb757600080fd5b505af1158015611ecb573d6000803e3d6000fd5b50505050816001600160a01b03166342c3bd9682604051602001611eee90612c8e565b60405160208183030381529060405280519060200120604051602001611f15929190612c75565b604051602081830303815290604052805190602001206040518263ffffffff1660e01b8152600401611f4991815260200190565b600060405180830381600087803b158015611f6357600080fd5b505af1158015611f77573d6000803e3d6000fd5b50505050816001600160a01b03166342c3bd9682604051602001611f9a90612cbc565b60405160208183030381529060405280519060200120604051602001611fc1929190612c75565b604051602081830303815290604052805190602001206040518263ffffffff1660e01b8152600401611ff591815260200190565b600060405180830381600087803b15801561200f57600080fd5b505af1158015612023573d6000803e3d6000fd5b50505050816001600160a01b03166342c3bd968260405160200161204690612ce9565b6040516020818303038152906040528051906020012060405160200161206d929190612c75565b604051602081830303815290604052805190602001206040518263ffffffff1660e01b81526004016120a191815260200190565b600060405180830381600087803b1580156120bb57600080fd5b505af11580156120cf573d6000803e3d6000fd5b50505050816001600160a01b03166342c3bd96826040516020016120f290612d14565b60405160208183030381529060405280519060200120604051602001612119929190612c75565b604051602081830303815290604052805190602001206040518263ffffffff1660e01b815260040161214d91815260200190565b600060405180830381600087803b15801561216757600080fd5b505af115801561217b573d6000803e3d6000fd5b50505050816001600160a01b0316639faf6fb68260405160200161219e90612d3e565b604051602081830303815290604052805190602001206040516020016121c5929190612c75565b604051602081830303815290604052805190602001206040518263ffffffff1660e01b81526004016121f991815260200190565b600060405180830381600087803b15801561221357600080fd5b505af1158015612227573d6000803e3d6000fd5b50505050816001600160a01b0316639faf6fb68260405160200161224a90612d75565b60405160208183030381529060405280519060200120604051602001612271929190612c75565b604051602081830303815290604052805190602001206040518263ffffffff1660e01b81526004016122a591815260200190565b600060405180830381600087803b1580156122bf57600080fd5b505af11580156122d3573d6000803e3d6000fd5b50505050816001600160a01b0316639faf6fb6826040516020016122f690612da4565b6040516020818303038152906040528051906020012060405160200161231d929190612c75565b604051602081830303815290604052805190602001206040518263ffffffff1660e01b815260040161235191815260200190565b600060405180830381600087803b15801561236b57600080fd5b505af115801561237f573d6000803e3d6000fd5b50505050816001600160a01b0316639faf6fb6826040516020016123a290612dc8565b604051602081830303815290604052805190602001206040516020016123c9929190612c75565b604051602081830303815290604052805190602001206040518263ffffffff1660e01b81526004016123fd91815260200190565b600060405180830381600087803b15801561241757600080fd5b505af115801561242b573d6000803e3d6000fd5b50505050816001600160a01b03166342c3bd968260405160200161244e90612df1565b60405160208183030381529060405280519060200120604051602001612475929190612c75565b604051602081830303815290604052805190602001206040518263ffffffff1660e01b81526004016124a991815260200190565b600060405180830381600087803b1580156124c357600080fd5b505af11580156124d7573d6000803e3d6000fd5b50505050816001600160a01b03166342c3bd96826040516020016124fa90612e1c565b60405160208183030381529060405280519060200120604051602001612521929190612c75565b604051602081830303815290604052805190602001206040518263ffffffff1660e01b815260040161255591815260200190565b600060405180830381600087803b15801561256f57600080fd5b505af1158015612583573d6000803e3d6000fd5b50505050816001600160a01b03166342c3bd96826040516020016125a690612e45565b604051602081830303815290604052805190602001206040516020016125cd929190612c75565b604051602081830303815290604052805190602001206040518263ffffffff1660e01b815260040161260191815260200190565b600060405180830381600087803b15801561261b57600080fd5b505af115801561262f573d6000803e3d6000fd5b50505050816001600160a01b03166342c3bd968260405160200161265290612e6d565b60405160208183030381529060405280519060200120604051602001612679929190612c75565b604051602081830303815290604052805190602001206040518263ffffffff1660e01b81526004016126ad91815260200190565b600060405180830381600087803b1580156126c757600080fd5b505af11580156126db573d6000803e3d6000fd5b50505050816001600160a01b03166342c3bd96826040516020016126fe90612e99565b60405160208183030381529060405280519060200120604051602001612725929190612c75565b604051602081830303815290604052805190602001206040518263ffffffff1660e01b815260040161275991815260200190565b600060405180830381600087803b15801561277357600080fd5b505af1158015612787573d6000803e3d6000fd5b505050505050565b60405160200161040990612c8e565b60405160200161040990612dc8565b60405160200161040990612d75565b60405160200161040990612ce9565b60405160200161040990612df1565b6000826001600160a01b03166321f8a721836040516020016127fb90612bf7565b6040516020818303038152906040528051906020012060405160200161282b929190918252602082015260400190565b604051602081830303815290604052805190602001206040518263ffffffff1660e01b815260040161285f91815260200190565b602060405180830381865afa15801561287c573d6000803e3d6000fd5b505050506040513d601f19601f820116820180604052508101906128a09190612c35565b9392505050565b60405160200161040990612e99565b604051806101c00160405280600081526020016000815260200160008152602001600081526020016000815260200160006001600160a01b0316815260200160006001600160a01b0316815260200160006001600160a01b0316815260200160006001600160a01b0316815260200160008152602001600081526020016000815260200160008152602001600081525090565b6001600160a01b038116811461295e57600080fd5b50565b803561296c81612949565b919050565b6000806040838503121561298457600080fd5b823561298f81612949565b9150602083013561299f81612949565b809150509250929050565b6040516101c0810167ffffffffffffffff811182821017156129dc57634e487b7160e01b600052604160045260246000fd5b60405290565b60008060008385036102008112156129f957600080fd5b8435612a0481612949565b93506020850135612a1481612949565b92506101c0603f198201811315612a2a57600080fd5b612a326129aa565b915060408601358252606086013560208301526080860135604083015260a0860135606083015260c08601356080830152612a6f60e08701612961565b60a0830152610100612a82818801612961565b60c0840152610120612a95818901612961565b60e0850152610140612aa8818a01612961565b838601526101609250828901358286015261018091508189013581860152506101a0808901358386015283890135828601526101e08901358186015250505050809150509250925092565b60008060408385031215612b0657600080fd5b8235612b1181612949565b946020939093013593505050565b60006101c082019050825182526020830151602083015260408301516040830152606083015160608301526080830151608083015260a0830151612b6e60a08401826001600160a01b03169052565b5060c0830151612b8960c08401826001600160a01b03169052565b5060e0830151612ba460e08401826001600160a01b03169052565b50610100838101516001600160a01b03169083015261012080840151908301526101408084015190830152610160808401519083015261018080840151908301526101a092830151929091019190915290565b6020808252600b908201526a1413d3d317d2d15657d25160aa1b604082015260600190565b600060208284031215612c2e57600080fd5b5051919050565b600060208284031215612c4757600080fd5b81516128a081612949565b6020808252600990820152681413d3d317d31254d560ba1b604082015260600190565b6001600160a01b03929092168252602082015260400190565b6020808252601490820152730a09e9e98be9892a2aa928892a8b2be929c888ab60631b604082015260600190565b602080825260139082015272504f4f4c5f4c49515549444954595f5241544560681b604082015260600190565b6020808252601190820152700a09e9e98be849ea4a49eaebe929c888ab607b1b604082015260600190565b60208082526010908201526f504f4f4c5f424f52524f575f5241544560801b604082015260600190565b6020808252601b908201527f504f4f4c5f494e5445524553545f524154455f53545241544547590000000000604082015260600190565b6020808252601590820152742827a7a62faaa72222a9262ca4a723afaa27a5a2a760591b604082015260600190565b6020808252600a90820152692827a7a62faa27a5a2a760b11b604082015260600190565b6020808252600f908201526e2827a7a62fa222a12a2faa27a5a2a760891b604082015260600190565b6020808252601190820152702827a7a62fa1a7a72324a3a920aa24a7a760791b604082015260600190565b6020808252600f908201526e2827a7a62fa322a2afa320a1aa27a960891b604082015260600190565b6020808252600e908201526d504f4f4c5f544f54414c5f46454560901b604082015260600190565b602080825260129082015271504f4f4c5f554e434c41494d45445f46454560701b604082015260600190565b6020808252601b908201527f504f4f4c5f4c4153545f5550444154455f54494d455f5354414d500000000000604082015260600190565b600060208284031215612ee257600080fd5b815180151581146128a057600080fdfea26469706673582212206316655e69f0d1a93af2d46f164edde8685e847e7325957c71188038924c122a64736f6c63430008140033",
  "linkReferences": {},
  "deployedLinkReferences": {}
}