{
  "_format": "hh-sol-artifact-1",
  "contractName": "PositionStoreUtils",
  "sourceName": "contracts/position/PositionStoreUtils.sol",
  "abi": [
    {
      "inputs": [
        {
          "internalType": "address",
          "name": "key",
          "type": "address"
        }
      ],
      "name": "PositionNotFound",
      "type": "error"
    },
    {
      "inputs": [],
      "name": "ACCOUNT",
      "outputs": [
        {
          "internalType": "bytes32",
          "name": "",
          "type": "bytes32"
        }
      ],
      "stateMutability": "view",
      "type": "function"
    },
    {
      "inputs": [],
      "name": "COLLATERAL_AND_DEBT_POOLS",
      "outputs": [
        {
          "internalType": "bytes32",
          "name": "",
          "type": "bytes32"
        }
      ],
      "stateMutability": "view",
      "type": "function"
    },
    {
      "inputs": [
        {
          "internalType": "contract DataStore",
          "name": "dataStore",
          "type": "DataStore"
        },
        {
          "internalType": "address",
          "name": "key",
          "type": "address"
        }
      ],
      "name": "get",
      "outputs": [
        {
          "components": [
            {
              "internalType": "address",
              "name": "account",
              "type": "address"
            },
            {
              "internalType": "uint256",
              "name": "collateralAndDebtPools",
              "type": "uint256"
            }
          ],
          "internalType": "struct Position.Props",
          "name": "",
          "type": "tuple"
        }
      ],
      "stateMutability": "view",
      "type": "function"
    }
  ],
  "bytecode": "0x610aab61003a600b82828239805160001a60731461002d57634e487b7160e01b600052600060045260246000fd5b30600052607381538281f3fe73000000000000000000000000000000000000000030146080604052600436106100615760003560e01c806323b081381461006657806330b1727914610081578063a8d8fff5146100a3578063b4fd6265146100da578063e90524f2146100fa575b600080fd5b61006e610102565b6040519081526020015b60405180910390f35b81801561008d57600080fd5b506100a161009c3660046108c0565b61012a565b005b6100b66100b136600461095e565b61035c565b6040805182516001600160a01b031681526020928301519281019290925201610078565b8180156100e657600080fd5b506100a16100f536600461095e565b6105ce565b61006e610899565b60405160200161011190610997565b6040516020818303038152906040528051906020012081565b826001600160a01b031663b348e639604051602001610148906109ce565b60408051601f198184030181529082905280516020909101206001600160e01b031960e084901b16825260048201526001600160a01b0385166024820152604401600060405180830381600087803b1580156101a357600080fd5b505af11580156101b7573d6000803e3d6000fd5b50505050826001600160a01b031663ca446dd9836040516020016101da906109f5565b60408051808303601f1901815282825280516020918201206001600160a01b03948516828501528383015281518084038301815260608401928390528051910120865160e086901b6001600160e01b0319169092526064830152909116608482015260a4016020604051808303816000875af115801561025e573d6000803e3d6000fd5b505050506040513d601f19601f820116820180604052508101906102829190610a16565b50826001600160a01b031663e2a4853a836040516020016102a290610997565b60408051601f1981840301815282825280516020918201206001600160a01b03909416908301528101919091526060016040516020818303038152906040528051906020012083602001516040518363ffffffff1660e01b8152600401610313929190918252602082015260400190565b6020604051808303816000875af1158015610332573d6000803e3d6000fd5b505050506040513d601f19601f820116820180604052508101906103569190610a3a565b50505050565b60408051808201909152600080825260208201526040805180820190915260008082526020820152836001600160a01b031663c769d1a16040516020016103a2906109ce565b60408051601f198184030181529082905280516020909101206001600160e01b031960e084901b16825260048201526001600160a01b0386166024820152604401602060405180830381865afa158015610400573d6000803e3d6000fd5b505050506040513d601f19601f820116820180604052508101906104249190610a53565b61042f5790506105c8565b836001600160a01b03166321f8a7218460405160200161044e906109f5565b60408051601f1981840301815282825280516020918201206001600160a01b0390941690830152810191909152606001604051602081830303815290604052805190602001206040518263ffffffff1660e01b81526004016104b291815260200190565b602060405180830381865afa1580156104cf573d6000803e3d6000fd5b505050506040513d601f19601f820116820180604052508101906104f39190610a16565b6001600160a01b0390811682526040519085169063bd02d0f590859061051b90602001610997565b60408051601f1981840301815282825280516020918201206001600160a01b0390941690830152810191909152606001604051602081830303815290604052805190602001206040518263ffffffff1660e01b815260040161057f91815260200190565b602060405180830381865afa15801561059c573d6000803e3d6000fd5b505050506040513d601f19601f820116820180604052508101906105c09190610a3a565b602082015290505b92915050565b816001600160a01b031663c769d1a16040516020016105ec906109ce565b60408051601f198184030181529082905280516020909101206001600160e01b031960e084901b16825260048201526001600160a01b0384166024820152604401602060405180830381865afa15801561064a573d6000803e3d6000fd5b505050506040513d601f19601f8201168201806040525081019061066e9190610a53565b61069a57604051630c3357f960e11b81526001600160a01b038216600482015260240160405180910390fd5b816001600160a01b03166369721d416040516020016106b8906109ce565b60408051601f198184030181529082905280516020909101206001600160e01b031960e084901b16825260048201526001600160a01b0384166024820152604401600060405180830381600087803b15801561071357600080fd5b505af1158015610727573d6000803e3d6000fd5b50505050816001600160a01b0316639faf6fb68260405160200161074a906109f5565b60408051601f1981840301815282825280516020918201206001600160a01b0390941690830152810191909152606001604051602081830303815290604052805190602001206040518263ffffffff1660e01b81526004016107ae91815260200190565b600060405180830381600087803b1580156107c857600080fd5b505af11580156107dc573d6000803e3d6000fd5b50505050816001600160a01b03166342c3bd96826040516020016107ff90610997565b60408051601f1981840301815282825280516020918201206001600160a01b0390941690830152810191909152606001604051602081830303815290604052805190602001206040518263ffffffff1660e01b815260040161086391815260200190565b600060405180830381600087803b15801561087d57600080fd5b505af1158015610891573d6000803e3d6000fd5b505050505050565b604051602001610111906109f5565b6001600160a01b03811681146108bd57600080fd5b50565b600080600083850360808112156108d657600080fd5b84356108e1816108a8565b935060208501356108f1816108a8565b92506040603f198201121561090557600080fd5b506040516040810181811067ffffffffffffffff8211171561093757634e487b7160e01b600052604160045260246000fd5b6040908152850135610948816108a8565b8152606094909401356020850152509093909250565b6000806040838503121561097157600080fd5b823561097c816108a8565b9150602083013561098c816108a8565b809150509250929050565b60208082526019908201527f434f4c4c41544552414c5f414e445f444542545f504f4f4c5300000000000000604082015260600190565b6020808252600d908201526c1413d4d2551253d397d31254d5609a1b604082015260600190565b6020808252600790820152661050d0d3d5539560ca1b604082015260600190565b600060208284031215610a2857600080fd5b8151610a33816108a8565b9392505050565b600060208284031215610a4c57600080fd5b5051919050565b600060208284031215610a6557600080fd5b81518015158114610a3357600080fdfea26469706673582212205502d2c5a2ef40a83d73d10813afc85d9904eb26a3dfe101ec6189ba341edd7e64736f6c63430008140033",
  "linkReferences": {},
  "deployedLinkReferences": {}
}