{
  "_format": "hh-sol-artifact-1",
  "contractName": "Reader",
  "sourceName": "contracts/reader/Reader.sol",
  "abi": [
    {
      "inputs": [
        {
          "internalType": "contract DataStore",
          "name": "dataStore",
          "type": "address"
        },
        {
          "internalType": "address",
          "name": "key",
          "type": "address"
        }
      ],
      "name": "getPool",
      "outputs": [
        {
          "components": [
            {
              "internalType": "uint256",
              "name": "keyId",
              "type": "uint256"
            },
            {
              "internalType": "uint256",
              "name": "liquidityIndex",
              "type": "uint256"
            },
            {
              "internalType": "uint256",
              "name": "liquidityRate",
              "type": "uint256"
            },
            {
              "internalType": "uint256",
              "name": "borrowIndex",
              "type": "uint256"
            },
            {
              "internalType": "uint256",
              "name": "borrowRate",
              "type": "uint256"
            },
            {
              "internalType": "address",
              "name": "interestRateStrategy",
              "type": "address"
            },
            {
              "internalType": "address",
              "name": "underlyingAsset",
              "type": "address"
            },
            {
              "internalType": "address",
              "name": "poolToken",
              "type": "address"
            },
            {
              "internalType": "address",
              "name": "debtToken",
              "type": "address"
            },
            {
              "internalType": "uint256",
              "name": "configuration",
              "type": "uint256"
            },
            {
              "internalType": "uint256",
              "name": "feeFactor",
              "type": "uint256"
            },
            {
              "internalType": "uint256",
              "name": "totalFee",
              "type": "uint256"
            },
            {
              "internalType": "uint256",
              "name": "unclaimedFee",
              "type": "uint256"
            },
            {
              "internalType": "uint256",
              "name": "lastUpdateTimestamp",
              "type": "uint256"
            }
          ],
          "internalType": "struct Pool.Props",
          "name": "",
          "type": "tuple"
        }
      ],
      "stateMutability": "view",
      "type": "function"
    },
    {
      "inputs": [
        {
          "internalType": "contract DataStore",
          "name": "dataStore",
          "type": "address"
        },
        {
          "internalType": "uint256",
          "name": "start",
          "type": "uint256"
        },
        {
          "internalType": "uint256",
          "name": "end",
          "type": "uint256"
        }
      ],
      "name": "getPools",
      "outputs": [
        {
          "components": [
            {
              "internalType": "uint256",
              "name": "keyId",
              "type": "uint256"
            },
            {
              "internalType": "uint256",
              "name": "liquidityIndex",
              "type": "uint256"
            },
            {
              "internalType": "uint256",
              "name": "liquidityRate",
              "type": "uint256"
            },
            {
              "internalType": "uint256",
              "name": "borrowIndex",
              "type": "uint256"
            },
            {
              "internalType": "uint256",
              "name": "borrowRate",
              "type": "uint256"
            },
            {
              "internalType": "address",
              "name": "interestRateStrategy",
              "type": "address"
            },
            {
              "internalType": "address",
              "name": "underlyingAsset",
              "type": "address"
            },
            {
              "internalType": "address",
              "name": "poolToken",
              "type": "address"
            },
            {
              "internalType": "address",
              "name": "debtToken",
              "type": "address"
            },
            {
              "internalType": "uint256",
              "name": "configuration",
              "type": "uint256"
            },
            {
              "internalType": "uint256",
              "name": "feeFactor",
              "type": "uint256"
            },
            {
              "internalType": "uint256",
              "name": "totalFee",
              "type": "uint256"
            },
            {
              "internalType": "uint256",
              "name": "unclaimedFee",
              "type": "uint256"
            },
            {
              "internalType": "uint256",
              "name": "lastUpdateTimestamp",
              "type": "uint256"
            }
          ],
          "internalType": "struct Pool.Props[]",
          "name": "",
          "type": "tuple[]"
        }
      ],
      "stateMutability": "view",
      "type": "function"
    },
    {
      "inputs": [
        {
          "internalType": "contract DataStore",
          "name": "dataStore",
          "type": "address"
        },
        {
          "internalType": "address",
          "name": "key",
          "type": "address"
        }
      ],
      "name": "getPosition",
      "outputs": [
        {
          "components": [
            {
              "internalType": "address",
              "name": "account",
              "type": "address"
            },
            {
              "internalType": "uint256",
              "name": "collateralAndDebtPools",
              "type": "uint256"
            }
          ],
          "internalType": "struct Position.Props",
          "name": "",
          "type": "tuple"
        }
      ],
      "stateMutability": "view",
      "type": "function"
    },
    {
      "inputs": [
        {
          "internalType": "contract DataStore",
          "name": "dataStore",
          "type": "address"
        },
        {
          "internalType": "uint256",
          "name": "start",
          "type": "uint256"
        },
        {
          "internalType": "uint256",
          "name": "end",
          "type": "uint256"
        }
      ],
      "name": "getPositions",
      "outputs": [
        {
          "components": [
            {
              "internalType": "address",
              "name": "account",
              "type": "address"
            },
            {
              "internalType": "uint256",
              "name": "collateralAndDebtPools",
              "type": "uint256"
            }
          ],
          "internalType": "struct Position.Props[]",
          "name": "",
          "type": "tuple[]"
        }
      ],
      "stateMutability": "view",
      "type": "function"
    }
  ],
  "bytecode": "0x608060405234801561001057600080fd5b50610b58806100206000396000f3fe608060405234801561001057600080fd5b506004361061004c5760003560e01c8063288b1c6814610051578063531aa03e1461007a5780638f6c7a3c1461009a578063b33dc190146100ba575b600080fd5b61006461005f366004610679565b6100da565b60405161007191906106ae565b60405180910390f35b61008d61008836600461070e565b610242565b6040516100719190610810565b6100ad6100a8366004610679565b6102d8565b604051610071919061081f565b6100cd6100c836600461070e565b61042c565b604051610071919061086e565b606060006100e98585856104c1565b90506000815167ffffffffffffffff8111156101075761010761088e565b60405190808252806020026020018201604052801561014c57816020015b60408051808201909152600080825260208201528152602001906001900390816101255790505b50905060005b825181101561023857600083828151811061016f5761016f6108a4565b602090810291909101015160405163a8d8fff560e01b81526001600160a01b03808b1660048301528216602482015290915060009073__$3d31b232fb363902662fbc281b11ab3357$__9063a8d8fff5906044016040805180830381865af41580156101df573d6000803e3d6000fd5b505050506040513d601f19601f820116820180604052508101906102039190610925565b905080848481518110610218576102186108a4565b6020026020010181905250505080806102309061097d565b915050610152565b5095945050505050565b61024a6105ce565b60405163a8d8fff560e01b81526001600160a01b0380851660048301528316602482015273__$e0022d6f389ac14ff1ce1dc57a4018d0a3$__9063a8d8fff5906044016101c060405180830381865af41580156102ab573d6000803e3d6000fd5b505050506040513d601f19601f820116820180604052508101906102cf91906109a4565b90505b92915050565b606060006102e7858585610590565b90506000815167ffffffffffffffff8111156103055761030561088e565b60405190808252806020026020018201604052801561033e57816020015b61032b6105ce565b8152602001906001900390816103235790505b50905060005b8251811015610238576000838281518110610361576103616108a4565b602090810291909101015160405163a8d8fff560e01b81526001600160a01b03808b1660048301528216602482015290915060009073__$e0022d6f389ac14ff1ce1dc57a4018d0a3$__9063a8d8fff5906044016101c060405180830381865af41580156103d3573d6000803e3d6000fd5b505050506040513d601f19601f820116820180604052508101906103f791906109a4565b90508084848151811061040c5761040c6108a4565b6020026020010181905250505080806104249061097d565b915050610344565b60408051808201825260008082526020820152905163a8d8fff560e01b81526001600160a01b0384811660048301528316602482015273__$3d31b232fb363902662fbc281b11ab3357$__9063a8d8fff5906044016040805180830381865af415801561049d573d6000803e3d6000fd5b505050506040513d601f19601f820116820180604052508101906102cf9190610925565b6060836001600160a01b031663e7e4148e604051602001610503906020808252600d908201526c1413d4d2551253d397d31254d5609a1b604082015260600190565b60408051601f198184030181529082905280516020909101206001600160e01b031960e084901b16825260048201526024810186905260448101859052606401600060405180830381865afa158015610560573d6000803e3d6000fd5b505050506040513d6000823e601f3d908101601f191682016040526105889190810190610a70565b949350505050565b6060836001600160a01b031663e7e4148e604051602001610503906020808252600990820152681413d3d317d31254d560ba1b604082015260600190565b604051806101c00160405280600081526020016000815260200160008152602001600081526020016000815260200160006001600160a01b0316815260200160006001600160a01b0316815260200160006001600160a01b0316815260200160006001600160a01b0316815260200160008152602001600081526020016000815260200160008152602001600081525090565b6001600160a01b038116811461067657600080fd5b50565b60008060006060848603121561068e57600080fd5b833561069981610661565b95602085013595506040909401359392505050565b602080825282518282018190526000919060409081850190868401855b82811015610701576106f184835180516001600160a01b03168252602090810151910152565b92840192908501906001016106cb565b5091979650505050505050565b6000806040838503121561072157600080fd5b823561072c81610661565b9150602083013561073c81610661565b809150509250929050565b805182526020810151602083015260408101516040830152606081015160608301526080810151608083015260a081015161078d60a08401826001600160a01b03169052565b5060c08101516107a860c08401826001600160a01b03169052565b5060e08101516107c360e08401826001600160a01b03169052565b50610100818101516001600160a01b03169083015261012080820151908301526101408082015190830152610160808201519083015261018080820151908301526101a090810151910152565b6101c081016102d28284610747565b6020808252825182820181905260009190848201906040850190845b818110156108625761084e838551610747565b928401926101c0929092019160010161083b565b50909695505050505050565b81516001600160a01b0316815260208083015190820152604081016102d2565b634e487b7160e01b600052604160045260246000fd5b634e487b7160e01b600052603260045260246000fd5b6040516101c0810167ffffffffffffffff811182821017156108de576108de61088e565b60405290565b604051601f8201601f1916810167ffffffffffffffff8111828210171561090d5761090d61088e565b604052919050565b805161092081610661565b919050565b60006040828403121561093757600080fd5b6040516040810181811067ffffffffffffffff8211171561095a5761095a61088e565b604052825161096881610661565b81526020928301519281019290925250919050565b60006001820161099d57634e487b7160e01b600052601160045260246000fd5b5060010190565b60006101c082840312156109b757600080fd5b6109bf6108ba565b82518152602083015160208201526040830151604082015260608301516060820152608083015160808201526109f760a08401610915565b60a0820152610a0860c08401610915565b60c0820152610a1960e08401610915565b60e0820152610100610a2c818501610915565b9082015261012083810151908201526101408084015190820152610160808401519082015261018080840151908201526101a0928301519281019290925250919050565b60006020808385031215610a8357600080fd5b825167ffffffffffffffff80821115610a9b57600080fd5b818501915085601f830112610aaf57600080fd5b815181811115610ac157610ac161088e565b8060051b9150610ad28483016108e4565b8181529183018401918481019088841115610aec57600080fd5b938501935b83851015610b165784519250610b0683610661565b8282529385019390850190610af1565b9897505050505050505056fea264697066735822122090a4ed0df12da788077842fd79be469c4b738fe17428165feb79f169506f830f64736f6c63430008140033",
  "linkReferences": {
    "contracts/pool/PoolStoreUtils.sol": {
      "PoolStoreUtils": [
        {
          "length": 20,
          "start": 656
        },
        {
          "length": 20,
          "start": 952
        }
      ]
    },
    "contracts/position/PositionStoreUtils.sol": {
      "PositionStoreUtils": [
        {
          "length": 20,
          "start": 454
        },
        {
          "length": 20,
          "start": 1156
        }
      ]
    }
  },
  "deployedLinkReferences": {
    "contracts/pool/PoolStoreUtils.sol": {
      "PoolStoreUtils": [
        {
          "length": 20,
          "start": 624
        },
        {
          "length": 20,
          "start": 920
        }
      ]
    },
    "contracts/position/PositionStoreUtils.sol": {
      "PositionStoreUtils": [
        {
          "length": 20,
          "start": 422
        },
        {
          "length": 20,
          "start": 1124
        }
      ]
    }
  }
}