{
  "_format": "hh-sol-artifact-1",
  "contractName": "RoleStore",
  "sourceName": "contracts/role/RoleStore.sol",
  "abi": [
    {
      "inputs": [],
      "stateMutability": "nonpayable",
      "type": "constructor"
    },
    {
      "inputs": [],
      "name": "ThereMustBeAtLeastOneRoleAdmin",
      "type": "error"
    },
    {
      "inputs": [],
      "name": "ThereMustBeAtLeastOneTimelockMultiSig",
      "type": "error"
    },
    {
      "inputs": [
        {
          "internalType": "address",
          "name": "msgSender",
          "type": "address"
        },
        {
          "internalType": "string",
          "name": "role",
          "type": "string"
        }
      ],
      "name": "Unauthorized",
      "type": "error"
    },
    {
      "inputs": [],
      "name": "getRoleCount",
      "outputs": [
        {
          "internalType": "uint256",
          "name": "",
          "type": "uint256"
        }
      ],
      "stateMutability": "view",
      "type": "function"
    },
    {
      "inputs": [
        {
          "internalType": "bytes32",
          "name": "roleKey",
          "type": "bytes32"
        }
      ],
      "name": "getRoleMemberCount",
      "outputs": [
        {
          "internalType": "uint256",
          "name": "",
          "type": "uint256"
        }
      ],
      "stateMutability": "view",
      "type": "function"
    },
    {
      "inputs": [
        {
          "internalType": "bytes32",
          "name": "roleKey",
          "type": "bytes32"
        },
        {
          "internalType": "uint256",
          "name": "start",
          "type": "uint256"
        },
        {
          "internalType": "uint256",
          "name": "end",
          "type": "uint256"
        }
      ],
      "name": "getRoleMembers",
      "outputs": [
        {
          "internalType": "address[]",
          "name": "",
          "type": "address[]"
        }
      ],
      "stateMutability": "view",
      "type": "function"
    },
    {
      "inputs": [
        {
          "internalType": "uint256",
          "name": "start",
          "type": "uint256"
        },
        {
          "internalType": "uint256",
          "name": "end",
          "type": "uint256"
        }
      ],
      "name": "getRoles",
      "outputs": [
        {
          "internalType": "bytes32[]",
          "name": "",
          "type": "bytes32[]"
        }
      ],
      "stateMutability": "view",
      "type": "function"
    },
    {
      "inputs": [
        {
          "internalType": "address",
          "name": "account",
          "type": "address"
        },
        {
          "internalType": "bytes32",
          "name": "roleKey",
          "type": "bytes32"
        }
      ],
      "name": "grantRole",
      "outputs": [],
      "stateMutability": "nonpayable",
      "type": "function"
    },
    {
      "inputs": [
        {
          "internalType": "address",
          "name": "account",
          "type": "address"
        },
        {
          "internalType": "bytes32",
          "name": "roleKey",
          "type": "bytes32"
        }
      ],
      "name": "hasRole",
      "outputs": [
        {
          "internalType": "bool",
          "name": "",
          "type": "bool"
        }
      ],
      "stateMutability": "view",
      "type": "function"
    },
    {
      "inputs": [
        {
          "internalType": "address",
          "name": "account",
          "type": "address"
        },
        {
          "internalType": "bytes32",
          "name": "roleKey",
          "type": "bytes32"
        }
      ],
      "name": "revokeRole",
      "outputs": [],
      "stateMutability": "nonpayable",
      "type": "function"
    }
  ],
  "bytecode": "0x608060405234801561001057600080fd5b5061006433604051602001610043906020808252600a90820152692927a622afa0a226a4a760b11b604082015260600190565b6040516020818303038152906040528051906020012061006960201b60201c565b610133565b6100746000826100be565b50600081815260026020526040902061008d90836100d3565b506001600160a01b03909116600090815260036020908152604080832093835292905220805460ff19166001179055565b60006100ca83836100e4565b90505b92915050565b60006100ca836001600160a01b0384165b600081815260018301602052604081205461012b575081546001818101845560008481526020808220909301849055845484825282860190935260409020919091556100cd565b5060006100cd565b61096a806101426000396000f3fe608060405234801561001057600080fd5b506004361061007d5760003560e01c806383d333191161005b57806383d33319146100e0578063ab2742dc146100f6578063ac4ab3fb14610109578063ca15c8731461015257600080fd5b8063208dd1ff146100825780632a861f5714610097578063821c1898146100c0575b600080fd5b610095610090366004610729565b610165565b005b6100aa6100a5366004610761565b6101ef565b6040516100b7919061078d565b60405180910390f35b6100d36100ce3660046107da565b610213565b6040516100b791906107fc565b6100e861022a565b6040519081526020016100b7565b610095610104366004610729565b61023b565b610142610117366004610729565b6001600160a01b03919091166000908152600360209081526040808320938352929052205460ff1690565b60405190151581526020016100b7565b6100e8610160366004610834565b610277565b6101b9336040516020016101789061084d565b604051602081830303815290604052805190602001206001600160a01b03919091166000908152600360209081526040808320938352929052205460ff1690565b6101e1573360405163a35b150b60e01b81526004016101d89190610877565b60405180910390fd5b6101eb828261028e565b5050565b600083815260026020526040902060609061020b908484610397565b949350505050565b606061022160008484610465565b90505b92915050565b6000610236600061051c565b905090565b61024e336040516020016101789061084d565b61026d573360405163a35b150b60e01b81526004016101d89190610877565b6101eb8282610526565b60008181526002602052604081206102249061051c565b60008181526002602052604090206102a6908361057b565b506001600160a01b03821660009081526003602090815260408083208484528252808320805460ff19169055600290915290206102e29061051c565b6000036101eb576040516020016102f89061084d565b60405160208183030381529060405280519060200120810361032d57604051635bc1e44560e11b815260040160405180910390fd5b6040516020016103629060208082526011908201527054494d454c4f434b5f4d554c544953494760781b604082015260600190565b6040516020818303038152906040528051906020012081036101eb57604051630282b5b760e41b815260040160405180910390fd5b606060006103a48561051c565b9050808311156103b2578092505b60006103be85856108c6565b67ffffffffffffffff8111156103d6576103d66108d9565b6040519080825280602002602001820160405280156103ff578160200160208202803683370190505b509050845b8481101561045b576104168782610590565b8261042188846108c6565b81518110610431576104316108ef565b6001600160a01b03909216602092830291909101909101528061045381610905565b915050610404565b5095945050505050565b606060006104728561051c565b905080831115610480578092505b600061048c85856108c6565b67ffffffffffffffff8111156104a4576104a46108d9565b6040519080825280602002602001820160405280156104cd578160200160208202803683370190505b509050845b8481101561045b576104e48782610590565b826104ef88846108c6565b815181106104ff576104ff6108ef565b60209081029190910101528061051481610905565b9150506104d2565b6000610224825490565b61053160008261059c565b50600081815260026020526040902061054a90836105a8565b506001600160a01b03909116600090815260036020908152604080832093835292905220805460ff19166001179055565b6000610221836001600160a01b0384166105bd565b600061022183836106b0565b600061022183836106da565b6000610221836001600160a01b0384166106da565b600081815260018301602052604081205480156106a65760006105e16001836108c6565b85549091506000906105f5906001906108c6565b905081811461065a576000866000018281548110610615576106156108ef565b9060005260206000200154905080876000018481548110610638576106386108ef565b6000918252602080832090910192909255918252600188019052604090208390555b855486908061066b5761066b61091e565b600190038181906000526020600020016000905590558560010160008681526020019081526020016000206000905560019350505050610224565b6000915050610224565b60008260000182815481106106c7576106c76108ef565b9060005260206000200154905092915050565b600081815260018301602052604081205461072157508154600181810184556000848152602080822090930184905584548482528286019093526040902091909155610224565b506000610224565b6000806040838503121561073c57600080fd5b82356001600160a01b038116811461075357600080fd5b946020939093013593505050565b60008060006060848603121561077657600080fd5b505081359360208301359350604090920135919050565b6020808252825182820181905260009190848201906040850190845b818110156107ce5783516001600160a01b0316835292840192918401916001016107a9565b50909695505050505050565b600080604083850312156107ed57600080fd5b50508035926020909101359150565b6020808252825182820181905260009190848201906040850190845b818110156107ce57835183529284019291840191600101610818565b60006020828403121561084657600080fd5b5035919050565b60208152600061022460208301600a8152692927a622afa0a226a4a760b11b602082015260400190565b6001600160a01b0382168152604060208201819052600a90820152692927a622afa0a226a4a760b11b6060820152600060808201610221565b634e487b7160e01b600052601160045260246000fd5b81810381811115610224576102246108b0565b634e487b7160e01b600052604160045260246000fd5b634e487b7160e01b600052603260045260246000fd5b600060018201610917576109176108b0565b5060010190565b634e487b7160e01b600052603160045260246000fdfea2646970667358221220c0ade009ce4597368d61b26ec10762293cb9e669ea0d14e94104aaba0bf08c4564736f6c63430008140033",
  "linkReferences": {},
  "deployedLinkReferences": {}
}