{
  "_format": "hh-sol-artifact-1",
  "contractName": "SupplyHandler",
  "sourceName": "contracts/exchange/SupplyHandler.sol",
  "abi": [
    {
      "inputs": [
        {
          "internalType": "contract RoleStore",
          "name": "_roleStore",
          "type": "address"
        },
        {
          "internalType": "contract DataStore",
          "name": "_dataStore",
          "type": "address"
        }
      ],
      "stateMutability": "nonpayable",
      "type": "constructor"
    },
    {
      "inputs": [],
      "name": "dataStore",
      "outputs": [
        {
          "internalType": "contract DataStore",
          "name": "",
          "type": "address"
        }
      ],
      "stateMutability": "view",
      "type": "function"
    },
    {
      "inputs": [
        {
          "internalType": "address",
          "name": "account",
          "type": "address"
        },
        {
          "components": [
            {
              "internalType": "address",
              "name": "underlyingAsset",
              "type": "address"
            },
            {
              "internalType": "address",
              "name": "receiver",
              "type": "address"
            }
          ],
          "internalType": "struct SupplyUtils.SupplyParams",
          "name": "supplyParams",
          "type": "tuple"
        }
      ],
      "name": "executeSupply",
      "outputs": [],
      "stateMutability": "nonpayable",
      "type": "function"
    },
    {
      "inputs": [],
      "name": "roleStore",
      "outputs": [
        {
          "internalType": "contract RoleStore",
          "name": "",
          "type": "address"
        }
      ],
      "stateMutability": "view",
      "type": "function"
    }
  ],
  "bytecode": "0x60c060405234801561001057600080fd5b5060405161063a38038061063a83398101604081905261002f9161005e565b6001600160a01b039081166080521660a052610098565b6001600160a01b038116811461005b57600080fd5b50565b6000806040838503121561007157600080fd5b825161007c81610046565b602084015190925061008d81610046565b809150509250929050565b60805160a0516105646100d66000396000606001526000818160a30152818160dc015281816101e5015281816102ec01526103a601526105646000f3fe608060405234801561001057600080fd5b50600436106100415760003560e01c80634724f3da146100465780634a4a7b041461005b578063660d0d671461009e575b600080fd5b61005961005436600461047d565b6100c5565b005b6100827f000000000000000000000000000000000000000000000000000000000000000081565b6040516001600160a01b03909116815260200160405180910390f35b6100827f000000000000000000000000000000000000000000000000000000000000000081565b6100cd6101e1565b600060405180606001604052807f00000000000000000000000000000000000000000000000000000000000000006001600160a01b0316815260200183600001602081019061011c91906104bc565b6001600160a01b0316815260200183602001602081019061013d91906104bc565b6001600160a01b0390811690915260408051633994b8f560e21b8152868316600482015283518316602482015260208401518316604482015290830151909116606482015290915073__$977db4b39333d664a10ecf863e3ac48683$__9063e652e3d49060840160006040518083038186803b1580156101bc57600080fd5b505af41580156101d0573d6000803e3d6000fd5b50505050506101dd6103a4565b5050565b60007f00000000000000000000000000000000000000000000000000000000000000006001600160a01b031663bd02d0f5604051602001610221906104de565b604051602081830303815290604052805190602001206040518263ffffffff1660e01b815260040161025591815260200190565b602060405180830381865afa158015610272573d6000803e3d6000fd5b505050506040513d601f19601f820116820180604052508101906102969190610515565b905080156102ea5760405162461bcd60e51b815260206004820152601f60248201527f5265656e7472616e637947756172643a207265656e7472616e742063616c6c00604482015260640160405180910390fd5b7f00000000000000000000000000000000000000000000000000000000000000006001600160a01b031663e2a4853a604051602001610328906104de565b60408051601f198184030181529082905280516020909101206001600160e01b031960e084901b1682526004820152600160248201526044016020604051808303816000875af1158015610380573d6000803e3d6000fd5b505050506040513d601f19601f820116820180604052508101906101dd9190610515565b7f00000000000000000000000000000000000000000000000000000000000000006001600160a01b031663e2a4853a6040516020016103e2906104de565b60408051601f198184030181529082905280516020909101206001600160e01b031960e084901b1682526004820152600060248201526044016020604051808303816000875af115801561043a573d6000803e3d6000fd5b505050506040513d601f19601f8201168201806040525081019061045e9190610515565b50565b80356001600160a01b038116811461047857600080fd5b919050565b600080828403606081121561049157600080fd5b61049a84610461565b92506040601f19820112156104ae57600080fd5b506020830190509250929050565b6000602082840312156104ce57600080fd5b6104d782610461565b9392505050565b60208082526017908201527f5245454e5452414e43595f47554152445f535441545553000000000000000000604082015260600190565b60006020828403121561052757600080fd5b505191905056fea26469706673582212204c6033951edf7b41b6e1a07da283d7d9a4b4ea78a92a0629ad590c1c9967eafb64736f6c63430008140033",
  "linkReferences": {
    "contracts/supply/SupplyUtils.sol": {
      "SupplyUtils": [
        {
          "length": 20,
          "start": 605
        }
      ]
    }
  },
  "deployedLinkReferences": {
    "contracts/supply/SupplyUtils.sol": {
      "SupplyUtils": [
        {
          "length": 20,
          "start": 391
        }
      ]
    }
  }
}