{
  "_format": "hh-sol-artifact-1",
  "contractName": "WithdrawHandler",
  "sourceName": "contracts/exchange/WithdrawHandler.sol",
  "abi": [
    {
      "inputs": [
        {
          "internalType": "contract RoleStore",
          "name": "_roleStore",
          "type": "address"
        },
        {
          "internalType": "contract DataStore",
          "name": "_dataStore",
          "type": "address"
        }
      ],
      "stateMutability": "nonpayable",
      "type": "constructor"
    },
    {
      "inputs": [],
      "name": "dataStore",
      "outputs": [
        {
          "internalType": "contract DataStore",
          "name": "",
          "type": "address"
        }
      ],
      "stateMutability": "view",
      "type": "function"
    },
    {
      "inputs": [
        {
          "internalType": "address",
          "name": "account",
          "type": "address"
        },
        {
          "components": [
            {
              "internalType": "address",
              "name": "underlyingAsset",
              "type": "address"
            },
            {
              "internalType": "uint256",
              "name": "amount",
              "type": "uint256"
            },
            {
              "internalType": "address",
              "name": "to",
              "type": "address"
            }
          ],
          "internalType": "struct WithdrawUtils.WithdrawParams",
          "name": "withdrawParams",
          "type": "tuple"
        }
      ],
      "name": "executeWithdraw",
      "outputs": [],
      "stateMutability": "nonpayable",
      "type": "function"
    },
    {
      "inputs": [],
      "name": "roleStore",
      "outputs": [
        {
          "internalType": "contract RoleStore",
          "name": "",
          "type": "address"
        }
      ],
      "stateMutability": "view",
      "type": "function"
    }
  ],
  "bytecode": "0x60c060405234801561001057600080fd5b5060405161064e38038061064e83398101604081905261002f9161005e565b6001600160a01b039081166080521660a052610098565b6001600160a01b038116811461005b57600080fd5b50565b6000806040838503121561007157600080fd5b825161007c81610046565b602084015190925061008d81610046565b809150509250929050565b60805160a0516105786100d66000396000604b015260008181608e0152818160dc015281816101f90152818161030001526103ba01526105786000f3fe608060405234801561001057600080fd5b50600436106100415760003560e01c80634a4a7b0414610046578063660d0d6714610089578063fc909092146100b0575b600080fd5b61006d7f000000000000000000000000000000000000000000000000000000000000000081565b6040516001600160a01b03909116815260200160405180910390f35b61006d7f000000000000000000000000000000000000000000000000000000000000000081565b6100c36100be366004610491565b6100c5565b005b6100cd6101f5565b600060405180608001604052807f00000000000000000000000000000000000000000000000000000000000000006001600160a01b0316815260200183600001602081019061011c91906104d0565b6001600160a01b031681526020018360200135815260200183604001602081019061014791906104d0565b6001600160a01b03908116909152604080516324e5b9b360e21b815286831660048201528351831660248201526020840151831660448201529083015160648201526060830151909116608482015290915073__$f1c1c1acb156fd0173e8f5485e932cfaeb$__90639396e6cc9060a40160006040518083038186803b1580156101d057600080fd5b505af41580156101e4573d6000803e3d6000fd5b50505050506101f16103b8565b5050565b60007f00000000000000000000000000000000000000000000000000000000000000006001600160a01b031663bd02d0f5604051602001610235906104f2565b604051602081830303815290604052805190602001206040518263ffffffff1660e01b815260040161026991815260200190565b602060405180830381865afa158015610286573d6000803e3d6000fd5b505050506040513d601f19601f820116820180604052508101906102aa9190610529565b905080156102fe5760405162461bcd60e51b815260206004820152601f60248201527f5265656e7472616e637947756172643a207265656e7472616e742063616c6c00604482015260640160405180910390fd5b7f00000000000000000000000000000000000000000000000000000000000000006001600160a01b031663e2a4853a60405160200161033c906104f2565b60408051601f198184030181529082905280516020909101206001600160e01b031960e084901b1682526004820152600160248201526044016020604051808303816000875af1158015610394573d6000803e3d6000fd5b505050506040513d601f19601f820116820180604052508101906101f19190610529565b7f00000000000000000000000000000000000000000000000000000000000000006001600160a01b031663e2a4853a6040516020016103f6906104f2565b60408051601f198184030181529082905280516020909101206001600160e01b031960e084901b1682526004820152600060248201526044016020604051808303816000875af115801561044e573d6000803e3d6000fd5b505050506040513d601f19601f820116820180604052508101906104729190610529565b50565b80356001600160a01b038116811461048c57600080fd5b919050565b60008082840360808112156104a557600080fd5b6104ae84610475565b92506060601f19820112156104c257600080fd5b506020830190509250929050565b6000602082840312156104e257600080fd5b6104eb82610475565b9392505050565b60208082526017908201527f5245454e5452414e43595f47554152445f535441545553000000000000000000604082015260600190565b60006020828403121561053b57600080fd5b505191905056fea264697066735822122048454c719a6882c7bcee76d75bf9cf30d00142267fd9927ccd488fede401f4f864736f6c63430008140033",
  "linkReferences": {
    "contracts/withdraw/WithdrawUtils.sol": {
      "WithdrawUtils": [
        {
          "length": 20,
          "start": 625
        }
      ]
    }
  },
  "deployedLinkReferences": {
    "contracts/withdraw/WithdrawUtils.sol": {
      "WithdrawUtils": [
        {
          "length": 20,
          "start": 411
        }
      ]
    }
  }
}